:020000040800F2
:1000000008060020ED0100084B2B000875220008AF
:10001000492B0008A10300087D39000800000000FA
:100020000000000000000000000000008D2F00080C
:1000300021040008000000004D2B00088F2F00084D
:10004000070200080702000807020008070200086C
:100050000702000807020008750400087B04000876
:1000600081040008070200080702000807020008D0
:10007000070200080702000807020008070200083C
:10008000070200080000000007020008070200083D
:10009000070200080702000807020008070200081C
:1000A00007020008313000080702000807020008B4
:1000B00007020008070200080702000807020008FC
:1000C00007020008070200080702000807020008EC
:1000D00007020008070200080702000807020008DC
:1000E00007020008070200080702000807020008CC
:1000F00007020008070200080702000800000000CD
:1001000000000000070200080000000007020008CD
:1001100007020008000000000702000807020008AC
:10012000070200080702000807020008070200088B
:10013000070200080000000000000000070200089D
:10014000070200080702000800000000000000008D
:10015000000000000000000000000000000000009F
:10016000000000000000000000000000070200087E
:10017000070200080000000000000000000000006E
:10018000000000000702000800000000000000005E
:10019000000000000000000000000000000000005F
:1001A000000000000000000007020008070200082D
:1001B000070200080702000807020008000000000C
:1001C000000000000702000800000000000000001E
:1001D0000702000807020008DFF80CD000F090F8D2
:1001E00000480047813B0008080600200648804779
:1001F00006480047FEE7FEE7FEE7FEE7FEE7FEE70C
:10020000FEE7FEE7FEE7FEE721300008D90100081F
:100210002DE9F05F0546002092469B46884606463B
:10022000814640241BE0284641464746224600F0CE
:1002300057F853465A46C01A914110D311461846F2
:10024000224600F03EF82D1A67EB01084F46224681
:100250000120002100F035F817EB00094E41201E67
:10026000A4F10104DFDC484631462A464346BDE896
:10027000F09FD2B201E000F8012B491EFBD270477B
:100280000022F6E710B513460A4604461946FFF762
:10029000F0FF204610BD30B50B460146002020225D
:1002A000012409E021FA02F59D4205D303FA02F583
:1002B000491B04FA02F52844151EA2F10102F1DCE3
:1002C00030BD202A04DB203A00FA02F100207047FA
:1002D0009140C2F1200320FA03F319439040704784
:1002E000202A04DB203A21FA02F00021704721FA8B
:1002F00002F3D040C2F120029140084319467047F2
:10030000064C074D06E0E06840F0010394E8070062
:1003100098471034AC42F6D3FFF762FFB44E0008A2
:10032000D44E00080748002101228170C17001717C
:100330004171017241728172C172427001708173A8
:10034000C1737047200000202DE9F04102F0F0F960
:100350000024104FDFF84080104D012638198078B6
:1003600040B104F1080006FA00F081B200224046D4
:1003700000F0EBF901220421284600F0E6F9002202
:100380000421284600F0E1F9641C042CE6DBBDE8FA
:10039000F08100002000002000080048000C004808
:1003A000FEE7000070B5194C00252846257022187C
:1003B000917811B16378C91A1172401C0428F6DBD8
:1003C00000224FF4967311466618307A984204D290
:1003D00018B1C82801D2B2780346491C0429F3DBBE
:1003E00000202270014662B9A618337A834201D9EF
:1003F000B1781846521C042AF6DB217004A003F0E1
:10040000BFFA02482178C01D0D5470BD20000020A5
:1004100057616E7420676F746F3A2025640D0A006F
:100420007047002240F6B83306E00021491C89B22B
:100430009942FBD3521C92B28242F6D3704700001D
:1004400010B50B4C4FF0904338B1012220211846D3
:1004500000F07BF94FF4167006E0002220211846C8
:1004600000F073F94FF4FA702168486310BD000082
:1004700028010020012000F073B8022000F070B8BD
:10048000042000F06DB872B6FEE7000070B50446B7
:1004900000F060F90546601C02D00448406804443E
:1004A00000F058F9401BA042FAD370BD0C000020A8
:1004B0002DE9F0411F4CE17B022938D201251E4F66
:1004C00004F11006012823D0022811D004282ED1CF
:1004D0001AA003F055FA61780320012905D00229FA
:1004E00003D0032923D0042921D1E57320711CE016
:1004F00015A003F045FA61780220012905D00229F0
:1005000015D0032901D0042911D1E573E0700CE066
:1005100010A003F035FA61780420012903D00229E4
:1005200001D0032903D1E573607130887880BDE87C
:10053000F0810000200000200000002042335F44D2
:100540006F776E210D0A000042325F446F776E2193
:100550000D0A000042345F446F776E210D0A0000DF
:10056000044910B50A68024202D00860FFF7A0FFF4
:1005700010BD0000140401402DE9FC4FDFF8A0A1DC
:10058000002301250AF1040B03244FF00F0C0BF19B
:10059000040EBDE005FA03F632406FD04F68012F1C
:1005A00005D0022F03D0112F01D0122F17D1D0F870
:1005B00008905F0004FA07F829EA08090097D1F8C3
:1005C0000C8008FA07F848EA0908C0F8088047686C
:1005D000B7430E79C6F300169E403E434660C66898
:1005E0004FEA430804FA08F7BE4301978F6807FAF9
:1005F00008F73743C7604E68022E01D0122E13D180
:10060000DE0800EB86060096366A5F07FF0E0CFADE
:1006100007F926EA0906D1F8109009FA07F949EA1C
:100620000609009EC6F820900668019FBE430F7918
:1006300007F0030707FA08F7374307604E68F6002C
:1006400065D5384E376E47F001073766366E23F0B2
:10065000030706F001060096334E3E44B146B668E5
:100660009F074FEA17780CFA08F7BE43B0F1904F96
:1006700005D02E4FB84204D1012717E047E00027EC
:1006800014E02B4FB84201D102270FE0294FB842A6
:1006900001D103270AE0284FB84201D1042705E021
:1006A000264FB84201D1052700E0062707FA08F7D0
:1006B0003743C9F80870DAF800605746D1F804806B
:1006C00096435FEAC83800D516433E60DBF8006009
:1006D0005F46D1F8048096435FEA883800D5164318
:1006E0003E60DEF800607746D1F8048096435FEA0A
:1006F000C82800D516433E60094F0C373E68D1F834
:10070000048096435FEA882800D516433E605B1C50
:100710000A6832FA03F67FF43DAFBDE8FC8F0000B3
:1007200000040140001002400000014000040048A5
:1007300000080048000C0048001000480014004861
:100740000069084000D0012070470AB181617047FC
:100750008162704701488068704700000C000020EB
:100760000248816842681144816070470C00002093
:1007700010B50024032000F073F80F2000F008F8F3
:1007800008B1012401E000F025F8204610BD00006A
:1007900070B50E4E05460024706898B14FF47A711A
:1007A000B1FBF0F00A490968B1FBF0F000F0E6FE99
:1007B00040B9102D06D200222946501E00F030F814
:1007C000356000E00124204670BD00000C000020D0
:1007D000180000200A4882B0016E41F00101016654
:1007E000016E01F001010091816D41F08051816540
:1007F000806D00F08050009002B000F0A1B80000C1
:1008000000100240002809DB00F01F020121914086
:100810004009800000F1E020C0F80011704700009E
:10082000F0B40E4B1B680C46C3F30223C3F107055B
:10083000042D00D90425191D072901D2002300E049
:10084000DB1E012606FA05F1491E214099409E4013
:10085000761E16403143F0BC03F0B6B80CED00E054
:10086000064900F0070208684FF6FF03184040EA07
:100870000220034A10430860704700000CED00E0BE
:100880000000FA052B492C4B0A6832214A432B49B8
:1008900040B1B0F5007F086829D020F4C06040F472
:1008A00080602CE00868C0F34120022804D051F891
:1008B000800F20F4807022E0D1F8800020F4807056
:1008C000C1F88000086820F4C06040F4007008603F
:1008D000B2FBF3F0401C00E0401E4A69520501D50E
:1008E0000028F9D1486940050AD503207047C0F3B4
:1008F0004120022806D051F8800F40F48070086033
:1009000000207047D1F8800040F48070C1F880006A
:10091000086820F4C06040F400700860B2FBF3F097
:10092000401C00E0401E4A695205DBD50028F9D181
:10093000D8E700001800002040420F00007000407F
:100940000248816841F48041816070470070004036
:100950002DE9F8430446006800269D4D00035ED54E
:10096000A86D0027C00008D4A86D40F08050A8658D
:10097000A86D012700F080500090DFF85892D9F858
:10098000001041F48071C9F80010FFF7E3FE8046C3
:1009900006E000BFFFF7DEFEA0EB080002282BD820
:1009A000D9F80000C005F5D5D5F8900010F44070D6
:1009B00014D0216C814211D0D5F89000D5F8901058
:1009C00020F4407041F48031C5F89010D5F89010B3
:1009D00021F48031C5F89010C5F89000C00711D0FF
:1009E000FFF7B8FE804641F2883907E0FFF7B2FE14
:1009F000A0EB0801494501D903260BE0D5F890008A
:100A00008007F3D5D5F89000216C20F4407008439E
:100A1000C5F890001FB1A86D20F08050A86520781F
:100A2000C00707D0D5F88800616820F003000843AC
:100A3000C5F888002078800707D5D5F88800A16818
:100A400020F00C000843C5F888002078400707D53F
:100A5000D5F88800E16820F030000843C5F8880028
:100A60002078000707D5D5F88800216920F0C0005C
:100A70000843C5F888002078800607D5D5F8880097
:100A8000616920F440600843C5F88800207840067A
:100A900007D5D5F88800A16920F440500843C5F86F
:100AA00088002078000607D5D5F88800E16920F491
:100AB00040400843C5F888002088C00507D5D5F810
:100AC0008800216A20F440300843C5F88800208857
:100AD000800507D5D5F88800616A20F440200843D6
:100AE000C5F88800208840050FD5D5F88800A16A90
:100AF00020F440100843C5F88800A06AB0F5801FB4
:100B000003D1E86840F48010E860208800050FD524
:100B1000D5F88800E16A20F440000843C5F8880051
:100B2000E06AB0F5800F03D1E86840F48010E86017
:100B30002088C0040FD5D5F88800216B20F04070C4
:100B40000843C5F88800206BB0F1807F03D1E868C6
:100B500040F48010E86020884FF0006180040ED5DA
:100B6000D5F88800626B20F040601043C5F888001B
:100B7000606B884203D1E86840F48010E860208808
:100B800040040ED5D5F88800A26B20F040601043D9
:100B9000C5F88800A06B884203D1E86840F4801053
:100BA000E860208800040FD5D5F88800E16B20F0BC
:100BB00040500843C5F88800E06BB0F1805F03D176
:100BC000E86840F48030E8603046BDE8F883000013
:100BD00000100240007000402DE9F0470E4605006D
:100BE0004FF0000725D0DFF8AC81D8F8000000F006
:100BF0000F00B0420CD2D8F8001021F00F013143A1
:100C0000C8F80010D8F8000000F00F00B04210D172
:100C10002968614CC80741F2883A5AD06868DFF801
:100C20007C91032808D0022820682DD04005002898
:100C30002CDB0120BDE8F08720688001F9D5E06851
:100C400000F00302E068C0F30310401C032A19D02F
:100C5000534A00BFB2FBF0F0E268C2F306225043F1
:100C6000E268C2F34162521C5200B0FBF2F0484508
:100C700017D9A06810F0F00F0CD0880711D5A8681C
:100C800040B10EE0474AE5E78003D0E700F0B6F850
:100C9000484506D9A06820F0F00040F08000A06030
:100CA0008027A068696820F003000843A060FFF770
:100CB00051FD814606E000BFFFF74CFDA0EB0901A6
:100CC00051453AD8A068696800F00C00B0EB810F7C
:100CD000F2D12868810714D5400703D5A06840F4F5
:100CE000E060A0602878000705D5A06820F4605077
:100CF00040F4E060A060A068A96820F0F00008431C
:100D000004E0802F03D1A06820F0F000A060D8F8A4
:100D10000010404601F00F01B14216D9016821F0E0
:100D20000F0131430160FFF715FD074607E000BFE3
:100D3000FFF710FDC11B514501D903207AE7D8F810
:100D4000000000F00F00B042F2D12878400705D52E
:100D5000A068E96820F4E0600843A06028780007F4
:100D600006D5A068296920F4605040EAC100A0605F
:100D700000F044F8A1680C4AC1F30311515C01F082
:100D80001F01C8400949086009480068BDE8F047EC
:100D9000FFF7FEBC002002400010024000B4C40473
:100DA0000024F40000366E019C4E0008180000205C
:100DB0000C0000200548064900688968054AC1F30F
:100DC0000221515C01F01F01C8407047180000204B
:100DD00000100240AC4E00080548064900688968CA
:100DE000054AC1F3C221515C01F01F01C8407047A0
:100DF0001800002000100240AC4E0008184910B541
:100E00008868C0F381021748012A0BD08A68164B04
:100E1000C2F38102022A06D08A68C2F38102032A41
:100E200003D0002010BD184610BDCA6802F00304AC
:100E3000CA68C2F30312521C032C02D0B0FBF2F0BA
:100E400001E0B3FBF2F0CA68C968C2F3062250435E
:100E5000C1F34161491C4900B0FBF1F010BD000035
:100E6000001002400024F40000366E012DE9F84322
:100E700004007AD02078FA4DC00747D0A868E96806
:100E800000F00C0001F003010C2802D0082817D054
:100E900001E0032914D06068B0F5803F17D0B0F5A9
:100EA000A02F286817D020F480302860286820F40C
:100EB000802028606068E0B1FFF74CFC064614E033
:100EC0002868800322D560680028D2D01EE02868F8
:100ED00040F48030EDE740F480202860F7E700BF61
:100EE000FFF738FC801B642870D828688003F7D58A
:100EF0000CE0FFF72FFC064605E000BFFFF72AFCD9
:100F0000801B6428F0D828688003F7D420788007F5
:100F10004CD5A868E96800F00C0001F003010C282A
:100F200002D004280DD001E002290AD0E068002890
:100F300028682BD040F480702860FFF70BFC064631
:100F400019E02868400502D5E068002891D068685B
:100F5000217C20F0FE4040EA01606860C1480068E2
:100F6000FFF716FC002800D120E076E1FFF7F2FB46
:100F7000801B0228B8D828684005F7D56868217C0E
:100F800020F0FE4040EA016068600FE020F48070CD
:100F90002860FFF7DFFB064605E000BFFFF7DAFB3E
:100FA000801B0228A0D828684005F7D420780007C5
:100FB00029D560690028D5F8940013D040F00100CD
:100FC000C5F89400FFF7C6FB064606E090E000BFB8
:100FD000FFF7C0FB801B022886D8D5F89400800755
:100FE000F6D510E020F00100C5F89400FFF7B2FB41
:100FF000064604E0FFF7AEFB801B022878D8D5F840
:1010000094008007F6D42078400761D5A86D0026AB
:10101000C00008D4A86D40F08050A865A86D0126D6
:1010200000F08050009090480168C90511D4016813
:10103000804641F480710160FFF78CFB074604E0B5
:10104000FFF788FBC01B022852D8D8F80000C00563
:10105000F6D5A068012815D00528D5F8900016D03F
:1010600020F00100C5F89000D5F8900020F00400B1
:10107000C5F89000A06841F28838B8B1FFF76AFB64
:1010800007460EE0D5F8900040F00100F0E740F090
:101090000400C5F89000F5E7FFF75CFBC11B414574
:1010A00026D8D5F890008007F6D50CE0FFF752FB64
:1010B000074604E0FFF74EFBC11B414518D8D5F8A1
:1010C00090008007F6D41EB1A86D20F08050A8656E
:1010D0002078800629D5A0690028D5F8980013D07B
:1010E00040F00100C5F89800FFF734FB064606E023
:1010F00077E000BFFFF72EFB801B022877D8D5F8DA
:1011000098008007F6D510E020F00100C5F898009F
:10111000FFF720FB064604E0FFF71CFB801B0228BC
:1011200065D8D5F898008007F6D4E069F0B3A968CF
:10113000C1F38101032961D00228286820F0807062
:1011400028600BD0E86820F00300E860E8684749B1
:101150000840E860FFF7FEFA04464BE0FFF7FAFAB2
:10116000064604E0FFF7F6FA801B02283FD82868FD
:101170008001F7D4F4E908016FF00F0202EB0111CE
:101180000843218A5204490802EB4151A26841EA0E
:1011900002210843217D4FF07E42490802EB416164
:1011A0000843217B40EAC160E96800E062E0304A20
:1011B00011400843E860286840F080702860E868C3
:1011C00040F08070E860FFF7C5FA044605E000BF14
:1011D000FFF7C0FA001B022809D828688001F7D55C
:1011E00048E004E0FFF7B6FA001B022802D903200A
:1011F000BDE8F88328688001F4D43BE00128F7D0EB
:10120000E868226A00F00301914226D1616A00F089
:10121000F0020901103991421FD1A26A00F4FE4187
:10122000B1EB022F19D194F82C2000F07841B1EBEA
:10123000C26F12D1218E00F4C00249084905A1F500
:101240000011914209D194F8341000F0C0604908AF
:101250004906A1F1007181420CD00120C8E70000CD
:10126000001002400C00002000700040FFFFEEFE66
:101270000C809F010020BBE70F4810B50B460168AA
:101280000E480140080CD870C1F304245C7001F0D2
:101290003F049C70C1F34231197052B901F0E1FD75
:1012A000D870587801F0DDFD5870987801F0D9FDBC
:1012B0009870002010BD0000042800403FFFFF0090
:1012C000144810B500680B464860124808300068A2
:1012D000C0F30E0088600F48083801680E480140CE
:1012E000C1F305401870C1F306245C7001F07F045F
:1012F0009C70890DD97052B901F0B3FD18705878FF
:1013000001F0AFFD5870987801F0ABFD98700020A7
:1013100010BD0000082800407F7F7F0070B50400EA
:101320004FF001003ED094F8250028B9002084F841
:101330002400204600F03CF8022084F825001A4ED4
:10134000CA20306053203060204601F09FFD10BB62
:10135000154D0C3D286815490840286028686168CB
:10136000A269084321691143084328602189E06884
:1013700040EA01400C4914390860204601F0ACFDF8
:1013800048B9D4E90721114362692B6823F060430F
:101390001A4311432960FF213160002802D1012145
:1013A00084F8251070BD000024280040BFFF8FFB8B
:1013B00000680549884205D1044850F8901F41F45F
:1013C000004101607047000000280040001002400A
:1013D0002DE9F041044690F824000B4601281AD06C
:1013E000012684F82460022084F82500B2B19878A0
:1013F000D97840EA014558781978000240EA41302E
:1014000005431B4FCA20386053203860204601F046
:101410003DFDD8B122E00220BDE8F0815878C10638
:1014200003D500F0EF000A305870D87801F022FDA3
:101430000504587801F01EFD45EA0025987801F072
:1014400019FD0543187845EA4035DAE709480540B3
:10145000074820380560204601F03EFDFF21396035
:1014600008B984F82560002184F82410D4E700002E
:10147000242800403FFFFF002DE9F047054690F883
:10148000240017460C46012814D04FF0010985F8B6
:101490002490022085F82500DFF8A480CA21C8F82E
:1014A00000105321C8F80010284601F0EFFC002678
:1014B00018B127E00220BDE8F087214B0C3B1868EB
:1014C0004FEA40601FB3002800DBE670A078217867
:1014D000E27840EA01406178090241EA825108431A
:1014E00018490840164924390860186820F48020FB
:1014F0001860D4E9030108431968084318602846B6
:1015000001F0EAFCFF22C8F80020A0B115E0002895
:1015100000DBE670207801F0ADFC0704607801F094
:10152000A9FC47EA0027A07801F0A4FC0743E07873
:1015300047EA8050D4E785F8259085F82460BAE71B
:10154000242800407F7F7F0070B50B4D286820F075
:1015500020002860FFF7FEF804464FF47A7606E094
:10156000FFF7F8F8001BB04201D9032070BD2868CE
:101570008006F5D5002070BD0C28004010B5401E37
:10158000B0F1807F01D3012010BD4FF0E0246061F5
:101590000F21601702F018FA0020A06107202061D7
:1015A000002010BD7047704770470000F0B590F8FC
:1015B0003C20012A4AD0012280F83C20CA688B686E
:1015C00022F440721A434B6822F480621A430B687B
:1015D00022F400621A430B6922F480521A434B69C9
:1015E00022F400521A430B6B22F480421A430B8BF5
:1015F00022F4702242EA0342154C03680026154D7E
:10160000A34201D0AB4203D1CF6922F080523A43CA
:10161000A34201D0AB4214D10F8D22F4700242EAF2
:1016200007520F6A22F080723A434F6A22F000722A
:101630003A43A34201D0AB4203D1C96A22F000521F
:101640000A435A6480F83C600020F0BD0220F0BDDF
:10165000002C014000340140704770477047000083
:10166000F0B590F83C20012A3AD0012580F83C5092
:10167000022280F83D2003685A689C68194E1A4F70
:10168000B34201D0BB4204D122F4700C4A6842EA52
:101690000C02DFF858C002EA0C02D1F800C04CEA94
:1016A000020CC3F804C00268B2420DD0B2F1804F00
:1016B0000AD00F4B9A4207D00E4B9A4204D0BA423E
:1016C00002D00D4B9A4204D1896824F0800319435B
:1016D000916080F83D50002180F83C100846F0BD34
:1016E0000220F0BD002C0140003401408FFFFFFDBF
:1016F000000400400008004000400140704710B561
:10170000040003D094F83D0010B107E0012010BDA3
:10171000002084F83C00204600F022F8022084F8E3
:101720003D00211D206801F089FC012084F848005B
:1017300084F83E0084F83F0084F8400084F84100BB
:1017400084F8420084F8430084F8440084F845009B
:1017500084F8460084F8470084F83D00002010BD5E
:1017600008B5174A01681748914211D1016E41F43A
:1017700000610166006E002200F4006000901146D6
:101780001920FFF74DF8BDE808401920FFF73AB8D7
:101790000D4A914207D1816D41F002018165806D52
:1017A00000F0020009E0094A914207D1016E41F4BC
:1017B00080210166006E00F48020009008BD0000CA
:1017C000002C01400010024000040040004801408D
:1017D00090F83D10012901D001207047022180F8C6
:1017E0003D100168CA6842F00102CA6000681049F1
:1017F00088420ED0B0F1804F0BD00E49884208D0FD
:101800000D49884205D00D49884202D00C498842D2
:1018100007D181680B4A1140062906D0B1F5803FF7
:1018200003D0016841F00101016000207047000011
:10183000002C01400004004000080040003401403A
:10184000004001400700010070B5044690F83C00DC
:10185000012814D0012584F83C50022084F83D0072
:1018600022689068344B184020F47F4090600868EC
:10187000702827D010DC10F00F0F03D04AE04FF093
:10188000020070BD4FEA2012072A43D2DFE802F0BF
:101890005050505048313900284BC21A984247D016
:1018A00009DCB0F5805F35D0B0F5005F15D0B0F140
:1018B000101F2FD13CE0102A3AD0202A38D0502ACD
:1018C00028D135E0CB68D1E90121206801F01BFC6B
:1018D0002068816841F0770109E0CB68D1E90121F6
:1018E000206801F010FC2068816841F4804181602B
:1018F00010E0CA684968206801F0B0FD50212068F6
:1019000006E0CA684968206801F0B9FD60212068D6
:1019100001F004FC84F83D50002084F83C0070BDC8
:10192000CA684968206801F099FD40212068EFE706
:10193000226801461046EBE788FFCEFF200010002A
:10194000704770B50446006801694FF00005C9434F
:10195000890715D4C168C943890711D4E91E0161FB
:1019600001202077206880698007204602D0FFF799
:10197000E7FF04E000F020F9204600F0DFF92577CA
:1019800020680169C943490717D4C168C943490799
:1019900013D46FF004010161022020772068806970
:1019A00010F4407F204602D0FFF7CAFF04E000F0A9
:1019B00003F9204600F0C2F9257720680169C94380
:1019C000090716D4C168C943090712D46FF008018A
:1019D0000161042020772068C0698007204602D07A
:1019E000FFF7AEFF04E000F0E7F8204600F0A6F9AC
:1019F000257720680169C943C90617D4C168C9435E
:101A0000C90613D46FF01001016108202077206807
:101A1000C06910F4407F204602D0FFF791FF04E038
:101A200000F0CAF8204600F089F92577206801699E
:101A3000C943C90708D1C168C943C90704D1891E70
:101A40000161204600F0FAF920680169C9430906DE
:101A500009D4C168C943090605D46FF0800101614A
:101A60002046FFF7A0FD20680169C943C90509D4D4
:101A7000C168C943090605D46FF48071016120462D
:101A8000FFF790FD20680169C943490609D4C16880
:101A9000C943490605D46FF040010161204600F0BA
:101AA00015FB20680169C943890609D4C168C94387
:101AB000890605D46FF0200101612046FFF774FD0F
:101AC00020680169C943C90209D4C168C943C90270
:101AD00005D46FF4801101612046FFF7BEFD206838
:101AE0000169C943890209D4C168C943890205D47F
:101AF0006FF4001101612046FFF7AEFD2068016917
:101B0000C943490209D4C168C943490205D46FF4E5
:101B1000800101612046FFF7A1FD20680169C943EA
:101B200009020BD4C168C943090207D46FF400014C
:101B300001612046BDE87040FFF7E0BD70BD0000C8
:101B400030B587B0044614216846FEF799FB246837
:101B5000164D0023164902224FF09040AC420ED1A0
:101B6000CC6C44F00104CC64C96C01F00101059116
:101B700040218DE80E00CDE90332694611E00D4D9C
:101B8000AC4210D1CC6C44F00104CC64C96C01F0BF
:101B90000101059180218DE80E000121CDE903317D
:101BA0006946FEF7E9FC07B030BD000000040040C4
:101BB0000010024000480140704770B5044690F89C
:101BC0003C000D4601280BD0012084F83C000C2A73
:101BD00045D007DC5AB1042A1BD0082A78D12CE062
:101BE000022070BD102A4ED0142A71D15DE0206809
:101BF00001F09EFA2068816941F008018161206846
:101C0000816921F004018161206881692A69114399
:101C100011E0206801F0DAFA2068816941F400617E
:101C200081612068816921F4806181612068816916
:101C30002A6941EA022181614AE0206801F00EFB35
:101C40002068C16941F00801C1612068C16921F0C3
:101C50000401C1612068C1692A69114311E020684B
:101C600001F044FB2068C16941F40061C161206852
:101C7000C16921F48061C1612068C1692A6941EAB2
:101C80000221C16124E0206801F078FB2068016D29
:101C900041F0080101652068016D21F00401016532
:101CA0002068016D2A69114311E0206801F09EFB54
:101CB0002068016D41F4006101652068016D21F427
:101CC000806101652068016D2A6941EA0221016590
:101CD000002084F83C0070BD10B5040003D094F8D7
:101CE0003D0010B107E0012010BD002084F83C0049
:101CF000204600F022F8022084F83D00211D2068D3
:101D000001F09CF9012084F8480084F83E0084F832
:101D10003F0084F8400084F8410084F8420084F8D1
:101D2000430084F8440084F8450084F8460084F8B1
:101D3000470084F83D00002010BD70477047000048
:101D400030B50446022269B1042912D0082917D0FF
:101D50000C291CD0102921D094F84300012824D04C
:101D6000012030BD94F83E000128F9D184F83E20CE
:101D70001DE094F83F000128F2D184F83F2016E0DE
:101D800094F840000128EBD184F840200FE094F84B
:101D900041000128E4D184F8412008E094F8420091
:101DA0000128DDD184F8422001E084F8432001229B
:101DB000206801F09BF9194B20681949194A98428B
:101DC00009D0884207D0904205D0174DA84202D0D2
:101DD000164DA84203D1456C45F400454564206882
:101DE00098420CD0B0F1804F09D0114B984206D0E8
:101DF000104B984203D0884201D0904207D18168AD
:101E00000D4A1140062906D0B1F5803F03D0016884
:101E100041F001010160002030BD0000002C0140B4
:101E200000340140004001400044014000480140AE
:101E30000004004000080040070001002DE9F047C1
:101E400080490068096888427DD17F4D002705F1EF
:101E50001006284695F80FC04178B38872887B4CED
:101E600000784FF002094FF0010ABCF10C0F41D28B
:101E7000DFE80CF0C1061B23416E76808B97A1B37F
:101E80006088401E0004000C608033D1FEF78AFA9F
:101E900029786FA001F074FD85F80F90B0886080FC
:101EA0000020FEF7CDFA6DA0A3E06088401E00047C
:101EB000000C6080E9D103207AE0884208D96CA048
:101EC00001F05EFD012001F03FFD85F80EA007E066
:101ED0006AA001F055FD002001F036FD85F80E9056
:101EE0000420E87368782978401A01F0D7FEF18859
:101EF000484360807FE063885B1E9BB26380B6F8D6
:101F000006C0B3FBFCF80CFB1833002B73D18842DE
:101F100001D9491C69706978884201D2491E6970EB
:101F2000C9B2884267D10521E97347496280491CDB
:101F300068704754697855A001F022FD0120FEF732
:101F40007FFA55A000E064E001F01AFDAF7352E0A3
:101F50006088401E0004000C60804CD1062010E018
:101F60006188491E0904090C618044D10721E97385
:101F7000628014E06088401E0004000C60803AD14A
:101F80000820E87362806F7035E06188491E09049B
:101F9000090C61802FD10921E973643B638068706B
:101FA00029E06088401E0004000C608023D10A20D4
:101FB000E87367801FE0FEF7F5F9297839B124A0AE
:101FC00001F0DEFC308960800B20E87313E037A05D
:101FD00001F0D6FC6780EF730DE06088401E0004BE
:101FE000000C608007D185F80F906380FEF728FA17
:101FF00030A001F0C5FCFEF7A7F9A87B58B17088A6
:10200000401E0004000C708003D100F03FFB19203B
:102010007080BDE8F087217801220C310AFA01F0C6
:1020200081B22848FEF791FB274C0122042120466B
:10203000FEF78BFB2046BDE8F04700220421FEF7A7
:1020400084BB000090000020200000200000002041
:10205000676F746F3A2025640D0A0000446F6F7239
:1020600020436C6F73696E672E2E2E0D0A000000E0
:102070005570696E672E2E2E0D0A0000446F776E24
:10208000696E672E2E2E0D0A0000000061726976BF
:10209000653A2025640D0A00446F6F72204F706E00
:1020A0006E696E672E2E2E0D0A0000004F76657247
:1020B000210D0A00446F6F7220436C6F73696E6765
:1020C0000D0A000000080048000C0048704790F816
:1020D0008010012918D0012180F880102421C0F837
:1020E000841050F8641B0A680B6823F001030B602E
:1020F00022F000510022026050F8643C1960202157
:1021000001620277104670470220704770B504469E
:1021100090F8800001281DD0012084F88000242040
:10212000C4F8840020680568026822F00102026099
:102130002068826822F060620A438260204601F0D3
:10214000C1F9206805602020C4F88400002084F8CC
:10215000800070BD022070BD70B5044690F880000C
:1021600001281DD0012084F880002420C4F88400B8
:1021700020680568026822F0010202602068826817
:1021800022F060420A438260204601F09BF92068F9
:1021900005602020C4F88400002084F8800070BD11
:1021A000022070BD10B5040003D0D4F8840010B133
:1021B00007E0012010BD002084F88000204600F0D8
:1021C00027F82420C4F884002068016821F0010168
:1021D0000160204601F02CFA0128EBD0A06A10B172
:1021E000204601F091F92068416821F49041416056
:1021F0002068816821F02A0181602068016841F02F
:10220000010101602046BDE8104001F0E1B9000085
:1022100010B586B0044614216846FEF731F813491C
:10222000206888421FD11248016E41F48041016646
:10223000016E01F480410591C16C41F00101C1645E
:10224000C06C694600F0010005904FF4C06000903A
:1022500002200190002002900390072004904FF08C
:102260009040FEF789F906B010BD0000003801402B
:1022700000100240FEE7000000B585B0142168465A
:10228000FDF7FEFF4FF6FF70009000200321CDE91F
:102290000201019069460248FEF76EF905B000BDE3
:1022A0000008004800B585B014216846FDF7E8FF36
:1022B0004FF6FF7000900120019003200390002052
:1022C000029069460248FEF757F905B000BD0000CC
:1022D0000008004870B5002406462146204600F05C
:1022E00003F900F06FF94FF49635304600F03EF9EF
:1022F000641CAC42F9D370BD70B586B01421684639
:10230000FDF7BEFF1E48C16C41F00401C164C16C01
:1023100001F004010591C16C41F00101C164C16C7F
:1023200001F001010591C16C41F00201C164C06C72
:10233000022500F0020005904FF4487001240026A9
:1023400003958DE8510069460E48FEF715F9200205
:1023500003958DE851004FF0904469462046FEF702
:102360000BF9FFF79FFFA06940F48070A06105485A
:102370001830016841F40871016006B070BD0000BA
:102380000010024000040048203AD2B2034B02EB96
:10239000420203EB021200F019B80000A43C00084E
:1023A000F0B50E460746002540F23F1407E02146EF
:1023B0003846FFF7E9FF103C6D1CA4B2761C32785A
:1023C000002A01D0142DF2D3F0BD00002DE9F04712
:1023D00091468A460026044600F086F8DFF84080E1
:1023E000012700BF00F0EEF85FF0000539F8160095
:1023F00007FA05F10842404601D1408800E0008814
:1024000000F0B4F86D1C102DF0D3641CE4B25146FA
:10241000204600F069F8761C182EE3D3BDE8F0875B
:102420000400002010B5FFF767FF002000F014F84B
:10243000084CA080A088A0F50241303906D000F0F9
:102440000FFC002000F008F8A08010BD00F07FFB1A
:10245000F7E700000400002070B51D490A6842F447
:1024600000720A600A6842F480720A60184C103CDC
:10247000226842F020022260164A1060086840F08C
:102480002000086000BF00BF00BF206840F02000AF
:102490002060206840F480702060FFF7EDFE4FF070
:1024A0009041886A40F48070886200BF00BF00BF1E
:1024B0000848001F006885B2886940F48070886110
:1024C000FFF7F0FE206840F400702060284670BDE1
:1024D000280400481408004801B5BDF8000001496F
:1024E000488008BD0400002010B50C46014620209D
:1024F00000F096F82146BDE81040212000F090B889
:1025000001B5BDF800000149088008BD04000020A5
:1025100010B50A48427822B109A12A3001F040FAE8
:1025200004E006480BA12A3001F03AFA0349BDE85D
:1025300010402A316020FFF733BF00002000002048
:102540002020202020202020202564202020202042
:1025500020200000202020202020202020202020BB
:10256000202020202020202020000000134A116875
:1025700041F400711160114910390B6843F4807304
:102580000B600B6843F020030B600D4B1860106864
:1025900040F02000106000BF00BF00BF086840F09E
:1025A00020000860086840F48070086000BF00BF29
:1025B00000BF086840F400700860704728040048B5
:1025C000140800481449086840F40070086008685E
:1025D00040F48070086010481038026842F0200211
:1025E00002600E4B22221A600A6842F020020A6042
:1025F00000BF00BF00BF016841F020010160016819
:1026000041F48071016000BF00BF00BF016841F468
:102610000071016070470000280400481408004859
:10262000184B10B51A6842F400721A601A6842F426
:1026300080721A60134A103A146844F0200414603F
:10264000114C2060186840F02000186000BF00BFE7
:1026500000BF106840F020001060106840F48070E7
:1026600010602160186840F02000186000BF00BFB3
:1026700000BF106840F020001060106840F48070C7
:10268000106010BD28040048140800482DE9F041EE
:1026900023480126234F807B234D012802D00228A6
:1026A00019D125E0287801220C3006FA00F081B219
:1026B0003846FEF74AF82878401CC0B22870042833
:1026C00001D1002029E0C0B20C308640B1B2002216
:1026D0003846FEF73AF8154C012204212046FEF751
:1026E00034F82046BDE8F04100220421FEF72DB861
:1026F0005FF0000404F10C0006FA00F081B2012240
:102700003846FEF722F8641C042CF3DB2878401EC0
:10271000C0B22870FF28D6D103202870D3E700006C
:10272000200000200008004800000020000C0048A5
:1027300010B501224FF47F410748FEF706F8074C19
:10274000012204212046FEF700F820460022BDE8C1
:1027500010400421FDF7F9BF00080048000C0048B4
:102760002DE9F04186B014216846FDF789FD474800
:10277000C16C41F00401C164C16C01F00401059118
:10278000C16C41F02001C164C16C01F020010591D0
:10279000C16C41F00101C164C16C01F001010591FE
:1027A000C16C41F00201C164C16C01F002010591EC
:1027B000C16C41F00801C164C06C354E00F00800E6
:1027C0004FF47F440590002221463046FDF7BDFFBF
:1027D0004FF09047002230213846FDF7B6FFDFF872
:1027E000B480002204214046FDF7AFFF0125CDE96A
:1027F000004500240294694630460394FDF7BCFE70
:10280000254E0095CDE9016469463846FDF7B4FED2
:102810003020CDE90005CDE9025469463846FDF780
:10282000ABFECDE900541D4F694638460294FDF7D2
:10283000A3FE0620CDE90006694602943846FDF75E
:102840009BFE04200090CDE9015469464046039464
:10285000FDF792FE002211460620FDF7E1FF06205B
:10286000FDF7D0FF002211460720FDF7D9FF072012
:10287000FDF7C8FF002211460820FDF7D1FF082010
:10288000FDF7C0FF06B0BDE8F08100000010024077
:1028900000080048000C0048000011100004004827
:1028A00010B586B014216846FDF7EAFC1F480024E5
:1028B0001D490594C0E900147F218160FF21C0E912
:1028C00003144FF080414461C0E906410462FEF701
:1028D00025FD08B1FDF7D7FD12208DF8000050202E
:1028E0008DF8010055208DF8020001940394012217
:1028F00069460E480494FEF7BFFD08B1FDF7C3FD1D
:1029000001208DF814008DF815008DF81600024690
:102910008DF8174005A90548FEF75AFD002801D09B
:10292000FDF7B1FD06B010BD002800406800002092
:1029300010B594B01C210DA8FDF7A2FC3421684607
:10294000FDF79EFC21482049002401604F21C0E989
:10295000011440F2F311C0E903148021C0E90541DC
:10296000FEF7CDFE08B1FDF78EFD1848FFF7B4F96C
:1029700008B1FDF788FD60200D904FF41670CDE989
:102980000E0410941194129400220DA90F48139470
:10299000FFF713F908B1FDF776FD00944FF40050EE
:1029A000CDE90440019402940394069469460748D3
:1029B0000C94FEF7FBFD08B1FDF765FD0348FFF73A
:1029C000BFF814B010BD00000048014028010020ED
:1029D00010B588B000241948059406940394049413
:1029E000009401941449029401604F21C0E901143C
:1029F00042F20F71C0E903148021C0E90541FEF7DE
:102A00007EFE08B1FDF73FFD4FF48050039003A90F
:102A10000A48FEF719FF08B1FDF735FD009401944F
:102A2000694606480294FEF71BFE002801D0FDF718
:102A30002AFD08B010BD0000002C014090000020CD
:102A400010B58EB000240794089409940A940B944E
:102A50000C941C2168460D94FDF712FC1F481E497A
:102A600001604F21C0E9011440F2E731C0E90314CD
:102A700080218161FEF743FE08B1FDF704FD4FF4AC
:102A80008050079007A91548FEF7DEFE08B1FDF754
:102A9000FAFC1248FFF720F908B1FDF7F4FC0B949B
:102AA0000BA90E480D94FEF7DBFD08B1FDF7EBFC1A
:102AB000602000904FF44870CDE90104002269467F
:102AC00006480494FFF779F808B1FDF7DCFC0348E9
:102AD000FFF736F80EB010BD00040040DC00002007
:102AE000184810B5164901604FF416514160002195
:102AF00081600C22C160C0E904128161C161016280
:102B000041628162FFF74EFB08B1FDF7BCFC00217A
:102B10000C48FFF721FB08B1FDF7B5FC002109487F
:102B2000FFF7F4FA08B1FDF7AEFC0648FFF7CFFA5D
:102B3000002803D0BDE81040FDF7A5BC10BD000083
:102B40000038014074010020FEE7FEE7704730B511
:102B500001210020FFF764FD4FF47A70FDF761FC5E
:102B600000210120FFF75CFD41F290711020FFF77A
:102B700057FD4FF41C516020FFF752FD01216120E9
:102B8000FFF74EFD02214620FFF74AFD48F21001F3
:102B90001320FFF745FD48F2FE011220FFF740FD2C
:102BA0004FF4A0610220FFF73BFD41F2300103200A
:102BB000FFF736FD40F2033421463020FFF730FDA9
:102BC00021463120FFF72CFD21463220FFF728FD5A
:102BD000E51E29463320FFF723FD03213420FFF7AC
:102BE0001FFD21463520FFF71BFD14213620FFF77E
:102BF00017FD21463720FFF713FD21463820FFF748
:102C00000FFD21463920FFF70BFD29463A20FFF73B
:102C100007FD03213B20FFF703FD21463C20FFF782
:102C2000FFFC4FF4A0513D20FFF7FAFC4FF4007178
:102C30009220FFF7F5FC21469320FFF7F1FC40F6C8
:102C40000D019020FFF7ECFC41F218010320FFF783
:102C5000E7FCBDE8304040F273110720FFF7E0BC0D
:102C600010B543F20801E320FFF7DAFC1221E72058
:102C7000FFF7D6FC41F23121EF20FFF7D1FC002114
:102C80000120FFF7CDFC4FF4E0610220FFF7C8FC04
:102C900041F230010320FFF7C3FC00210420FFF7BD
:102CA000BFFC40F207210820FFF7BAFC00210920F1
:102CB000FFF7B6FC00210A20FFF7B2FC00210C2030
:102CC000FFF7AEFC00210D20FFF7AAFC00210F202A
:102CD000FFF7A6FC00211020FFF7A2FC072111201E
:102CE000FFF79EFC00211220FFF79AFC0021132021
:102CF000FFF796FCC820FDF7C9FB41F29061102058
:102D0000FFF78EFC40F227211120FFF789FC3220CB
:102D1000FDF7BCFB1D211220FFF782FC3220FDF7DE
:102D2000B5FB4FF400611320FFF77AFC1421292032
:102D3000FFF776FC0B212B20FFF772FC3220FDF70A
:102D4000A5FB00212020FFF76BFC00212120FFF7CD
:102D500067FC07213020FFF763FC40F20771312048
:102D6000FFF75EFC06213220FFF75AFC40F20471A7
:102D70003520FFF755FC41F604713620FFF750FC73
:102D800004213720FFF74CFC00213820FFF748FCD6
:102D900040F206713920FFF743FC40F201713C20FC
:102DA000FFF73EFC0F213D20FFF73AFC00215020A9
:102DB000FFF736FCEF215120FFF732FC00215220B3
:102DC000FFF72EFC40F23F115320FFF729FC4FF490
:102DD0001C516020FFF724FC01216120FFF720FC3B
:102DE00000216A20FFF71CFC00218020FFF718FC5F
:102DF00000218120FFF714FC00218220FFF710FC46
:102E000000218320FFF70CFC00218420FFF708FC41
:102E100000218520FFF704FC10219020FFF700FC23
:102E200000219220FFF7FCFB03219320FFF7F8FB22
:102E30004FF488719520FFF7F3FB00219720FFF7EF
:102E4000EFFB00219820FFF7EBFB41F21801032074
:102E5000FFF7E6FBBDE8104040F273110720FFF7D3
:102E6000DFBB010901EB810100F00F0000EB410025
:102E7000C0B270470022014602E00A39C9B2521CB2
:102E80000A29FAD2100741EA106070472DE9F0478D
:102E9000104C814600252068400618D4206840F078
:102EA00080002060FDF756FC06464FF47A78032731
:102EB00008E000BFFDF74EFC801B404502D903250A
:102EC00089F825702068400601D4032DF2D12846E8
:102ED000BDE8F0870C2800402DE9F0410646134874
:102EE0000025016821F080010160104C0C3420683D
:102EF0004FF00307800607D43046FEF725FB90B15C
:102F000086F8257003250EE0206820F02000206060
:102F10003046FEF719FB10B186F8257003252068AE
:102F200040F0200020602846BDE8F0810C280040D9
:102F300010B588B00446002201A90C48FEF7C0F97C
:102F4000002206A90948FEF797F99DF806000090AF
:102F50009DF805309DF8042005A1204600F020FDD5
:102F60000949A820FFF71CFA08B010BD680000202E
:102F7000202020202025643A2025643A2025642042
:102F800020202020200000003A0000207047FDF79C
:102F9000E7BB000030B5A5B038216846FDF770F9F1
:102FA00014211FA8FDF76CF944210EA8FDF768F95C
:102FB0004FF400752846FDF765FC09200090E801F4
:102FC00001900120059002210324CDE9071414206B
:102FD000CDE90A0109940C9168460D91FDF746FF71
:102FE00008B172B6FEE70F20CDE91F04002421943A
:102FF000229402211FA82394FDF7EEFD08B172B6BA
:10300000FEE706481E95CDE90E040EA8FDF7A0FCCC
:10301000002801D072B6FEE725B030BD01000800DF
:103020000248016841F470010160704788ED00E0DA
:103030000148FEF786BC0000900000202DE9F04317
:103040000268234B234D244E244C4FF08049984274
:1030500007D0484505D0A84203D0B04201D0A042D5
:1030600003D122F070074A683A431D4FDFF874C05D
:10307000DFF8748098420DD048450BD0A84209D0A3
:10308000B04207D0A04205D0B84203D0604501D07D
:10309000404503D122F44075CA682A434D6922F0A5
:1030A00080022A4302608A68C2620A688262984289
:1030B00007D0A04205D0B84203D0604501D04045BA
:1030C00001D10969016301214161BDE8F08300007C
:1030D000002C014000040040000800400034014082
:1030E00000400140004401400048014010B501F09B
:1030F0001F030121046A99408C430462016A9A40CB
:103100001143016210BD10B5846842EA032224F421
:103110007F440A432243826010BD00008268034B53
:103120001A400A4342F00701816070478FFFCFFFCA
:103130002DE9F043026A22F001020262056A436847
:1031400082691C4C25F0020522400C6822F0030223
:1031500014438A68194E2A43174D194FDFF864C08B
:10316000DFF86490A84207D0B04205D0B84203D03F
:10317000604501D0484506D122F00808CA6842EAF5
:10318000080222F00402A84207D0B04205D0B8429B
:1031900003D0604501D0484505D14D6923F4407303
:1031A0001D438B692B43436084614968416302621C
:1031B000BDE8F0838FFFFEFF002C0140003401408A
:1031C000004001400044014000480140F0B5026A5F
:1031D00022F010020262056A42688369194C1B4E94
:1031E00023400C6823F4407343EA042425F02003B1
:1031F0008D6843EA0513144DA84201D0B04206D1B0
:10320000CF6823F0800343EA071323F04003A8426A
:103210000AD0B04208D00E4DA84205D00D4DA842AC
:1032200002D00D4DA84207D14D6922F4406242EA16
:1032300085028D6942EA8502426084614968816342
:103240000362F0BDFF8FFFFE002C014000340140FF
:10325000004001400044014000480140F0B5026ACE
:1032600022F480720262056A4368C269194C1B4EDF
:1032700022400C6822F00302144325F400728D688A
:1032800042EA0522144DA84201D0B04206D1CF68CF
:1032900022F4006242EA072222F48062A8420AD0A5
:1032A000B04208D00E4DA84205D00E4DA84202D023
:1032B0000D4DA84207D14D6923F4405343EA05134D
:1032C0008D6943EA05134360C4614968C1630262C2
:1032D000F0BD00008FFFFEFF002C014000340140D4
:1032E000004001400044014000480140F0B5026A3E
:1032F00022F480520262056A4268C369194C1B4E6F
:1033000023400C6823F4407343EA042425F400535B
:103310008D6843EA0533144DA84201D0B04206D16E
:10332000CF6823F4004343EA073323F48043A842E1
:103330000AD0B04208D00E4DA84205D00D4DA8428B
:1033400002D00D4DA84207D14D6922F4404242EA15
:1033500085128D6942EA85124260C4614968016440
:103360000362F0BDFF8FFFFE002C014000340140DE
:1033700000400140004401400048014030B5026A6D
:1033800022F480320262046A4268036D114D2B40C0
:103390000D681D4324F400330C8943EA04430E4CAA
:1033A000A0420BD00D4CA04208D00D4CA04205D03D
:1033B0000C4CA04202D00C4CA04204D14C6922F427
:1033C000803242EA042242600565496881640362F2
:1033D00030BD00008FFFFEFF002C01400034014093
:1033E00000400140004401400048014030B5026AFD
:1033F00022F480120262046A4268036D114D24F4C3
:1034000000142B400D6843EA05230D8944EA055456
:103410000D4DA8420BD00D4DA84208D00C4DA8422E
:1034200005D00C4DA84202D00B4DA84204D14D69E5
:1034300022F4802242EA8522426003654968C16421
:10344000046230BDFF8FFFFE002C014000340140BC
:1034500000400140004401400048014010B5036AAB
:10346000046A24F001040462846924F0F00444EA4C
:10347000021423F00A020A438461026210BD10B5EF
:10348000036A23F0100303628369046A23F4704320
:1034900043EA023224F0A00343EA0111826101628F
:1034A00010BD0000064864210180192141800901F6
:1034B00081804FF41671C180C821018170470000DE
:1034C0003000002030B5416EB9B102689168926851
:1034D000C1F342610B4B520F9C5CE50003F1080401
:1034E000A25CB5FBF2F2A0F86A205A5C615CD200E3
:1034F000B2FBF1F1A0F8681030BD0121A0F86A100C
:10350000F8E700008C4E000890F82810C90706D094
:1035100001684A68C36A22F400321A434A6090F88C
:103520002810890706D501684A68036B22F48032A7
:103530001A434A6090F82810490706D501684A687E
:10354000436B22F480221A434A6090F8281009073E
:1035500006D501684A68836B22F400421A434A6028
:1035600090F82810C90606D501688A68C36B22F452
:1035700080521A438A6090F82810890606D501689F
:103580008A68036C22F400521A438A6090F828106B
:10359000490611D501684A68436C22F480121A4327
:1035A0004A60416CB1F5801F06D101684A68836C9E
:1035B00022F4C0021A434A6090F82810090606D582
:1035C00001684A68C06C22F4002202434A607047D6
:1035D000F8B500260446C0F88C60FDF7BBF8054638
:1035E000206800686FF07E47000708D52B46002250
:1035F0004FF400112046009700F054F960B920689C
:10360000006840070AD52B4600224FF4800120466F
:10361000009700F047F908B10320F8BD2020C4F856
:103620008400C4F8880044F86C6F00202675F8BD4B
:103630002DE9F0410446016880682269E36910437E
:10364000626900251A431043DFF82CC20A688B4BCD
:103650001A4002430A6020684168E26821F4405140
:10366000114341602168A069614501D0226A10437D
:103670008A68834B1A4002438A602068C16A626A82
:1036800021F00F011143C1627E4923687E488B42BD
:103690000DD1D0F8880010F0030006D0012855D0D5
:1036A000022842D003283FD152E001203DE0774973
:1036B0008B420BD1D0F8880010F00C0035D00428D4
:1036C00033D0082840D00C282ED141E070498B42DD
:1036D0000BD1D0F8880010F0300026D0102835D05B
:1036E000202831D030281FD132E06A498B420BD1DB
:1036F000D0F8880010F0C00017D0402826D08028CD
:1037000022D0C02810D123E063450DD1D0F8880025
:1037100010F4406009D0B0F5806F17D0B0F5006F9D
:1037200012D0B0F5406F13D010205B4A5B4F0026DB
:103730004FF40041634539D160B102280DD004280F
:103740000DD0082831D10EE00220EEE70420ECE78E
:103750000820EAE7FDF72EFB03E0114603E0FDF742
:103760004DFB01007DD0606A37F810206768B1FB1F
:10377000F2F007EB470383426CD8B0EB073F69D800
:10378000002308461946FCF743FD090241EA10618F
:1037900002027808101871413A460023FCF738FD00
:1037A0003F4AA0F54071914259D953E0E3694FF681
:1037B000EF788B422DD109284CD2DFE800F00508C4
:1037C0000D4B274B4B4B0E00FDF7F4FA01E0FDF7D4
:1037D00003FB010001D144E01146606A37F8100094
:1037E000B1FBF0F04100606801EB5001B1FBF0F07B
:1037F00080B2A0F1100141452CD84FF6F071014084
:10380000C0F3420001432068C1602AE0FDF7F6FAE8
:10381000DFE709281ED2DFE800F005080D1D1F1D97
:103820001D1D0E00FDF7C6FA01E0FDF7D5FA0100F7
:1038300001D116E01146606A37F81000B1FBF0F1D3
:10384000606801EB5001B1FBF0F080B2A0F1100113
:10385000414504D9012504E0FDF7D0FAE7E72168E6
:10386000C8600120A4F86A0024F8680F2846A66002
:10387000E660BDE8F081000000800040F369FFCF02
:10388000FFF4FF11003801400010024000440040E6
:1038900000480040004C00400024F400744E000832
:1038A000FFFC0F002DE9F0479A4617460E460446E6
:1038B0004FF000094FF02008089D39E0681C37D010
:1038C000FCF748FFA0EB0A00A84222D80DB32068FD
:1038D000016849072CD5C069C043000528D4216878
:1038E0004FF4006008622068016821F4D071016023
:1038F0002068816821F001018160C4F88480C4F8E7
:103900008880C4F88C8000BF84F880900320BDE8D4
:10391000F0872068016821F4D07101602068816817
:1039200021F001018160C4F88480C4F88880EBE74D
:103930002068C06936EA000004D00020B842BDD03B
:103940000020E4E70120F9E710B50B4C4FF090435D
:1039500038B1012210211846FCF7F7FE4FF44870E9
:1039600006E0002210211846FCF7EFFE4FF4167017
:103970002168486310BD0000DC000020FEE7000065
:103980000FB4054B10B503A9044A029800F03CF8A7
:1039900010BC5DF814FB0000693B00081C0000200F
:1039A0000FB4084B10B504A902AA039800F02CF834
:1039B000044602A9002000F0D1F8204610BC5DF8B2
:1039C00014FB00005D3B00080907090E002804DB1A
:1039D00000F1E02080F80014704700F00F0000F1C3
:1039E000E02080F8141D704702E008C8121F08C1CB
:1039F000002AFAD170477047002001E001C1121F70
:103A0000002AFBD1704700002DE9FF4F89B09B468B
:103A10000446002506E025280BD05A460B9990470E
:103A2000641C6D1C20780028F5D10DB02846BDE837
:103A3000F08F0027B8460122474900E0074314F8F9
:103A4000013F203B02FA03F00842F7D120782E28EC
:103A500019D114F8010F47F004072A280ED06FF08F
:103A60002F022078A0F1300109290CD808EB880139
:103A700002EB410100EB0108641CF2E70A98641CA8
:103A800050F8048B0A9020780028CED0642808D003
:103A9000692806D075281ED05A460B9990476D1C90
:103AA00058E00A994FF00A0901C90A91002802DA80
:103AB00040422D2102E0390504D52B218DF820103C
:103AC000012103E0F90704D02021F7E78A4608AE78
:103AD0000DE00021FAE70A994FF00A0901C90A919D
:103AE000F7E74946FCF7D7FB303106F8011D0028FF
:103AF000F7D1ADEB060000F12009780701D44FF0B3
:103B00000108C84502DDA8EB090000E0002080465E
:103B1000002706E008A85A46C05D0B9990476D1C27
:103B20007F1C5745F6DB04E030205A460B9990473E
:103B30006D1CB8F10001A8F10108F5DC05E016F8EC
:103B4000010B5A460B9990476D1CB9F10001A9F180
:103B50000109F4DC641C65E7092801000A68531CAC
:103B60000B6010707047000004490A681206FCD50B
:103B7000024AC1B20C321160704700001C3801408B
:103B8000FCF7F6FDFFF706FAFEF7EAFDFEF788FE02
:103B9000FEF71EFFFEF754FFFEF7CAFEFEF7A0FF7A
:103BA000FEF740FC0020FEF795FB0020FEF794FC9A
:103BB0004FF6FF70FEF7A4FC27A11820FEF7F0FBDC
:103BC000FCF7B0FBFFF76EFCFEF7B2FD27A0FFF796
:103BD000D7FE2948FDF7FCFD00212848FEF7B0F884
:103BE00026494FF448700968486300212448FEF7CD
:103BF000A7F823494FF4167009684863224C214EF8
:103C0000DFF88880012504F11007E07B02281BD231
:103C100001213046FCF794FDB0B91DA0FFF7B0FEBE
:103C200001213046FCF78CFD0028F9D0607801288E
:103C30000AD0022803D0032801D0042804D1E57358
:103C4000A5703988A8F80210FEF762FC0E481A30F9
:103C5000FFF76EF9D9E70000202020202020202047
:103C60004E4F572020202020202020005553415225
:103C700054204F4B210D0A0090000020DC00002052
:103C8000280100200004004820000020000000203F
:103C900042315F446F776E210D0A0000002800DC7E
:103CA00040427047000000000000000000000000DB
:103CB0000000000000000000000000000000000004
:103CC00000000000000000000000000000000000F4
:103CD000000000000000800180018001800180015F
:103CE00080018001800180018001800180018001CC
:103CF00000000000800180010000000000000000C2
:103D00000000000000000000CC00CC00CC00CC0083
:103D1000CC00CC000000000000000000000000000B
:103D20000000000000000000000000000000000093
:103D30000000000000000000000000000000000083
:103D4000600C600C600C30063006FE1FFE1F300653
:103D500038071803FE1FFE1F180318038C018C017F
:103D60008C01000000008000E003F80F9C0E8C1C0A
:103D70008C188C009800F801E007800E801C8C18CD
:103D80008C189C18B80CF00FE00380008000000035
:103D9000000000000000000000000E181B0C110CB9
:103DA00011061106110311039B018E01C038C06C6E
:103DB00060446044304430441844186C0C380000AF
:103DC000000000000000E001F003380718061806A4
:103DD0003003F001F000F8009C310E33061E061C83
:103DE000061C063FFC73F0210000000000000000EC
:103DF00000000000000000000C000C000C000C0093
:103E00000C000C000000000000000000000000009A
:103E100000000000000000000000000000000000A2
:103E2000000000000000000200038001C000C0008C
:103E300060006000300030003000300030003000A2
:103E40003000300060006000C000C000800100034E
:103E500000020000000020006000C000800180011E
:103E60000003000300060006000600060006000628
:103E7000000600060003000380018001C00060000E
:103E80002000000000000000000000000000000012
:103E9000C000C000D806F807E00130033807000072
:103EA0000000000000000000000000000000000012
:103EB0000000000000000000000000000000000002
:103EC00080018001800180018001FC3FFC3F800176
:103ED00080018001800180010000000000000000DE
:103EE00000000000000000000000000000000000D2
:103EF00000000000000000000000000000000000C2
:103F0000000000000000800180010001000180002D
:103F100000000000000000000000000000000000A1
:103F2000000000000000000000000000E007E007C3
:103F30000000000000000000000000000000000081
:103F40000000000000000000000000000000000071
:103F50000000000000000000000000000000000061
:103F6000000000000000C000C000000000000000D1
:103F7000000000000000000C000C00060006000617
:103F80000003000300038003800180018001C00062
:103F9000C000C000600060000000000000000000E1
:103FA000000000000000E003F007380E180C0C18A9
:103FB0000C180C180C180C180C180C180C180C18E1
:103FC000180C380EF007E0030000000000000000AD
:103FD00000000000000000018001C001F001980114
:103FE00088018001800180018001800180018001C1
:103FF00080018001800180010000000000000000BD
:10400000000000000000E003F80F180C0C180C185A
:1040100000180018000C000600038001C0006000BA
:1040200030001800FC1FFC1F000000000000000012
:10403000000000000000E001F807180E0C0C0C0C4A
:10404000000C0006C003C007000C001800180C1874
:104050000C18180CF807E003000000000000000036
:10406000000000000000000C000E000F000F800D8B
:10407000C00C600C600C300C180C0C0CFC3FFC3FAE
:10408000000C000C000C000C000000000000000000
:10409000000000000000F80FF80F180018000C00D6
:1040A000EC03FC071C0E001C0018001800180C186C
:1040B0001C0C180EF807E0030000000000000000D0
:1040C000000000000000C007F00F381C181818008E
:1040D0000C00CC03EC0F3C0E1C1C0C180C180C181C
:1040E000181C380EF007E00300000000000000007C
:1040F000000000000000FC1FFC1F000C0006000672
:10410000000380038001C001C000E0006000600087
:10411000700030003000300000000000000000009F
:10412000000000000000E003F007380E180C180C27
:10413000180C3806F007F007180C0C180C180C189F
:104140000C18380CF80FE00300000000000000001D
:10415000000000000000E003F007380E1C0C0C18F3
:104160000C180C181C1C381EF81BE0190018000C49
:10417000000C1C0EF807F001000000000000000019
:10418000000000000000000000000000000000002F
:10419000800180010000000000000000000000001D
:1041A000000000008001800100000000000000000D
:1041B00000000000000000000000000000000000FF
:1041C00080018001000000000000000000000000ED
:1041D000000000008001800100010001800000005B
:1041E00000000000000000000000000000000000CF
:1041F000000000000010001C800FE003F800180011
:10420000F800E003800F001C001000000000000018
:10421000000000000000000000000000000000009E
:1042200000000000F81F000000000000F81F000060
:10423000000000000000000000000000000000007E
:10424000000000000000000000000000000000006E
:104250000000000008003800F001C007001F00182F
:10426000001FC007F0013800080000000000000037
:10427000000000000000E003F80F180C0C180C18E8
:104280000018000C000600038001C000C000C00040
:1042900000000000C000C00000000000000000009E
:1042A0000000000000000000E00718180420C229E8
:1042B000224A114409440944094409221113E20C19
:1042C000024004201818E007000000000000000071
:1042D00000000000000080038003C006C006C00686
:1042E000600C600C301830183018F83FF83F1C7024
:1042F0000C600C6006C006C000000000000000005A
:10430000000000000000FC03FC0F0C0C0C180C1843
:104310000C180C0CFC07FC0F0C180C300C300C307B
:104320000C300C18FC1FFC0700000000000000000F
:10433000000000000000C007F01F38381C300C706F
:10434000066006000600060006000600060006607D
:104350000C701C30F01FE00700000000000000009F
:10436000000000000000FE03FE0F060E06180618EF
:1043700006300630063006300630063006300618A5
:104380000618060EFE0FFE030000000000000000ED
:10439000000000000000FC3FFC3F0C000C000C0083
:1043A0000C000C00FC1FFC1F0C000C000C000C008F
:1043B0000C000C00FC3FFC3F00000000000000006F
:1043C000000000000000F83FF83F18001800180037
:1043D00018001800F81FF81F18001800180018001F
:1043E000180018001800180000000000000000006D
:1043F000000000000000E00FF83F3C780E6006E08F
:1044000007C00300030003FE03FE03C007C006C08D
:104410000EC03CF0F83FE00F00000000000000007C
:104420000000000000000C300C300C300C300C3060
:104430000C300C30FC3FFC3F0C300C300C300C309E
:104440000C300C300C300C3000000000000000007C
:1044500000000000000080018001800180018001D7
:104460008001800180018001800180018001800144
:104470008001800180018001000000000000000038
:10448000000000000000000600060006000600060E
:1044900000060006000600060006000600061806D4
:1044A00018063807F003E0010000000000000000DB
:1044B00000000000000006300618060C0606060381
:1044C0008601C60066007600DE008E010603060641
:1044D000060C061806300660000000000000000010
:1044E0000000000000001800180018001800180054
:1044F00018001800180018001800180018001800FC
:1045000018001800F81FF81F00000000000000004D
:104510000000000000000EE01EF01EF01EF036D875
:1045200036D836D836D866CC66CC66CCC6C6C6C6B3
:10453000C6C6C6C686C386C30000000000000000D1
:104540000000000000000C301C303C303C306C306F
:104550006C30CC30CC308C310C330C330C360C3608
:104560000C3C0C3C0C380C3000000000000000003B
:10457000000000000000E007F81F1C380E70066005
:1045800003C003C003C003C003C003C003C0066070
:104590000E701C38F81FE00700000000000000004B
:1045A000000000000000FC0FFC1F0C380C300C3029
:1045B0000C300C300C18FC1FFC070C000C000C001D
:1045C0000C000C000C000C000000000000000000BB
:1045D000000000000000E007F81F1C380E700660A5
:1045E00003E003C003C003C003C003C007E00663C9
:1045F0000E3F1C3CF83FE0F700C000000000000048
:10460000000000000000FE0FFE1F063806300630D6
:1046100006300638FE1FFE0706030606060C0618BF
:10462000061806300630066000000000000000009A
:10463000000000000000E003F80F1C0C0C180C1820
:104640000C001C00F803E00F001E00380630063096
:104650000E301C1CF80FE0070000000000000000F6
:10466000000000000000FE7FFE7F800180018001CD
:104670008001800180018001800180018001800132
:104680008001800180018001000000000000000026
:104690000000000000000C300C300C300C300C30EE
:1046A0000C300C300C300C300C300C300C300C302A
:1046B0000C301818F81FE007000000000000000090
:1046C00000000000000003600630063006300C18C1
:1046D0000C180C18180C180C380E30063006700721
:1046E00060036003C001C001000000000000000082
:1046F0000000000000000360C361C361C361663352
:10470000663366336633663366336C1B6C1B6C1B17
:104710002C1A3C1E380E380E00000000000000006D
:104720000000000000000FE00C7018303018700C12
:10473000600EC00780038003C003E006700C301CCD
:1047400018180C300E6007E00000000000000000A8
:1047500000000000000003C006600C301C38381850
:10476000300C6006E007C0038001800180018001F9
:104770008001800180018001000000000000000035
:10478000000000000000FC7FFC7F0060003000188B
:10479000000C000600038001C0006000300018001B
:1047A0000C000600FE7FFE7F0000000000000000FD
:1047B000000000000000E003E00360006000600013
:1047C00060006000600060006000600060006000E9
:1047D0006000600060006000600060006000E00356
:1047E000E003000000003000300060006000600066
:1047F000C000C000C000C001800180018001000332
:104800000003000300060006000000000000000096
:10481000000000000000E003E003000300030003C9
:104820000003000300030003000300030003000370
:104830000003000300030003000300030003E00380
:10484000E003000000000000C001C001600360033D
:10485000600330063006180C180C00000000000041
:104860000000000000000000000000000000000048
:104870000000000000000000000000000000000038
:104880000000000000000000000000000000000028
:10489000000000000000FFFFFFFF0000000000001C
:1048A0000000000000000C000C000C000C000C00CC
:1048B0000C000000000000000000000000000000EC
:1048C00000000000000000000000000000000000E8
:1048D00000000000000000000000000000000000D8
:1048E000F003F8071C0C0C0C000FF00FF80C0C0C6C
:1048F0000C0C1C0FF80FF018000000000000000066
:10490000000000000000180018001800180018002F
:10491000D803F80F380C1818181818181818181881
:104920001818380CF80FD803000000000000000031
:104930000000000000000000000000000000000077
:10494000C003F007300E180C1800180018001800EB
:10495000180C300EF007C00300000000000000003B
:1049600000000000000000180018001800180018CF
:10497000C01BF01F301C1818181818181818181811
:104980001818301CF01FC01B0000000000000000C1
:104990000000000000000000000000000000000017
:1049A000C003F00F300C1818F81FF81F180018007B
:1049B0003818301CF00FC007000000000000000095
:1049C000000000000000800FC00FC000C000C00049
:1049D000F007F007C000C000C000C000C000C00069
:1049E000C000C000C000C0000000000000000000C7
:1049F00000000000000000000000000000000000B7
:104A0000E00DF80F180E0C0C0C0C0C0C0C0C0C0C14
:104A10000C0C180EF80FE00D000C0C0C1C06F8071F
:104A2000F00100000000180018001800180018001D
:104A3000D807F80F381C181818181818181818184C
:104A400018181818181818180000000000000000A6
:104A5000000000000000C000C000000000000000D6
:104A6000C000C000C000C000C000C000C000C00046
:104A7000C000C000C000C000000000000000000036
:104A8000000000000000C000C000000000000000A6
:104A9000C000C000C000C000C000C000C000C00016
:104AA000C000C000C000C000C000C000C000F800CE
:104AB0007800000000000C000C000C000C000C0042
:104AC0000C0C0C060C038C01CC006C00FC009C014F
:104AD0008C030C030C060C0C00000000000000000E
:104AE000000000000000C000C000C000C000C00006
:104AF000C000C000C000C000C000C000C000C000B6
:104B0000C000C000C000C0000000000000000000A5
:104B10000000000000000000000000000000000095
:104B20007C3CFF7EC7E383C183C183C183C183C152
:104B300083C183C183C183C1000000000000000065
:104B40000000000000000000000000000000000065
:104B50009807F80F381C181818181818181818186B
:104B60001818181818181818000000000000000085
:104B70000000000000000000000000000000000035
:104B8000C003F00F300C1818181818181818181837
:104B90001818300CF00FC0030000000000000000E7
:104BA0000000000000000000000000000000000005
:104BB000D803F80F380C18181818181818181818DF
:104BC0001818380CF80FD80318001800180018002F
:104BD00018000000000000000000000000000000BD
:104BE000C01BF01F301C181818181818181818189F
:104BF0001818301CF01FC01B0018001800180018EF
:104C0000001800000000000000000000000000008C
:104C1000B007F0037000300030003000300030008A
:104C200030003000300030000000000000000000C4
:104C30000000000000000000000000000000000074
:104C4000E003F003380E180C3800F003C007000C26
:104C5000180C380EF007E003000000000000000010
:104C600000000000000000008000C000C000C00084
:104C7000F007F007C000C000C000C000C000C000C6
:104C8000C000C000C0078007000000000000000056
:104C90000000000000000000000000000000000014
:104CA0001818181818181818181818181818181884
:104CB0001818381CF01FE019000000000000000068
:104CC00000000000000000000000000000000000E4
:104CD0000C18180C180C180C30063006300660033F
:104CE00060036003C001C00100000000000000007C
:104CF00000000000000000000000000000000000B4
:104D0000C141C141C3616363636363633636363651
:104D100036361C1C1C1C1C1C00000000000000007F
:104D20000000000000000000000000000000000083
:104D30001C38381C300C600660036003600360039D
:104D40006006300C381C1C38000000000000000019
:104D50000000000000000000000000000000000053
:104D60001830301830187018600C600CE00CC00659
:104D7000C00680038003800380018001C001F00031
:104D800070000000000000000000000000000000B3
:104D9000FC1FFC1F000C000600038001C000600027
:104DA00030001800FC1FFC1F000000000000000085
:104DB00000000000000000038001C000C000C0002F
:104DC000C000C000C0006000600030006000400013
:104DD000C000C000C000C000C000C00080010003CF
:104DE000000000000000800180018001800180013E
:104DF00080018001800180018001800180018001AB
:104E0000800180018001800180018001800180019A
:104E10008001000000006000C000C001800180012E
:104E200080018001800100030003000600030001EF
:104E3000800180018001800180018001C00060004C
:104E40000000000000000000000000000000000062
:104E500000000000F010F81F080F00000000000024
:104E60000000000000000000000000000000000042
:104E700000000000010002000400060008000A0013
:104E80000C0010002000400080000001010101031F
:104E900007010000080402040801010100000000ED
:104EA00000000000010203040607080900000000DA
:104EB00001020304D44E000800000020200000007E
:104EC000E8390008F44E000820000020E805000042
:104ED000F8390008000000000000FFFF000000009B
:104EE0001000000001000000000000000024F40099
:044EF00000000000BE
:04000005080001D915
:00000001FF
