:020000040800F2
:10000000F0050020ED010008EB2A00089F230008FE
:10001000E92A0008E30700082D3C00080000000062
:10002000000000000000000000000000032E000897
:10003000E507000800000000ED2A0008052E000872
:10004000070200080702000807020008070200086C
:10005000070200080702000807020008070200085C
:10006000070200080702000807020008070200084C
:10007000070200080702000807020008070200083C
:10008000070200080000000007020008070200083D
:10009000070200080702000807020008070200081C
:1000A000070200080702000807020008070200080C
:1000B00007020008070200080702000807020008FC
:1000C00007020008070200080702000807020008EC
:1000D00007020008213C0008070200080702000888
:1000E00007020008070200080702000807020008CC
:1000F00007020008070200080702000800000000CD
:1001000000000000070200080000000007020008CD
:1001100007020008000000000702000807020008AC
:10012000070200080702000807020008070200088B
:10013000070200080000000000000000070200089D
:10014000070200080702000800000000000000008D
:10015000000000000000000000000000000000009F
:10016000000000000000000000000000070200087E
:10017000070200080000000000000000000000006E
:10018000000000000702000800000000000000005E
:10019000000000000000000000000000000000005F
:1001A000000000000000000007020008070200082D
:1001B000070200080702000807020008000000000C
:1001C000000000000702000800000000000000001E
:1001D0000702000807020008DFF80CD000F080FAE0
:1001E000004800473D460008F005002006488047CB
:1001F00006480047FEE7FEE7FEE7FEE7FEE7FEE70C
:10020000FEE7FEE7FEE7FEE7892E0008D9010008B9
:100210002DE9F05F0546002092469B46884606463B
:10022000814640241BE0284641464746224600F0CE
:100230008FF853465A46C01A914110D311461846BA
:10024000224600F076F82D1A67EB01084F46224649
:100250000120002100F06DF817EB00094E41201E2F
:10026000A4F10104DFDC484631462A464346BDE896
:10027000F09FD2B201E000F8012B491EFBD270477B
:100280000022F6E710B513460A4604461946FFF762
:10029000F0FF204610BD10B5044604E00B7800F8CE
:1002A000013B03B1491C521EF8D2204610BDCAB210
:1002B000401E10F8011F8A4202D00029F9D1002007
:1002C000704730B505460020034600E05B1C9342B2
:1002D00005D2EC5CC85C201A01D1002CF6D130BDEF
:1002E00000F0004230F000400AD0C10D01F560710D
:1002F000C0F3160042EA0151C2084007114370479B
:1003000000200146704730B50B46014600202022F0
:10031000012409E021FA02F59D4205D303FA02F512
:10032000491B04FA02F52844151EA2F10102F1DC72
:1003300030BD202A04DB203A00FA02F10020704789
:100340009140C2F1200320FA03F319439040704713
:10035000202A04DB203A21FA02F00021704721FA1A
:1003600002F3D040C2F12002914008431946704781
:100370002DE9FE4F804681EA0300C00F0C46009035
:1003800021F0004123F00045B8EB0200A94105D25D
:100390004046214690461C460B46024623F000404C
:1003A000104347D0270DC7F30A00C3F30A51029048
:1003B000401A019040286BDAC3F3130040F4801B0D
:1003C0000098924620B10023D2EB030A63EB0B0B9B
:1003D00001985946C0F140025046FFF7AAFF064671
:1003E0000D4650465946019A00F08CF910EB080072
:1003F0006141002487EA115284EAE7731A4340D02E
:10040000009A62B3019A012A4FEA075215DC001BD9
:1004100061EB02014FF0004202EA0752CDE90042CF
:10042000001C41F5801132462B4600F08CF903B0D8
:10043000BDE8F08F40462146F9E7001B61EB020161
:10044000001C41F5801300185B412018A2F500172D
:1004500047EB030140EAD570B6196D4111E06D0814
:100460004FEA360645EAC0754FEA0752001B61EBBA
:100470000201001C41F5801149084FEA30000019C3
:10048000514132462B4603B0BDE8F04F00F04CB965
:100490000098012240000023D0EB020263EBE073DE
:1004A000009821464FEAE074B8EB000061EB0401CC
:1004B000E9E783F000435BE781F0004158E72DE96D
:1004C000FE4F81EA030404F0004421F0004100944F
:1004D0004FF0000B23F0004350EA01045ED052EAD3
:1004E00003045BD0C3F30A54C1F30A552C44A4F2AD
:1004F000F3340194A0FB0254C1F3130141F48011C1
:10050000C3F3130343F4801301FB024400FB034EC7
:10051000840A970A44EA815447EA8357A4FB076890
:1005200002958D0A05FB07854FEA932C04FB0C54BA
:100530002705029D4FEA065847EA1637B5EB08052E
:100540006EEB070C870E920E47EA811742EA831280
:10055000A7FB0201B6EB0B0164EB00042B0D43EA91
:100560000C335E1844EB1C50DA465146E7FB02019F
:10057000C5F313044FEA0B3343EA14534FEA043232
:10058000019C43EA0603A4F10C040294009CCDE90B
:1005900000B400F0D8F803B0BDE8F08F00200146A9
:1005A000F9E72DE9F04D81EA030404F0004B21F056
:1005B000004514464FF0000A23F0004150EA0502BE
:1005C00020D054EA01021DD0C5F30A570246C5F3F4
:1005D0001303C1F31300C1F30A5640F4801543F42A
:1005E0008013A7EB0608101BD64608F2FD3873EB04
:1005F000050002D308F1010801E092185B41B8F14F
:10060000000F03DA00200146BDE8F08D00204FF412
:100610008011064684460EE0171B73EB050705D3D1
:10062000121B63EB050306434CEA010C49084FEA31
:10063000300092185B4150EA0107EDD152EA030005
:1006400012D082EA040083EA0501084305D0101B9A
:10065000AB4106D20122002306E000224FF0004306
:1006600002E06FF0010253101AEB06004CEB085148
:1006700010EB0A0041EB0B01BDE8F04D00F054B85F
:10068000C1F30A52C1F3130140F2FF3341F4801168
:100690009A4202DA00200146704740F233439A4200
:1006A000A2F2334202DC5242FFF752BEFFF741BED4
:1006B00030B5041E71F1000404DB4FF000444042E9
:1006C00064EB0101141E73F1000405DB1C464FF0BE
:1006D0000043524263EB0403994208BF904230BD8D
:1006E000064C074D06E0E06840F0010394E807007F
:1006F00098471034AC42F6D3FFF772FD305A000829
:10070000505A0008202A06DBCB17203A41FA02F0A3
:1007100043EAE07306E041FA02F3D040C2F120025E
:10072000914008431946704710B5141E73F1000438
:1007300008DA401C41F1000192185B411A4301D1D3
:1007400020F0010010BD2DE9F04D92469B4611B1FD
:10075000B1FA81F202E0B0FA80F220329046FFF75F
:10076000E8FD04460F4640EA0A0041EA0B01534601
:100770005A46084313D0114653EA010019D0C8F174
:1007800040025046FFF7E4FD05460E4650465946E6
:100790004246FFF7CEFD084305D0012004E0204685
:1007A0003946BDE8F08D0020054346EAE0762C434B
:1007B00037430A986305E40AA0EB08000022FD0A0B
:1007C00044EA47540A3002D500200146E9E7010512
:1007D00010196941DDE9084500196941BDE8F04D8E
:1007E000A2E7FEE77047002240F6B83306E000219A
:1007F000491C89B29942FBD3521C92B28242F6D371
:10080000704700000A4B0B49002000BF03EB0012A9
:10081000127B12B1012A03D005E00A78521C01E0D4
:100820000A78521E0A70401C0828EFDB704700004F
:100830004C0000200800002072B6FEE710B590F8CA
:10084000253000210122022B03D00421C1630121A4
:1008500022E003681C6824F00E041C60836C1C6892
:1008600024F480741C6003681C6824F001041C607C
:1008700090F84430046C03F01F0302FA03F3636042
:10088000D0E913345C60436D33B11C6824F4807488
:100890001C60D0E916345C6080F82520002280F8C6
:1008A0002420084610BD70B590F8252000240121B1
:1008B0002346022A07D00422C26380F8251080F85C
:1008C0002430012429E00268156825F00E05156022
:1008D0000268156825F001051560826C156825F41D
:1008E0008075156090F84420056C02F01F0201FA33
:1008F00002F26A60D0E913255560426D32B1156885
:1009000025F480751560D0E91625556080F825100E
:1009100080F82430816B01B18847204670BD00000B
:1009200070B5044600F0FCF80546601C02D004488F
:100930004068044400F0F4F8401BA042FAD370BDB4
:10094000200000202DE9FC4FDFF8A0A100230125A5
:100950000AF1040B03244FF00F0C0BF1040EBDE061
:1009600005FA03F632406FD04F68012F05D0022FF1
:1009700003D0112F01D0122F17D1D0F808905F00AB
:1009800004FA07F829EA08090097D1F80C8008FA58
:1009900007F848EA0908C0F808804768B7430E79A5
:1009A000C6F300169E403E434660C6684FEA4308C1
:1009B00004FA08F7BE4301978F6807FA08F7374330
:1009C000C7604E68022E01D0122E13D1DE0800EB54
:1009D00086060096366A5F07FF0E0CFA07F926EACC
:1009E0000906D1F8109009FA07F949EA0609009EAC
:1009F000C6F820900668019FBE430F7907F00307F1
:100A000007FA08F7374307604E68F60065D5384E99
:100A1000376E47F001073766366E23F0030706F09E
:100A200001060096334E3E44B146B6689F074FEA32
:100A300017780CFA08F7BE43B0F1904F05D02E4F4F
:100A4000B84204D1012717E047E0002714E02B4FFC
:100A5000B84201D102270FE0294FB84201D1032744
:100A60000AE0284FB84201D1042705E0264FB842DA
:100A700001D1052700E0062707FA08F73743C9F830
:100A80000870DAF800605746D1F8048096435FEAB0
:100A9000C83800D516433E60DBF800605F46D1F8E9
:100AA000048096435FEA883800D516433E60DEF83E
:100AB00000607746D1F8048096435FEAC82800D5E5
:100AC00016433E60094F0C373E68D1F804809643C8
:100AD0005FEA882800D516433E605B1C0A6832FA3C
:100AE00003F67FF43DAFBDE8FC8F00000004014039
:100AF00000100240000001400004004800080048C7
:100B0000000C00480010004800140048006908402C
:100B100000D0012070470AB181617047816270473F
:100B2000014880687047000020000020024881686A
:100B300042681144816070472000002010B50024F5
:100B4000032000F073F80F2000F008F808B101242A
:100B500001E000F025F8204610BD000070B50E4EF3
:100B600005460024706898B14FF47A71B1FBF0F03B
:100B70000A490968B1FBF0F000F064FD40B9102D9E
:100B800006D200222946501E00F030F8356000E001
:100B90000124204670BD0000200000202C00002011
:100BA0000A4882B0016E41F001010166016E01F058
:100BB00001010091816D41F080518165806D00F0EF
:100BC0008050009002B000F0A1B800000010024078
:100BD000002809DB00F01F0201219140400980003C
:100BE00000F1E020C0F8001170470000F0B40E4B97
:100BF0001B680C46C3F30223C3F10705042D00D97B
:100C00000425191D072901D2002300E0DB1E01265F
:100C100006FA05F1491E214099409E40761E164075
:100C20003143F0BC03F028B80CED00E0064900F0B9
:100C3000070208684FF6FF03184040EA0220034A03
:100C400010430860704700000CED00E00000FA055A
:100C50002B492C4B0A6832214A432B4940B1B0F54D
:100C6000007F086829D020F4C06040F480602CE048
:100C70000868C0F34120022804D051F8800F20F406
:100C8000807022E0D1F8800020F48070C1F88000EC
:100C9000086820F4C06040F400700860B2FBF3F014
:100CA000401C00E0401E4A69520501D50028F9D1D8
:100CB000486940050AD503207047C0F34120022847
:100CC00006D051F8800F40F4807008600020704713
:100CD000D1F8800040F48070C1F88000086820F4EA
:100CE000C06040F400700860B2FBF3F0401C00E00C
:100CF000401E4A695205DBD50028F9D1D8E700002B
:100D00002C00002040420F00007000400248816823
:100D100041F4804181607047007000402DE9F84344
:100D20000446006800269D4D00035ED5A86D00278F
:100D3000C00008D4A86D40F08050A865A86D0127B8
:100D400000F080500090DFF85892D9F8001041F47C
:100D50008071C9F80010FFF7E3FE804606E000BF8F
:100D6000FFF7DEFEA0EB080002282BD8D9F8000020
:100D7000C005F5D5D5F8900010F4407014D0216C62
:100D8000814211D0D5F89000D5F8901020F4407031
:100D900041F48031C5F89010D5F8901021F48031DD
:100DA000C5F89010C5F89000C00711D0FFF7B8FE45
:100DB000804641F2883907E0FFF7B2FEA0EB080158
:100DC000494501D903260BE0D5F890008007F3D5FB
:100DD000D5F89000216C20F440700843C5F89000CD
:100DE0001FB1A86D20F08050A8652078C00707D0FB
:100DF000D5F88800616820F003000843C5F8880032
:100E00002078800707D5D5F88800A16820F00C006D
:100E10000843C5F888002078400707D5D5F8880032
:100E2000E16820F030000843C5F88800207800070A
:100E300007D5D5F88800216920F0C0000843C5F81F
:100E400088002078800607D5D5F88800616920F4ED
:100E500040600843C5F888002078400607D5D5F8DB
:100E60008800A16920F440500843C5F88800207824
:100E7000000607D5D5F88800E16920F44040084312
:100E8000C5F888002088C00507D5D5F88800216AF4
:100E900020F440300843C5F888002088800507D535
:100EA000D5F88800616A20F440200843C5F888001E
:100EB000208840050FD5D5F88800A16A20F440109D
:100EC0000843C5F88800A06AB0F5801F03D1E86820
:100ED00040F48010E860208800050FD5D5F8880020
:100EE000E16A20F440000843C5F88800E06AB0F5E4
:100EF000800F03D1E86840F48010E8602088C004C7
:100F00000FD5D5F88800216B20F040700843C5F854
:100F10008800206BB0F1807F03D1E86840F4801036
:100F2000E86020884FF0006180040ED5D5F8880075
:100F3000626B20F040601043C5F88800606B884207
:100F400003D1E86840F48010E860208840040ED5A2
:100F5000D5F88800A26B20F040601043C5F88800E7
:100F6000A06B884203D1E86840F48010E8602088D4
:100F700000040FD5D5F88800E16B20F040500843FD
:100F8000C5F88800E06BB0F1805F03D1E86840F4F9
:100F90008030E8603046BDE8F88300000010024071
:100FA000007000402DE9F0470E4605004FF00007A5
:100FB00025D0DFF8AC81D8F8000000F00F00B04277
:100FC0000CD2D8F8001021F00F013143C8F80010FE
:100FD000D8F8000000F00F00B04210D12968614C31
:100FE000C80741F2883A5AD06868DFF87C91032834
:100FF00008D0022820682DD0400500282CDB0120D5
:10100000BDE8F08720688001F9D5E06800F00302B0
:10101000E068C0F30310401C032A19D0534A00BFF4
:10102000B2FBF0F0E268C2F306225043E268C2F37A
:101030004162521C5200B0FBF2F0484517D9A0683B
:1010400010F0F00F0CD0880711D5A86840B10EE061
:10105000474AE5E78003D0E700F0B6F8484506D9EF
:10106000A06820F0F00040F08000A0608027A06819
:10107000696820F003000843A060FFF751FD814636
:1010800006E000BFFFF74CFDA0EB090151453AD83F
:10109000A068696800F00C00B0EB810FF2D12868FD
:1010A000810714D5400703D5A06840F4E060A06034
:1010B0002878000705D5A06820F4605040F4E0606F
:1010C000A060A068A96820F0F000084304E0802F29
:1010D00003D1A06820F0F000A060D8F800104046CE
:1010E00001F00F01B14216D9016821F00F0131431F
:1010F0000160FFF715FD074607E000BFFFF710FD91
:10110000C11B514501D903207AE7D8F8000000F04F
:101110000F00B042F2D12878400705D5A068E968F1
:1011200020F4E0600843A0602878000706D5A06896
:10113000296920F4605040EAC100A06000F044F842
:10114000A1680C4AC1F30311515C01F01F01C840B2
:101150000949086009480068BDE8F047FFF7FEBC90
:10116000002002400010024000B4C4040024F40037
:1011700000366E01185A00082C00002020000020C4
:101180000548064900688968054AC1F30221515C97
:1011900001F01F01C84070472C00002000100240E1
:1011A000285A00080548064900688968054AC1F3BD
:1011B000C221515C01F01F01C84070472C00002083
:1011C00000100240285A0008184910B58868C0F37A
:1011D00081021748012A0BD08A68164BC2F381029C
:1011E000022A06D08A68C2F38102032A03D00020B3
:1011F00010BD184610BDCA6802F00304CA68C2F3E5
:101200000312521C032C02D0B0FBF2F001E0B3FB3E
:10121000F2F0CA68C968C2F306225043C1F34161C3
:10122000491C4900B0FBF1F010BD00000010024065
:101230000024F40000366E012DE9F84304007AD052
:101240002078FA4DC00747D0A868E96800F00C0084
:1012500001F003010C2802D0082817D001E003296F
:1012600014D06068B0F5803F17D0B0F5A02F286883
:1012700017D020F480302860286820F4802028606F
:101280006068E0B1FFF74CFC064614E02868800374
:1012900022D560680028D2D01EE0286840F4803053
:1012A000EDE740F480202860F7E700BFFFF738FC47
:1012B000801B642870D828688003F7D50CE0FFF7FE
:1012C0002FFC064605E000BFFFF72AFC801B6428C0
:1012D000F0D828688003F7D4207880074CD5A86818
:1012E000E96800F00C0001F003010C2802D004288A
:1012F0000DD001E002290AD0E068002828682BD030
:1013000040F480702860FFF70BFC064619E028685F
:10131000400502D5E068002891D06868217C20F063
:10132000FE4040EA01606860C1480068FFF716FCB3
:10133000002800D120E076E1FFF7F2FB801B0228B5
:10134000B8D828684005F7D56868217C20F0FE40B1
:1013500040EA016068600FE020F480702860FFF7C9
:10136000DFFB064605E000BFFFF7DAFB801B022823
:10137000A0D828684005F7D42078000729D56069EF
:101380000028D5F8940013D040F00100C5F894006F
:10139000FFF7C6FB064606E090E000BFFFF7C0FB84
:1013A000801B022886D8D5F894008007F6D510E077
:1013B00020F00100C5F89400FFF7B2FB064604E0F8
:1013C000FFF7AEFB801B022878D8D5F89400800781
:1013D000F6D42078400761D5A86D0026C00008D457
:1013E000A86D40F08050A865A86D012600F08050DF
:1013F000009090480168C90511D40168804641F405
:1014000080710160FFF78CFB074604E0FFF788FB63
:10141000C01B022852D8D8F80000C005F6D5A06835
:10142000012815D00528D5F8900016D020F001002D
:10143000C5F89000D5F8900020F00400C5F89000A1
:10144000A06841F28838B8B1FFF76AFB07460EE0A2
:10145000D5F8900040F00100F0E740F00400C5F836
:101460009000F5E7FFF75CFBC11B414526D8D5F896
:1014700090008007F6D50CE0FFF752FB074604E02A
:10148000FFF74EFBC11B414518D8D5F890008007E7
:10149000F6D41EB1A86D20F08050A8652078800693
:1014A00029D5A0690028D5F8980013D040F0010094
:1014B000C5F89800FFF734FB064606E077E000BF6A
:1014C000FFF72EFB801B022877D8D5F898008007FD
:1014D000F6D510E020F00100C5F89800FFF720FBDA
:1014E000064604E0FFF71CFB801B022865D8D5F8F0
:1014F00098008007F6D4E069F0B3A968C1F38101D0
:10150000032961D00228286820F0807028600BD061
:10151000E86820F00300E860E86847490840E860B0
:10152000FFF7FEFA04464BE0FFF7FAFA064604E03E
:10153000FFF7F6FA801B02283FD828688001F7D40D
:10154000F4E908016FF00F0202EB01110843218A50
:101550005204490802EB4151A26841EA02210843C2
:10156000217D4FF07E42490802EB41610843217B17
:1015700040EAC160E96800E062E0304A1140084397
:10158000E860286840F080702860E86840F080706B
:10159000E860FFF7C5FA044605E000BFFFF7C0FAB0
:1015A000001B022809D828688001F7D548E004E02C
:1015B000FFF7B6FA001B022802D90320BDE8F88322
:1015C00028688001F4D43BE00128F7D0E868226A5B
:1015D00000F00301914226D1616A00F0F002090196
:1015E000103991421FD1A26A00F4FE41B1EB022FE3
:1015F00019D194F82C2000F07841B1EBC26F12D1D0
:10160000218E00F4C00249084905A1F5001191425C
:1016100009D194F8341000F0C06049084906A1F1DE
:10162000007181420CD00120C8E700000010024088
:101630002000002000700040FFFFEEFE0C809F01A4
:101640000020BBE710B5401EB0F1807F01D3012020
:1016500010BD4FF0E02460610F21601702F00CFB19
:101660000020A06107202061002010BDF0B590F897
:101670003C20012A3AD0012580F83C50022280F813
:101680003D2003685A689C68194E1A4FB34201D036
:10169000BB4204D122F4700C4A6842EA0C02DFF823
:1016A00058C002EA0C02D1F800C04CEA020CC3F8A0
:1016B00004C00268B2420DD0B2F1804F0AD00F4B85
:1016C0009A4207D00E4B9A4204D0BA4202D00D4B38
:1016D0009A4204D1896824F080031943916080F80C
:1016E0003D50002180F83C100846F0BD0220F0BDBE
:1016F000002C0140003401408FFFFFFD000400403A
:10170000000800400040014010B5040003D094F8E8
:101710003D0010B107E0012010BD002084F83C001E
:10172000204600F023F8022084F83D00211D2068A7
:1017300001F0B2FB012084F8480084F83E0084F8F0
:101740003F0084F8400084F8410084F8420084F8A7
:10175000430084F8440084F8450084F8460084F887
:10176000470084F83D00002010BD000008B5006867
:101770000649884208D10648816D41F00201816521
:10178000806D00F00200009008BD000000040040E1
:101790000010024070B5044690F83C00012814D0B7
:1017A000012584F83C50022084F83D0022689068AE
:1017B000344B184020F47F4090600868702827D090
:1017C00010DC10F00F0F03D04AE04FF0020070BDA4
:1017D0004FEA2012072A43D2DFE802F0505050505F
:1017E00048313900284BC21A984247D009DCB0F57D
:1017F000805F35D0B0F5005F15D0B0F1101F2FD14C
:101800003CE0102A3AD0202A38D0502A28D135E09E
:10181000CB68D1E90121206801F0A3FB2068816831
:1018200041F0770109E0CB68D1E90121206801F09E
:1018300098FB2068816841F48041816010E0CA68AB
:101840004968206801F038FD5021206806E0CA6828
:101850004968206801F041FD6021206801F08CFB9F
:1018600084F83D50002084F83C0070BDCA68496887
:10187000206801F021FD40212068EFE72268014641
:101880001046EBE788FFCEFF2000100010B586B0B1
:10189000044614216846FEF7F3FC0E49206888428E
:1018A00015D10D48C16C41F00101C164C06C00212B
:1018B00000F001000590802000900220CDE9010198
:1018C000CDE9031069464FF09040FFF73BF806B0B2
:1018D00010BD0000000400400010024070B5044636
:1018E00090F83C000D4601280BD0012084F83C0004
:1018F0000C2A45D007DC5AB1042A1BD0082A78D11B
:101900002CE0022070BD102A4ED0142A71D15DE067
:10191000206801F03BFB2068816941F0080181618A
:101920002068816921F004018161206881692A6948
:10193000114311E0206801F077FB2068816941F4D0
:10194000006181612068816921F480618161206882
:1019500081692A6941EA022181614AE0206801F037
:10196000ABFB2068C16941F00801C1612068C16911
:1019700021F00401C1612068C1692A69114311E0A5
:10198000206801F0E1FB2068C16941F40061C16198
:101990002068C16921F48061C1612068C1692A6938
:1019A00041EA0221C16124E0206801F015FC2068B1
:1019B000016D41F0080101652068016D21F004010D
:1019C00001652068016D2A69114311E0206801F06A
:1019D0003BFC2068016D41F4006101652068016DE8
:1019E00021F4806101652068016D2A6941EA0221C4
:1019F0000165002084F83C0070BD10B5040003D0E0
:101A000094F83D0010B107E0012010BD002084F8DB
:101A10003C00204600F022F8022084F83D00211D01
:101A2000206801F039FA012084F8480084F83E006B
:101A300084F83F0084F8400084F8410084F84200B4
:101A400084F8430084F8440084F8450084F8460094
:101A500084F8470084F83D00002010BD7047000066
:101A600030B50446022269B1042912D0082917D0E2
:101A70000C291CD0102921D094F84300012824D02F
:101A8000012030BD94F83E000128F9D184F83E20B1
:101A90001DE094F83F000128F2D184F83F2016E0C1
:101AA00094F840000128EBD184F840200FE094F82E
:101AB00041000128E4D184F8412008E094F8420074
:101AC0000128DDD184F8422001E084F8432001227E
:101AD000206801F039FA194B20681949194A9842CF
:101AE00009D0884207D0904205D0174DA84202D0B5
:101AF000164DA84203D1456C45F400454564206865
:101B000098420CD0B0F1804F09D0114B984206D0CA
:101B1000104B984203D0884201D0904207D181688F
:101B20000D4A1140062906D0B1F5803F03D0016867
:101B300041F001010160002030BD0000002C014097
:101B40000034014000400140004401400048014091
:101B500000040040000800400700010090F88010D9
:101B6000012918D0012180F880102421C0F88410A8
:101B700050F8641B0A680B6823F001030B6022F025
:101B800000510022026050F8643C1960202101627B
:101B9000027710467047022070477047704770B553
:101BA000044690F8800001281DD0012084F88000B0
:101BB0002420C4F8840020680568026822F001022D
:101BC00002602068826822F060620A4382602046D8
:101BD00001F096FB206805602020C4F884000020F6
:101BE00084F8800070BD022070BD70B5044690F886
:101BF000800001281DD0012084F880002420C4F832
:101C0000840020680568026822F0010202602068F2
:101C1000826822F060420A438260204601F070FB35
:101C2000206805602020C4F88400002084F880002B
:101C300070BD022070BD7047704770472DE9F041BC
:101C400003680446D86919689A6840F60F05284267
:101C50004FF0000509D186067ED501F0200602F07E
:101C600080573E4378D0216FFFE0924E924F16404E
:101C70000F40374370D0C70709D0CF0507D50127DC
:101C80001F62D4F88C3043F00103C4F88C30830712
:101C90000AD5D30708D0276802233B62D4F88C30DA
:101CA00043F00403C4F88C3043070AD5D30708D0A7
:101CB000276804233B62D4F88C3043F00203C4F855
:101CC0008C3003070CD501F02003334308D026687D
:101CD00008233362D4F88C3043F00803C4F88C3006
:101CE00003050BD54B0109D526684FF40063336219
:101CF000D4F88C3043F02003C4F88C30D4F88C3006
:101D0000002B34D0800609D501F0200002F080516C
:101D1000084303D0216F09B120468847D4F88C00CE
:101D200021688968490602D410F0280F21D0204686
:101D300001F0A6FB20688168490615D5816821F06D
:101D400040018160E06F78B15C498163E06FFEF72C
:101D5000AAFD00280BD000E011E0E06F816B00E0ED
:101D60002046BDE8F04108472046FFF766FFBDE882
:101D7000F0812046FFF761FFC4F88C50F7E7E76E6B
:101D80002026012F5CD1C7065AD5CF0658D5102082
:101D900018622068816849062FD5E26F116849688A
:101DA0000904090CE3D0B4F85C308B42DFD9A4F805
:101DB0005E1011680968890618D4016821F48071E1
:101DC00001602068816821F00101816020688168DC
:101DD00021F040018160C4F88860E56620680168F0
:101DE00021F010010160E06FFEF728FDB4F85C00FF
:101DF000B4F85E10401A81B21EE0B4F85C10B4F87A
:101E00005E20891AB4F85E2089B2002AAFD000297A
:101E1000ADD0026822F49072026020688268254B7F
:101E2000DB431A408260C4F88860E5662567206855
:101E3000026822F0100202602046FFF7AEFE96E72D
:101E4000C70209D5570207D54FF480101862204603
:101E5000BDE8F041FFF7F0BE07060AD501F08007A4
:101E600002F40002174304D0616F00297FF478AFB9
:101E70007DE742060CD54A060AD51968204621F0AE
:101E800040011960C4F88460656700F087FA6EE766
:101E9000020206D54A0004D52046BDE8F041FFF70E
:101EA000CABEC001CBD50029C9DA2046BDE8F04141
:101EB000FFF774BE01000010200100046D3400081B
:101EC00010B5040003D0D4F8840010B107E001205D
:101ED00010BD002084F88000204600F027F8242060
:101EE000C4F884002068016821F0010101602046E7
:101EF00001F09EFC0128EBD0A06A10B1204601F051
:101F000021FA2068416821F490414160206881688D
:101F100021F02A0181602068016841F0010101601F
:101F20002046BDE8104001F071BA000010B586B03F
:101F3000044614216846FEF7A3F917492068884231
:101F400027D11648016E41F480410166016E01F40B
:101F500080410591C16C41F00101C164C06C6946CA
:101F600000F0010005904FF4C06000900220019045
:101F7000002002900390072004904FF09040FEF75D
:101F8000E1FC002211462520FEF730FE2520FEF759
:101F90001FFE06B010BD00000038014000100240D6
:101FA00010B4D0F88830202B1BD1B9B1B2B190F861
:101FB0008030012B15D0012380F880300023C366C8
:101FC000094C0368A34206D05C68240203D51C6850
:101FD00044F080641C6010BC01F064BD012010BCA2
:101FE00070470220FBE70000008000402DE9FC4123
:101FF000B34D287800287CD0B24802F0D1FA0128ED
:1020000001D0B1A021E1AF4CB3A004F19806217832
:10201000317001F00DFE3A212046FEF748F9401CD0
:10202000074601460422701CFEF735F9711CAEA06C
:1020300001F0FEFD3A213846FEF739F9A07AE17A3F
:10204000303800EB80026FF02F0000EB42021144A9
:10205000CFB2B771217B627B303901EB810100EB9C
:1020600041011144CBB2F371A17BE27B303901EB2A
:10207000810100EB41011144CAB23272217C94F813
:1020800011C0303901EB810100EB41016144C9B25B
:10209000717294F812C094F81380ACF1300C0CEB10
:1020A0008C0C00EB4C0CC4441CF0FF0C86F80AC0EE
:1020B00094F81580247DA4F1300404EB840400EB33
:1020C00044004044C0B2F07200D100B10120344657
:1020D00040F26D1617FB06F6C3EB031306EB430342
:1020E0001A4402EB420200EBC200014482A0E1600C
:1020F00000E0ACE001F09CFDA07963280ED8E07907
:102100000C280BD8207A1F2808D8607A3C2805D8DC
:10211000A07A3C2802D8E07A3C2801D97BA094E040
:10212000601C02F075FADFF89C81FF2808F118089E
:102130007ED0634F20780C37432802D056283AD0FF
:102140005AE0601C02F064FA08EB0010E168806855
:102150004646081AA86068A001F06AFD601C02F0FB
:1021600057FA06EB00108668601C02F051FA01462F
:1021700032466AA001F05CFD6DA0A96801F058FD2F
:10218000A868D7ED000A00EE100A0646B8EE400A2D
:1021900020EE800A87ED020A10EE100AFEF7A0F882
:1021A000CDE900013246611C65A001F041FD68786F
:1021B000401E687020E0601C02F02AFA08EB001054
:1021C000E16880680E1A00EE106AAE60D7ED010A71
:1021D000B8EE400A20EE800A87ED020A10EE100ADF
:1021E000FEF77EF8CDE900013246611C59A001F0EE
:1021F0001FFDA878401EA870601C02F009FA464630
:1022000008EB00104FF0000880F80C804746601C77
:1022100002F0FEF906EB00100770601C02F0F8F9FE
:1022200006EB001087600027601C02F0F1F900E067
:1022300015E006EB0010C1197F1C81F80180042F06
:10224000F2DB2878401C287047A001F0F1FC02B0B6
:102250001622BDE8F0411B494648FFF7A1BE02F037
:10226000BBF9FF2829D002F0B7F90646014642A083
:1022700001F0DEFC08EB061720783870781C042289
:10228000611CFEF708F801203873E268314623A08C
:10229000BA6001F0CDFC2078432802D0562804D043
:1022A00006E06878401C687002E0A878401CA870BE
:1022B0002878401E287032A0C7E734A0C5E7000088
:1022C00008000020340000206572726F775F627230
:1022D000616E64210D0A00006275662E6272616E85
:1022E000643A25640D0A00006275662E69643A201E
:1022F00025730D0A000000006275662E746F74610C
:102300006C686F75723A25640D0A00006572726F11
:10231000775F54696D65210D0A0000006361725B8F
:1023200025645D2E686F75723A25640D0A00000001
:10233000746F74616C6275663A2025640D0A000042
:10234000434E42523A25733A25643A25302E32667E
:102350000D0A0000564E42523A25733A25643A253A
:10236000302E32660D0A00004361725F4F55540DE6
:102370000A0000005C010020693A25640D0A000093
:102380004361725F494E0D0A000000004E6F206CE1
:102390006F63617465210D0A000000007047FEE75D
:1023A00010B511A1182000F039F9154C15A11948E4
:1023B000627801F04DFC1749482000F02FF9A2780F
:1023C00015A1144801F044FC1249782000F026F9C8
:1023D000227815A10F4801F03BFCBDE810400D49E3
:1023E000A82000F01BB9000020202020202020443D
:1023F0006174612020202020202020202000000067
:1024000008000020202020434E42523A256420201C
:1024100020000000DC000020202020564E42523ACE
:10242000256420202000000020202049444C453A0B
:10243000256420202000000010B514A1182000F011
:10244000EDF8184C2068FDF74BFF41EC100B16A17E
:1024500053EC102B194801F0FBFB1849482000F001
:10246000DDF86068FDF73CFF41EC100B14A153EC64
:10247000102B124801F0ECFB1049782000F0CEF848
:10248000BDE81040A82000F065B800002020202002
:102490002020205061726120202020202020202038
:1024A0002000000014000020202020434E42523A19
:1024B00025302E326620202020000000DC00002085
:1024C000202020564E42523A25302E3266202020BF
:1024D0002020000000B585B014216846FDF7D0FE2D
:1024E0004FF6FF70009000200321CDE9020101901A
:1024F00069460248FEF726FA05B000BD000800480C
:1025000000B585B014216846FDF7BAFE4FF6FF709E
:102510000090012001900320039000200290694662
:102520000248FEF70FFA05B000BD000000080048A1
:1025300070B5002406462146204600F013F900F04D
:1025400051F94FF49635304600F020F9641CAC4246
:10255000F9D370BD01A100F061B800002020202057
:10256000202020202020202020202020202020206B
:102570000000000030B587B014216846FDF780FEEA
:102580001E48C16C41F00401C164C16C01F004013A
:102590000591C16C41F00101C164C16C01F0010100
:1025A0000591C16C41F00201C164C06C012500F0CD
:1025B000020005904FF44870CDE900050024039413
:1025C000694602940E48FEF7BDF928020394009074
:1025D000CDE901544FF0904469462046FEF7B2F928
:1025E000FFF78EFFA06940F48070A06104481830A6
:1025F000016841F40871016007B030BD001002406D
:1026000000040048203AD2B2034B02EB420203EB33
:10261000021200F019B8000020480008F0B50E467C
:102620000746002540F23F1407E021463846FFF7F1
:10263000E9FF103C6D1CA4B2761C3278002A01D050
:10264000142DF2D3F0BD00002DE9F04791468A46E3
:102650000026044600F086F8DFF84080012700BF1E
:1026600000F0C0F85FF0000539F8160007FA05F130
:102670000842404601D1408800E0008800F086F81A
:102680006D1C102DF0D3641CE4B25146204600F0BE
:1026900069F8761C182EE3D3BDE8F087000000200F
:1026A00010B5FFF767FF002000F014F8084CA08079
:1026B000A088A0F50241303906D000F0A1FA002030
:1026C00000F008F8A08010BD00F011FAF7E7000054
:1026D0000000002070B51D490A6842F400720A60CB
:1026E0000A6842F480720A60184C103C226842F07A
:1026F00020022260164A1060086840F0200008603E
:1027000000BF00BF00BF206840F0200020602068AC
:1027100040F480702060FFF7DDFE4FF09041886A42
:1027200040F48070886200BF00BF00BF0848001FEF
:10273000006885B2886940F480708861FFF7E0FE28
:10274000206840F400702060284670BD28040048CE
:102750001408004801B5BDF800000149488008BDD3
:102760000000002010B50C460146202000F068F85B
:102770002146BDE81040212000F062B801B5BDF847
:1027800000000149088008BD00000020134A1168BC
:1027900041F400711160114910390B6843F48073E2
:1027A0000B600B6843F020030B600D4B1860106842
:1027B00040F02000106000BF00BF00BF086840F07C
:1027C00020000860086840F48070086000BF00BF07
:1027D00000BF086840F40070086070472804004893
:1027E000140800481449086840F40070086008683C
:1027F00040F48070086010481038026842F02002EF
:1028000002600E4B22221A600A6842F020020A601F
:1028100000BF00BF00BF016841F0200101600168F6
:1028200041F48071016000BF00BF00BF016841F446
:102830000071016070470000280400481408004837
:10284000184B10B51A6842F400721A601A6842F404
:1028500080721A60134A103A146844F0200414601D
:10286000114C2060186840F02000186000BF00BFC5
:1028700000BF106840F020001060106840F48070C5
:1028800010602160186840F02000186000BF00BF91
:1028900000BF106840F020001060106840F48070A5
:1028A000106010BD280400481408004870B5144C8E
:1028B000144D4FF48071207808B1002200E001220D
:1028C0002846FEF728F920794FF4007108B100225C
:1028D00000E001222846FEF71EF901224FF47C4158
:1028E0002846FEF718F9084C012204212046FEF77D
:1028F00012F92046BDE8704000220421FEF70BB912
:102900000800002000080048000C0048F0B587B01F
:1029100014216846FDF7B4FC2D48C16C41F0040158
:10292000C164C16C01F004010591C16C41F020014A
:10293000C164C16C01F020010591C16C41F001013D
:10294000C164C16C01F001010591C16C41F002014B
:10295000C164C16C01F002010591C16C41F0080134
:10296000C164C06C1B4E00F008004FF47F4405901A
:10297000002221463046FEF7CEF8174F00220421F0
:102980003846FEF7C8F80125CDE900450024029439
:10299000694630460394FDF7D5FFCDE900546946FA
:1029A0004FF090400294FDF7CDFF0720CDE90004E1
:1029B00069460A480294FDF7C5FF04200090CDE95E
:1029C0000154694638460394FDF7BCFF07B0F0BDDB
:1029D0000010024000080048000C004800040048B5
:1029E00010B58EB000240794089409940A940B94AF
:1029F0000C941C2168460D94FDF742FC1F481E49AB
:102A000001604F21C0E9011440F2F311C0E9031441
:102A100080218161FEF778FE08B1FDF70DFF4FF4CC
:102A20008050079007A91548FEF7B4FE08B1FDF7DE
:102A300003FF1248FEF7E1FF08B1FDF7FDFE0B941E
:102A40000BA90E480D94FEF711FE08B1FDF7F4FE38
:102A500060200090C820CDE901040422694607489F
:102A60000494FEF73BFF08B1FDF7E6FE0348FEF7CE
:102A70000DFF0EB010BD000000040040100100204A
:102A8000184810B5164901604FF4165141600021F5
:102A900081600C22C160C0E904128161C1610162E0
:102AA00041628162FFF70CFA08B1FDF7C5FE002113
:102AB0000C48FFF79AF808B1FDF7BEFE002109485F
:102AC000FFF76DF808B1FDF7B7FE0648FFF746F8C7
:102AD000002803D0BDE81040FDF7AEBE10BD0000D9
:102AE000003801405C010020FEE7FEE7704730B58A
:102AF00001210020FFF7A4FE4FF47A70FDF773FE6A
:102B000000210120FFF79CFE41F290711020FFF799
:102B100097FE4FF41C516020FFF792FE01216120C7
:102B2000FFF78EFE02214620FFF78AFE48F21001D1
:102B30001320FFF785FE48F2FE011220FFF780FE0A
:102B40004FF4A0610220FFF77BFE41F23001032029
:102B5000FFF776FE40F2033421463020FFF770FE87
:102B600021463120FFF76CFE21463220FFF768FE38
:102B7000E51E29463320FFF763FE03213420FFF7CB
:102B80005FFE21463520FFF75BFE14213620FFF75C
:102B900057FE21463720FFF753FE21463820FFF726
:102BA0004FFE21463920FFF74BFE29463A20FFF71A
:102BB00047FE03213B20FFF743FE21463C20FFF761
:102BC0003FFE4FF4A0513D20FFF73AFE4FF4007155
:102BD0009220FFF735FE21469320FFF731FE40F6A5
:102BE0000D019020FFF72CFE41F218010320FFF7A2
:102BF00027FEBDE8304040F273110720FFF720BEEA
:102C000010B543F20801E320FFF71AFE1221E72076
:102C1000FFF716FE41F23121EF20FFF711FE0021F0
:102C20000120FFF70DFE4FF4E0610220FFF708FEE0
:102C300041F230010320FFF703FE00210420FFF7DB
:102C4000FFFD40F207210820FFF7FAFD00210920CF
:102C5000FFF7F6FD00210A20FFF7F2FD00210C200E
:102C6000FFF7EEFD00210D20FFF7EAFD00210F2008
:102C7000FFF7E6FD00211020FFF7E2FD07211120FC
:102C8000FFF7DEFD00211220FFF7DAFD00211320FF
:102C9000FFF7D6FDC820FDF743FE41F290611020FA
:102CA000FFF7CEFD40F227211120FFF7C9FD3220AA
:102CB000FDF736FE1D211220FFF7C2FD3220FDF781
:102CC0002FFE4FF400611320FFF7BAFD14212920D5
:102CD000FFF7B6FD0B212B20FFF7B2FD3220FDF7E9
:102CE0001FFE00212020FFF7ABFD00212120FFF770
:102CF000A7FD07213020FFF7A3FD40F20771312027
:102D0000FFF79EFD06213220FFF79AFD40F2047185
:102D10003520FFF795FD41F604713620FFF790FD51
:102D200004213720FFF78CFD00213820FFF788FDB4
:102D300040F206713920FFF783FD40F201713C201B
:102D4000FFF77EFD0F213D20FFF77AFD0021502087
:102D5000FFF776FDEF215120FFF772FD0021522091
:102D6000FFF76EFD40F23F115320FFF769FD4FF46E
:102D70001C516020FFF764FD01216120FFF760FD19
:102D800000216A20FFF75CFD00218020FFF758FD3D
:102D900000218120FFF754FD00218220FFF750FD24
:102DA00000218320FFF74CFD00218420FFF748FD20
:102DB00000218520FFF744FD10219020FFF740FD02
:102DC00000219220FFF73CFD03219320FFF738FDFF
:102DD0004FF488719520FFF733FD00219720FFF70E
:102DE0002FFD00219820FFF72BFD41F21801032051
:102DF000FFF726FDBDE8104040F273110720FFF7F2
:102E00001FBD7047FDF792BE30B5A5B038216846AA
:102E1000FDF736FA14211FA8FDF732FA44210EA857
:102E2000FDF72EFA4FF40070FDF712FF012528047C
:102E3000CDE9005002200324CDE907041421CDE997
:102E40000A100C900D9009946846FEF7F5F908B148
:102E500072B6FEE70F20CDE91F04002421942294CE
:102E600002211FA82394FEF79DF808B172B6FEE771
:102E7000CDE90E540EA8FDF751FF002801D072B61F
:102E8000FEE725B030BD00000248016841F4700142
:102E90000160704788ED00E02DE9F0430268234BA4
:102EA000234D244E244C4FF08049984207D048458A
:102EB00005D0A84203D0B04201D0A04203D122F0F5
:102EC00070074A683A431D4FDFF874C0DFF874801A
:102ED00098420DD048450BD0A84209D0B04207D047
:102EE000A04205D0B84203D0604501D0404503D18F
:102EF00022F44075CA682A434D6922F080022A43B1
:102F000002608A68C2620A688262984207D0A04260
:102F100005D0B84203D0604501D0404501D10969D0
:102F2000016301214161BDE8F0830000002C0140F4
:102F3000000400400008004000340140004001400F
:102F4000004401400048014010B501F01F03012179
:102F5000046A99408C430462016A9A4011430162F9
:102F600010BD10B5846842EA032224F47F440A436A
:102F70002243826010BD00008268034B1A400A435E
:102F800042F00701816070478FFFCFFF2DE9F043CA
:102F9000026A22F001020262056A436882691C4CDF
:102FA00025F0020522400C6822F0030214438A68CF
:102FB000194E2A43174D194FDFF864C0DFF86490AB
:102FC000A84207D0B04205D0B84203D0604501D036
:102FD000484506D122F00808CA6842EA080222F0F1
:102FE0000402A84207D0B04205D0B84203D06045E1
:102FF00001D0484505D14D6923F440731D438B69C9
:103000002B4343608461496841630262BDE8F083F9
:103010008FFFFEFF002C01400034014000400140C2
:103020000044014000480140F0B5026A22F010025D
:103030000262056A42688369194C1B4E23400C6882
:1030400023F4407343EA042425F020038D6843EA07
:103050000513144DA84201D0B04206D1CF6823F029
:10306000800343EA071323F04003A8420AD0B0428A
:1030700008D00E4DA84205D00D4DA84202D00D4DEE
:10308000A84207D14D6922F4406242EA85028D6967
:1030900042EA850242608461496881630362F0BD4F
:1030A000FF8FFFFE002C0140003401400040014032
:1030B0000044014000480140F0B5026A22F48072E9
:1030C0000262056A4368C269194C1B4E22400C68B3
:1030D00022F00302144325F400728D6842EA0522AF
:1030E000144DA84201D0B04206D1CF6822F400624C
:1030F00042EA072222F48062A8420AD0B04208D0F5
:103100000E4DA84205D00E4DA84202D00D4DA8424A
:1031100007D14D6923F4405343EA05138D6943EA0F
:1031200005134360C4614968C1630262F0BD0000D9
:103130008FFFFEFF002C01400034014000400140A1
:103140000044014000480140F0B5026A22F4805278
:103150000262056A4268C369194C1B4E23400C6821
:1031600023F4407343EA042425F400538D6843EAB2
:103170000533144DA84201D0B04206D1CF6823F4E4
:10318000004343EA073323F48043A8420AD0B04205
:1031900008D00E4DA84205D00D4DA84202D00D4DCD
:1031A000A84207D14D6922F4404242EA85128D6956
:1031B00042EA85124260C461496801640362F0BD5D
:1031C000FF8FFFFE002C0140003401400040014011
:1031D000004401400048014030B5026A22F48032C8
:1031E0000262046A4268036D114D2B400D681D4355
:1031F00024F400330C8943EA04430E4CA0420BD064
:103200000D4CA04208D00D4CA04205D00C4CA04261
:1032100002D00C4CA04204D14C6922F4803242EA24
:1032200004224260056549688164036230BD000084
:103230008FFFFEFF002C01400034014000400140A0
:10324000004401400048014030B5026A22F4801277
:103250000262046A4268036D114D24F400142B408D
:103260000D6843EA05230D8944EA05540D4DA84233
:103270000BD00D4DA84208D00C4DA84205D00C4DE6
:10328000A84202D00B4DA84204D14D6922F48022FD
:1032900042EA8522426003654968C164046230BD28
:1032A000FF8FFFFE002C0140003401400040014030
:1032B000004401400048014010B5036A046A24F04C
:1032C00001040462846924F0F00444EA021423F047
:1032D0000A020A438461026210BD10B5036A23F03A
:1032E000100303628369046A23F4704343EA0232E1
:1032F00024F0A00343EA01118261016210BD0000C5
:1033000030B5416EB9B1026891689268C1F342610B
:103310000B4B520F9C5CE50003F10804A25CB5FB6B
:10332000F2F2A0F86A205A5C615CD200B2FBF1F1C3
:10333000A0F8681030BD0121A0F86A10F8E700007D
:10334000085A000890F82810C90706D001684A6892
:10335000C36A22F400321A434A6090F828108907A1
:1033600006D501684A68036B22F480321A434A602A
:1033700090F82810490706D501684A68436B22F483
:1033800080221A434A6090F82810090706D5016880
:103390004A68836B22F400421A434A6090F828106E
:1033A000C90606D501688A68C36B22F480521A43A5
:1033B0008A6090F82810890606D501688A68036C2F
:1033C00022F400521A438A6090F82810490611D559
:1033D00001684A68436C22F480121A434A60416CC7
:1033E000B1F5801F06D101684A68836C22F4C002DF
:1033F0001A434A6090F82810090606D501684A6801
:10340000C06C22F4002202434A607047F8B50026DF
:103410000446C0F88C60FDF783FB05462068006811
:103420006FF07E47000708D52B4600224FF40011AD
:103430002046009700F0A2FB60B9206800684007B2
:103440000AD52B4600224FF480012046009700F059
:1034500095FB08B10320F8BD2020C4F88400C4F80F
:10346000880044F86C6F00202675F8BD10B5806A9E
:103470000021A0F85E10A0F85610FEF7DEFB10BD8C
:1034800001680A6822F490720A6001688A68094B30
:103490001A408A60C16E012904D101680A6822F0CD
:1034A00010020A602021C0F888100021C16601675F
:1034B00070470000FEFFFFEF70B5B0F86010D0F865
:1034C000882004460068222A04D0816941F008015E
:1034D000816170BD406AA26D08401080A06D801CA3
:1034E000A065B4F85E00401EA4F85E00B4F85E006B
:1034F0000028EED12068016821F4907101602068F5
:10350000816821F0010181602020C4F88800002535
:103510002567E06E012804D02046FEF767FDE566CA
:1035200070BD2068016821F010010160B4F85C10E2
:103530002046FEF732FBF2E72DE9F0470446B0F8EB
:1035400060600068C569D0F800A0D0F80880D4F8A1
:103550008810222905D0816941F008018161BDE808
:10356000F087B4F868704FF000095BE02068406AAB
:10357000A16D30400880A06D801CA065B4F85E008D
:10358000401EA4F85E002068C569690730D0E907CD
:103590000AD05FEACA5107D501210162D4F88C0034
:1035A00040F00100C4F88C00A8070BD55FEAC87092
:1035B00008D0216802200862D4F88C0040F0040092
:1035C000C4F88C0068070BD55FEAC87008D0216882
:1035D00004200862D4F88C0040F00200C4F88C008B
:1035E000D4F88C0020B12046FEF727FBC4F88C905D
:1035F000B4F85E00B0B92068016821F48071016000
:1036000020688168194A114081602020C4F8880030
:10361000C4F87090E06E01281CD02046FEF7E6FC4E
:10362000C4F86C900FB1A806A0D4B4F85E000028CE
:1036300095D0B4F86810814291D92068816821F052
:10364000805181600A4820672068016841F02001AC
:10365000016084E72068016821F010010160B4F87E
:103660005C102046FEF799FADAE70000FEFFFFEF54
:10367000B934000870B5B0F86010D0F8882004465E
:103680000068222A04D0816941F00801816170BD7F
:10369000406A0840A16D0870A06D401CA065B4F898
:1036A0005E00401EA4F85E00B4F85E000028EED173
:1036B0002068016821F4907101602068816821F020
:1036C000010181602020C4F8880000252567E06E94
:1036D000012804D02046FEF789FCE56670BD20680D
:1036E000016821F010010160B4F85C102046FEF77B
:1036F00054FAF2E72DE9F0470446B0F8606000683C
:10370000C569D0F800A0D0F80880D4F88810222924
:1037100005D0816941F008018161BDE8F087B4F806
:1037200068704FF000095BE02068406AA16D30408E
:103730000870A06D401CA065B4F85E00401EA4F89F
:103740005E002068C569690730D0E9070AD05FEAE2
:10375000CA5107D501210162D4F88C0040F0010064
:10376000C4F88C00A8070BD55FEAC87008D02168A0
:1037700002200862D4F88C0040F00400C4F88C00E9
:1037800068070BD55FEAC87008D02168042008627A
:10379000D4F88C0040F00200C4F88C00D4F88C00FF
:1037A00020B12046FEF749FAC4F88C90B4F85E00C8
:1037B000B0B92068016821F48071016020688168D7
:1037C000194A114081602020C4F88800C4F8709024
:1037D000E06E01281CD02046FEF708FCC4F86C906F
:1037E0000FB1A806A0D4B4F85E00002895D0B4F8B4
:1037F0006810814291D92068816821F080518160F0
:103800000A4820672068016841F02001016084E7D0
:103810002068016821F010010160B4F85C102046B6
:10382000FEF7BBF9DAE70000FEFFFFEF7536000890
:103830002DE9F0410446016880682269E36910437C
:10384000626900251A431043DFF82CC20A688B4BCB
:103850001A4002430A6020684168E26821F440513E
:10386000114341602168A069614501D0226A10437B
:103870008A68834B1A4002438A602068C16A626A80
:1038800021F00F011143C1627E4923687E488B42BB
:103890000DD1D0F8880010F0030006D0012855D0D3
:1038A000022842D003283FD152E001203DE0774971
:1038B0008B420BD1D0F8880010F00C0035D00428D2
:1038C00033D0082840D00C282ED141E070498B42DB
:1038D0000BD1D0F8880010F0300026D0102835D059
:1038E000202831D030281FD132E06A498B420BD1D9
:1038F000D0F8880010F0C00017D0402826D08028CB
:1039000022D0C02810D123E063450DD1D0F8880023
:1039100010F4406009D0B0F5806F17D0B0F5006F9B
:1039200012D0B0F5406F13D010205B4A5B4F0026D9
:103930004FF40041634539D160B102280DD004280D
:103940000DD0082831D10EE00220EEE70420ECE78C
:103950000820EAE7FDF714FC03E0114603E0FDF759
:1039600033FC01007DD0606A37F810206768B1FB36
:10397000F2F007EB470383426CD8B0EB073F69D8FE
:10398000002308461946FCF743FC090241EA10618E
:1039900002027808101871413A460023FCF738FCFF
:1039A0003F4AA0F54071914259D953E0E3694FF67F
:1039B000EF788B422DD109284CD2DFE800F00508C2
:1039C0000D4B274B4B4B0E00FDF7DAFB01E0FDF7EB
:1039D000E9FB010001D144E01146606A37F81000AC
:1039E000B1FBF0F04100606801EB5001B1FBF0F079
:1039F00080B2A0F1100141452CD84FF6F071014082
:103A0000C0F3420001432068C1602AE0FDF7DCFBFF
:103A1000DFE709281ED2DFE800F005080D1D1F1D95
:103A20001D1D0E00FDF7ACFB01E0FDF7BBFB010027
:103A300001D116E01146606A37F81000B1FBF0F1D1
:103A4000606801EB5001B1FBF0F080B2A0F1100111
:103A5000414504D9012504E0FDF7B6FBE7E72168FD
:103A6000C8600120A4F86A0024F8680F2846A66000
:103A7000E660BDE8F081000000800040F369FFCF00
:103A8000FFF4FF11003801400010024000440040E4
:103A900000480040004C00400024F400F0590008A9
:103AA000FFFC0F0070B58165A0F85C20A0F85E20D7
:103AB0000021016783684FF48056FF24B34204D18C
:103AC0000369D3B940F2FF131DE07F259BB1B3F129
:103AD000805F15D0A0F86010C0F88C102223C0F8C9
:103AE000883003689C6844F001049C60436EB3F125
:103AF000005F0ED027E0036943B9A0F86040EBE710
:103B000003691BB13F23A0F86030E5E7A0F86050DF
:103B1000E2E7B0F86830934215D88268B24201D12A
:103B2000026972B1114A026780F8801001680A6860
:103B300042F480720A600068816841F080518160BF
:103B40000FE00B4AEFE78268B24201D1026952B13D
:103B5000084A026780F880100068016841F490719B
:103B60000160002070BD044AF3E70000F53600084C
:103B70003935000875360008B93400082DE9F047DA
:103B80009A4617460E4604464FF000094FF02008AB
:103B9000089D39E0681C37D0FCF7C2FFA0EB0A0093
:103BA000A84222D80DB32068016849072CD5C06906
:103BB000C043000528D421684FF4006008622068E3
:103BC000016821F4D07101602068816821F0010151
:103BD0008160C4F88480C4F88880C4F88C8000BFF9
:103BE00084F880900320BDE8F0872068016821F404
:103BF000D07101602068816821F001018160C4F802
:103C00008480C4F88880EBE72068C06936EA000049
:103C100004D00020B842BDD00020E4E70120F9E73D
:103C20000148FEF70BB800005C010020FEE7000031
:103C30000FB4054B10B503A9044A029800F0FEF832
:103C400010BC5DF814FB0000F945000830000020AE
:103C50000FB4084B10B504A902AA039800F0EEF8BF
:103C6000044602A9002000F080FC204610BC5DF84C
:103C700014FB00006B4500080907090E002804DB4F
:103C800000F1E02080F80014704700F00F0000F110
:103C9000E02080F8141D704702E008C8121F08C118
:103CA000002AFAD170477047002001E001C1121FBD
:103CB000002AFBD1704700002DE9FF5F82B0002190
:103CC000DDE90430020DDDF840B0034318D044F6BE
:103CD0001050A2F2FF3242431514119801281FD050
:103CE000A5EB0B00401C5FEA000A4FF000064E4FA8
:103CF000DFF83891B046504615D5CAF1000413E0FC
:103D0000119801244AA3012801D16FEA0B010298FE
:103D1000119AC0E90031C0E9024206B0BDE8F09F47
:103D2000CBF10000DFE704460021404A491842EB8E
:103D30000450CDE9001012E0E00707D032463B46C0
:103D400040464946FCF7BBFB8046894632463B4627
:103D500010461946FCF7B3FB06460F466410002CCC
:103D6000EAD1DDE90401DDE90023BAF1000F06DA4A
:103D7000FCF7A5FB42464B46FCF7A1FB05E0FCF730
:103D800010FC42464B46FCF70CFC04460E46002253
:103D9000284BFCF78DFC03D84FF0FF30014607E0BD
:103DA0000022254B20463146FCF7E2FAFCF768FC7E
:103DB000102409E0002C0ADB0A220023FCF728FA71
:103DC000039B30321A55641E50EA0102F2D1641C82
:103DD000039AC4F111031444119A012A03D0012259
:103DE00008430DD10AE0084304D000204FF0110B26
:103DF000119072E7A3EB0B056D1E0DE05B4504DD32
:103E00004FF0000205F1010504E003DA4FF0000273
:103E1000A5F10105002AECD002981199C0E9023100
:103E2000C0E9004579E70000000014400000F03FC1
:103E3000300000000000F0430000E03F2DE9FF4F9C
:103E400095B09B468946064600250FE2252877D186
:103E500000242746F84A0121059400E0044316F89F
:103E6000013F203B01FA03F01042F7D130782A28B5
:103E700011D06FF02F033078A0F13002092A16D844
:103E8000059A44F0020402EB820203EB4202104462
:103E9000761C0590EFE759F8042B0592002A03DA07
:103EA000504244F40054059044F00204761C3078EB
:103EB0002E2816D116F8010F44F004042A280DD03C
:103EC0006FF02F023078A0F13003092B09D807EBEF
:103ED000870302EB4303C718761CF3E759F8047B0A
:103EE000761C30786C280FD006DC4C2817D0682858
:103EF0000DD06A2814D104E0742810D07A280FD18C
:103F00000DE044F400140AE044F4801401E044F4A9
:103F100040147278824202D104F58014761C761C1B
:103F2000307866280BD013DC582877D009DC0028BD
:103F300075D04528F6D04628F4D047281AD19DE1FF
:103F400018E0632835D0642879D0652812D195E12E
:103F5000702873D008DC6728F1D069286FD06E28EC
:103F60000DD06F2806D1B5E073282CD0752875D0F8
:103F7000782874D05A46179990476D1C75E1C4F3A0
:103F80000250022809D003280DD0D9F800100428C7
:103F90000DD00D6009F1040967E1D9F80010EA17A6
:103FA000C1E90052F6E7D9F800100D80F2E70D7074
:103FB000F0E719F8041B8DF8001000208DF80100BF
:103FC000EA46012003E059F804AB4FF0FF306107E7
:103FD0004FF0000102D40DE008F101018846B9421A
:103FE0000FDA8045F8DB1AF808100029F4D108E050
:103FF00008F1010188468142FADB1AF8081000290D
:10400000F6D105985B46A0EB080721463846179A7B
:1040100000F094FA284400EB080507E04DE029E1A0
:104020000DE01AF8010B5A4617999047B8F10108AC
:10403000F7D25B4621463846179A13E142E00A223E
:104040000092C4F302524FF0000A022A08D059F835
:1040500004CB032A4FEAEC710AD00DE029E02AE0F4
:1040600009F1070121F00702F2E802C1914609E0D7
:104070000FFA8CFC4FEAEC71042A03D14FFA8CFC46
:104080004FEAEC71002907DA0A460021DCF1000C46
:1040900061EB02012D2202E0220504D52B228DF8CE
:1040A0000420012203E0E20701D02022F7E7904636
:1040B00059E00A2102E010220DE010214FF0000A21
:1040C00000910BE010224FF0000A44F0040408278E
:1040D000009203E008224FF0000A0092C4F302525B
:1040E000022A05D059F804CB0021032A08D009E0A0
:1040F00009F1070121F00702F2E802C1914605E04B
:104100001FFA8CFC042A01D10CF0FF0C4FF00008C0
:10411000220728D5702806D0009B83F0100353EAAD
:104120000A0305D00EE040228DF80420012208E0A9
:104130005CEA010206D030228DF804208DF80500DB
:1041400002229046009B83F0080353EA0A030AD137
:104150005CEA010201D1620705D530228DF8042006
:104160004FF001087F1E582804D034A003900EA8F9
:1041700002900DE036A0F9E753466046009AFCF73E
:1041800047F884460398825C0298401E02900270B1
:104190005CEA0100F0D1029806A9081A00F1200A91
:1041A000600702D524F4803400E00127574502DD82
:1041B000A7EB0A0000E0002000EB0A010090059840
:1041C0004144401A0590E00306D45B462146179A05
:1041D000059800F0B3F90544002706E001A85A4607
:1041E000C05D179990476D1C7F1C4745F6DBE003C7
:1041F0000CD55B462146179A059800F09FF90544B7
:1042000004E030205A46179990476D1C0099481ECB
:1042100000900029F5DC08E0029802995A460078DF
:10422000491C0291179990476D1CBAF10001AAF13F
:10423000010AF1DC65E10000092801003031323368
:1042400034353637383961626364656600000000D2
:1042500030313233343536373839414243444546BC
:104260000000000000F058F90544761C3078002862
:104270007FF4ECAD19B02846BDE8F08F620700D49A
:10428000062709F1070222F0070CFCE80223E146A9
:1042900003F000485FEA080C02D00FF2702C0DE02A
:1042A0005FEA045C02D50FF2682C07E05FEAC47C89
:1042B00002D00FF2602C01E0AFF2700C4FF0FF382B
:1042C00023F00043CDF850C065280CD006DC45280B
:1042D00009D046281DD047283DD13DE0662818D09A
:1042E00067287ED138E00021112F01DB112000E08A
:1042F000781CCDE9000106A90EA8FFF7DDFCDDE979
:104300000F010E9A03910021009207F1010A049116
:104310004DE04FF000400097CDE9011006A90EA82E
:10432000FFF7CAFCDDE90F0203920E9B11990022F0
:10433000DDF80CA00093049211B9791C00EB010A7E
:10434000B7EB0A0004D4C0F1FF3007F1010A049072
:10435000AAEB0700019044E0012F00DA01270021B9
:10436000112F01DD112000E03846CDE9000106A93A
:104370000EA8FFF7A1FCDDE90F010E9A03910021C1
:1043800004910092BA4621070CD40399514500DAF2
:104390008A46BAF1010F05DD009AAAF10101515CCC
:1043A000302908D0B84202DA10F1040F06DA0121F0
:1043B000CDE9011015E0AAF10101E9E7002805DCCB
:1043C000049901440491AAEB000102E0411C51450B
:1043D00000DD8A460499401A401C01904FF00040CD
:1043E0000290200704D40198504501DBCDF80480E9
:1043F00000208DF84F0002980DF14F07B0F1004FEB
:1044000025D02B200E9002984FF0020800280CDADD
:10441000404202902D200E9007E00A210298FBF7FF
:1044200072FF3031029007F8011DB8F10001A8F1C8
:104430000108F2DC02980028EFD1791E0E9808706E
:10444000307800F0200040F0450007F8020D12A877
:10445000C01B00F107081498007800B1012000EBA0
:104460000A01019801EBE07105984144401A401E91
:104470000590E00306D45B462146179A059800F0A4
:104480005DF805441498007818B15A46179990477A
:104490006D1CE00324D55B462146179A059800F071
:1044A0004DF805441CE00498002807DBDDE9030112
:1044B000884203DD0098405C179901E0179930208D
:1044C0005A469047049805F10105401C0490019854
:1044D000401E019004D12E205A46179990476D1C1A
:1044E000BAF10001AAF1010ADDDC05E017F8010BC1
:1044F0005A46179990476D1CB8F10001A8F10108C0
:10450000F4DC5B462146179A0598ABE62D000000C7
:104510002B000000200000002DE9F041044600259A
:104520001E461746880404D405E039462020B047CB
:104530006D1C641EF9D52846BDE8F0812DE9F041D7
:10454000044600251E469046C80301D5302700E0EA
:104550002027880404D505E041463846B0476D1C45
:10456000641EF9D52846BDE8F0810A68531C0B602B
:104570001070704730B50022084C1046002104EB43
:1045800002135D18187068709860491C187304292C
:10459000F7DB521C082AF1DB30BD00004C00002084
:1045A0000178432901D0562908D141784E2905D1F7
:1045B0008178422902D1C17852290AD00A21425C6D
:1045C000303A0A2A01D300207047491C1629F6DD2B
:1045D00070470120704700000649002001EB0012DF
:1045E000127B22B1401C0828F8DBFF207047C0B2C4
:1045F000704700004C00002004490A681206FCD5F0
:10460000024AC1B20C321160704700001C380140F0
:1046100070B5094D0646002405EB0411042230460E
:10462000491CFBF74EFE20B1641C082CF4DBFF2074
:1046300070BDE0B270BD00004C0000202DED028B7B
:10464000FCF77CFAFEF7E0FBFEF760F9FEF7C8F92D
:10465000FEF716FAFEF724F80020FDF769FF0020A8
:10466000FEF778F84FF6FF70FEF788F8FCF7CAF807
:10467000FFF780FF56A0FFF7DBFA04215748FDF74C
:10468000EFF9564F4FF000083968C1F83880DFF86D
:104690005491534D4FF07C5AB6EE008A4FF090463D
:1046A000A9F10C04162250495048FDF779FC01216C
:1046B0002846FCF72BFA78B94DA0FFF7B9FA0A2083
:1046C000FCF72EF901212846FCF720FA0028F9D042
:1046D000E07838B10020E07002212846FCF716FA95
:1046E00010B11BE00120F6E744A0FFF7A1FA0A2071
:1046F000FCF716F902212846FCF708FA0028F9D041
:10470000E07858B199ED000A30EE080A89ED000A08
:1047100099ED010A30EE080A89ED010A04212846C4
:10472000FCF7F4F9F8B938A0FFF782FA0A20FCF791
:10473000F7F804212846FCF7E9F90028F9D0E078D9
:1047400088B199ED010A484610EE101A514502D180
:1047500089ED018A10E0D0ED000A10EE901A514563
:1047600002D189ED008A07E070EEC80A30EE480AEF
:10477000C0ED000A89ED010A01213046FCF7C6F9B7
:10478000A0B924A0FFF754FA0A20FCF7C9F80121C8
:104790003046FCF7BBF90028F9D0207958B1002049
:1047A000207150B110B1C82039688863E07830B109
:1047B000012809D106E00120F2E74046F4E7FDF7C1
:1047C000EFFD01E0FDF738FEFEF770F86AE7000044
:1047D0005553415254204F4B210D0A001001002027
:1047E0000004004814000020340000205C01002078
:1047F000423120446F776E0D0A000000423220449F
:104800006F776E0D0A000000423320446F776E0D03
:104810000A000000423420446F776E0D0A00000049
:104820000000000000000000000000000000000088
:104830000000000000000000000000000000000078
:104840000000000000000000000000000000000068
:1048500000008001800180018001800180018001D1
:104860008001800180018001800180010000000042
:104870008001800100000000000000000000000036
:1048800000000000CC00CC00CC00CC00CC00CC0060
:104890000000000000000000000000000000000018
:1048A0000000000000000000000000000000000008
:1048B000000000000000000000000000600C600C20
:1048C000600C30063006FE1FFE1F30063807180346
:1048D000FE1FFE1F180318038C018C018C010000C1
:1048E00000008000E003F80F9C0E8C1C8C188C00DC
:1048F0009800F801E007800E801C8C188C189C181A
:10490000B80CF00FE0038000800000000000000001
:104910000000000000000E181B0C110C11061106FF
:10492000110311039B018E01C038C06C60446044C8
:10493000304430441844186C0C380000000000006B
:104940000000E001F0033807180618063003F001F4
:10495000F000F8009C310E33061E061C061C063FB4
:10496000FC73F021000000000000000000000000C7
:10497000000000000C000C000C000C000C000C00EF
:104980000000000000000000000000000000000027
:104990000000000000000000000000000000000017
:1049A0000000000200038001C000C0006000600041
:1049B0003000300030003000300030003000300077
:1049C00060006000C000C000800100030002000021
:1049D000000020006000C00080018001000300038F
:1049E0000006000600060006000600060006000697
:1049F0000003000380018001C0006000200000006F
:104A0000000000000000000000000000C000C00026
:104A1000D806F807E0013003380700000000000066
:104A20000000000000000000000000000000000086
:104A30000000000000000000000000008001800174
:104A4000800180018001FC3FFC3F800180018001EA
:104A50008001800100000000000000000000000054
:104A60000000000000000000000000000000000046
:104A70000000000000000000000000000000000036
:104A800000008001800100010001800000000000A2
:104A90000000000000000000000000000000000016
:104AA0000000000000000000E007E0070000000038
:104AB00000000000000000000000000000000000F6
:104AC00000000000000000000000000000000000E6
:104AD00000000000000000000000000000000000D6
:104AE0000000C000C0000000000000000000000046
:104AF0000000000C000C0006000600060003000386
:104B000000038003800180018001C000C000C0005C
:104B100060006000000000000000000000000000D5
:104B20000000E003F007380E180C0C180C180C18D5
:104B30000C180C180C180C180C180C18180C380E33
:104B4000F007E0030000000000000000000000008B
:104B5000000000018001C001F0019801880180017E
:104B6000800180018001800180018001800180013D
:104B70008001800100000000000000000000000033
:104B80000000E003F80F180C0C180C18001800189F
:104B9000000C000600038001C00060003000180017
:104BA000FC1FFC1F000000000000000000000000CF
:104BB0000000E001F807180E0C0C0C0C000C0006AD
:104BC000C003C007000C001800180C180C18180CB3
:104BD000F807E003000000000000000000000000F3
:104BE0000000000C000E000F000F800DC00C600CC8
:104BF000600C300C180C0C0CFC3FFC3F000C000C43
:104C0000000C000C0000000000000000000000008C
:104C10000000F80FF80F180018000C00EC03FC0758
:104C20001C0E001C0018001800180C181C0C180E84
:104C3000F807E00300000000000000000000000092
:104C40000000C007F00F381C181818000C00CC0327
:104C5000EC0F3C0E1C1C0C180C180C18181C380EF1
:104C6000F007E0030000000000000000000000006A
:104C70000000FC1FFC1F000C000600060003800360
:104C80008001C001C000E0006000600070003000E2
:104C900030003000000000000000000000000000B4
:104CA0000000E003F007380E180C180C180C38063A
:104CB000F007F007180C0C180C180C180C18380C0E
:104CC000F80FE003000000000000000000000000FA
:104CD0000000E003F007380E1C0C0C180C180C1820
:104CE0001C1C381EF81BE0190018000C000C1C0ED0
:104CF000F807F001000000000000000000000000C4
:104D000000000000000000000000000080018001A1
:104D10000000000000000000000000000000000093
:104D20008001800100000000000000000000000081
:104D30000000000000000000000000008001800171
:104D40000000000000000000000000000000000063
:104D500080018001000100018000000000000000CF
:104D60000000000000000000000000000000000043
:104D70000010001C800FE003F8001800F800E003AA
:104D8000800F001C00100000000000000000000068
:104D90000000000000000000000000000000000013
:104DA000F81F000000000000F81F000000000000D5
:104DB00000000000000000000000000000000000F3
:104DC00000000000000000000000000000000000E3
:104DD00008003800F001C007001F0018001FC007BE
:104DE000F001380008000000000000000000000092
:104DF0000000E003F80F180C0C180C180018000C39
:104E0000000600038001C000C000C00000000000D8
:104E1000C000C00000000000000000000000000012
:104E200000000000E00718180420C229224A11449B
:104E300009440944094409221113E20C02400420E8
:104E40001818E0070000000000000000000000004B
:104E5000000080038003C006C006C006600C600C22
:104E6000301830183018F83FF83F1C700C600C6098
:104E700006C006C0000000000000000000000000A6
:104E80000000FC03FC0F0C0C0C180C180C180C0C7C
:104E9000FC07FC0F0C180C300C300C300C300C18CC
:104EA000FC1FFC07000000000000000000000000E4
:104EB0000000C007F01F38381C300C700660060078
:104EC0000600060006000600060006600C701C3096
:104ED000F01FE007000000000000000000000000DC
:104EE0000000FE03FE0F060E0618061806300630F8
:104EF0000630063006300630063006180618060E54
:104F0000FE0FFE0300000000000000000000000093
:104F10000000FC3FFC3F0C000C000C000C000C00DF
:104F2000FC1FFC1F0C000C000C000C000C000C0003
:104F3000FC3FFC3F000000000000000000000000FB
:104F40000000F83FF83F180018001800180018007B
:104F5000F81FF81F18001800180018001800180093
:104F60001800180000000000000000000000000011
:104F70000000E00FF83F3C780E6006E007C0030039
:104F8000030003FE03FE03C007C006C00EC03CF0D2
:104F9000F83FE00F000000000000000000000000EB
:104FA00000000C300C300C300C300C300C300C305D
:104FB000FC3FFC3F0C300C300C300C300C300C3013
:104FC0000C300C3000000000000000000000000069
:104FD000000080018001800180018001800180014A
:104FE00080018001800180018001800180018001B9
:104FF00080018001000000000000000000000000AF
:105000000000000600060006000600060006000676
:1050100000060006000600060006180618063807F7
:10502000F003E001000000000000000000000000AC
:10503000000006300618060C060606038601C600A8
:1050400066007600DE008E0106030606060C0618D2
:1050500006300660000000000000000000000000B4
:105060000000180018001800180018001800180098
:105070001800180018001800180018001800180070
:10508000F81FF81F000000000000000000000000F2
:1050900000000EE01EF01EF01EF036D836D836D8CE
:1050A00036D866CC66CC66CCC6C6C6C6C6C6C6C62C
:1050B00086C386C30000000000000000000000005E
:1050C00000000C301C303C303C306C306C30CC304C
:1050D000CC308C310C330C330C360C360C3C0C3C85
:1050E0000C380C3000000000000000000000000040
:1050F0000000E007F81F1C380E70066003C003C0F4
:1051000003C003C003C003C003C006600E701C3898
:10511000F81FE00700000000000000000000000091
:105120000000FC0FFC1F0C380C300C300C300C3025
:105130000C18FC1FFC070C000C000C000C000C00F1
:105140000C000C0000000000000000000000000047
:105150000000E007F81F1C380E70066003E003C073
:1051600003C003C003C003C007E006630E3F1C3C3E
:10517000F83FE0F700C00000000000000000000061
:105180000000FE0FFE1F06380630063006300638D7
:10519000FE1FFE0706030606060C06180618063054
:1051A0000630066000000000000000000000000063
:1051B0000000E003F80F1C0C0C180C180C001C006D
:1051C000F803E00F001E0038063006300E301C1CBD
:1051D000F80FE007000000000000000000000000E1
:1051E0000000FE7FFE7F8001800180018001800140
:1051F00080018001800180018001800180018001A7
:10520000800180010000000000000000000000009C
:1052100000000C300C300C300C300C300C300C30EA
:105220000C300C300C300C300C300C300C301818AA
:10523000F81FE00700000000000000000000000070
:10524000000003600630063006300C180C180C18ED
:10525000180C180C380E3006300670076003600317
:10526000C001C001000000000000000000000000BC
:1052700000000360C361C361C36166336633663394
:105280006633663366336C1B6C1B6C1B2C1A3C1E1E
:10529000380E380E00000000000000000000000082
:1052A00000000FE00C7018303018700C600EC00752
:1052B00080038003C003E006700C301C18180C300B
:1052C0000E6007E000000000000000000000000089
:1052D000000003C006600C301C383818300C600623
:1052E000E007C0038001800180018001800180010E
:1052F00080018001000000000000000000000000AC
:105300000000FC7FFC7F006000300018000C0006ED
:1053100000038001C0006000300018000C0006008F
:10532000FE7FFE7F00000000000000000000000083
:105330000000E003E00360006000600060006000C7
:10534000600060006000600060006000600060005D
:1053500060006000600060006000E003E0030000A7
:10536000000030003000600060006000C000C0003D
:10537000C000C00180018001800100030003000320
:105380000006000600000000000000000000000011
:105390000000E003E0030003000300030003000338
:1053A00000030003000300030003000300030003E5
:1053B00000030003000300030003E003E003000018
:1053C00000000000C001C0016003600360033006FC
:1053D0003006180C180C000000000000000000004F
:1053E00000000000000000000000000000000000BD
:1053F00000000000000000000000000000000000AD
:10540000000000000000000000000000000000009C
:105410000000FFFFFFFF0000000000000000000090
:1054200000000C000C000C000C000C000C00000034
:10543000000000000000000000000000000000006C
:10544000000000000000000000000000000000005C
:10545000000000000000000000000000F003F8075A
:105460001C0C0C0C000FF00FF80C0C0C0C0C1C0F8F
:10547000F80FF0180000000000000000000000001D
:10548000000018001800180018001800D803F80FC2
:10549000380C181818181818181818181818380C64
:1054A000F80FD8030000000000000000000000001A
:1054B000000000000000000000000000C003F00732
:1054C000300E180C1800180018001800180C300EB8
:1054D000F007C00300000000000000000000000012
:1054E000000000180018001800180018C01BF01F5A
:1054F000301C181818181818181818181818301CF4
:10550000F01FC01B000000000000000000000000B1
:10551000000000000000000000000000C003F00FC9
:10552000300C1818F81FF81F180018003818301C15
:10553000F00FC007000000000000000000000000A5
:105540000000800FC00FC000C000C000F007F007CF
:10555000C000C000C000C000C000C000C000C0004B
:10556000C000C000000000000000000000000000BB
:10557000000000000000000000000000E00DF80F37
:10558000180E0C0C0C0C0C0C0C0C0C0C0C0C180E3F
:10559000F80FE00D000C0C0C1C06F807F0010000E1
:1055A000000018001800180018001800D807F80F9D
:1055B000381C181818181818181818181818181847
:1055C000181818180000000000000000000000007B
:1055D0000000C000C000000000000000C000C000CB
:1055E000C000C000C000C000C000C000C000C000BB
:1055F000C000C0000000000000000000000000002B
:105600000000C000C000000000000000C000C0009A
:10561000C000C000C000C000C000C000C000C0008A
:10562000C000C000C000C000C000F800780000004A
:1056300000000C000C000C000C000C000C0C0C0604
:105640000C038C01CC006C00FC009C018C030C034F
:105650000C060C0C00000000000000000000000020
:105660000000C000C000C000C000C000C000C000FA
:10567000C000C000C000C000C000C000C000C0002A
:10568000C000C0000000000000000000000000009A
:105690000000000000000000000000007C3CFF7ED5
:1056A000C7E383C183C183C183C183C183C183C174
:1056B00083C183C100000000000000000000000062
:1056C0000000000000000000000000009807F80F34
:1056D000381C181818181818181818181818181826
:1056E000181818180000000000000000000000005A
:1056F000000000000000000000000000C003F00FE8
:10570000300C181818181818181818181818300C01
:10571000F00FC003000000000000000000000000C7
:10572000000000000000000000000000D803F80F97
:10573000380C181818181818181818181818380CC1
:10574000F80FD803180018001800180018000000FF
:10575000000000000000000000000000C01BF01F5F
:10576000301C181818181818181818181818301C81
:10577000F01FC01B001800180018001800180000C7
:10578000000000000000000000000000B007F0036F
:105790007000300030003000300030003000300049
:1057A0003000300000000000000000000000000099
:1057B000000000000000000000000000E003F00313
:1057C000380E180C3800F003C007000C180C380E07
:1057D000F007E003000000000000000000000000EF
:1057E000000000008000C000C000C000F007F0070B
:1057F000C000C000C000C000C000C000C000C000A9
:10580000C00780070000000000000000000000004A
:105810000000000000000000000000001818181828
:105820001818181818181818181818181818381CD4
:10583000F01FE01900000000000000000000000060
:105840000000000000000000000000000C18180C10
:10585000180C180C30063006300660036003600335
:10586000C001C001000000000000000000000000B6
:10587000000000000000000000000000C141C14124
:10588000C3616363636363633636363636361C1C26
:105890001C1C1C1C00000000000000000000000098
:1058A0000000000000000000000000001C38381C50
:1058B000300C600660036003600360036006300C18
:1058C000381C1C3800000000000000000000000030
:1058D0000000000000000000000000001830301838
:1058E00030187018600C600CE00CC006C006800315
:1058F0008003800380018001C001F000700000007F
:10590000000000000000000000000000FC1FFC1F61
:10591000000C000600038001C00060003000180089
:10592000FC1FFC1F00000000000000000000000041
:10593000000000038001C000C000C000C000C00023
:10594000C00060006000300060004000C000C00087
:10595000C000C000C000C0008001000300000000C3
:1059600000008001800180018001800180018001B0
:10597000800180018001800180018001800180011F
:105980008001800180018001800180018001000090
:1059900000006000C000C001800180018001800122
:1059A0008001000300030006000300018001800164
:1059B0008001800180018001C000600000000000C3
:1059C00000000000000000000000000000000000D7
:1059D000F010F81F080F0000000000000000000099
:1059E00000000000000000000000000000000000B7
:1059F000010002000400060008000A000C0010006C
:105A000020004000800000010101010307010000A7
:105A10000804020408010101000000000000000069
:105A20000102030406070809000000000102030444
:105A3000505A00080000002034000000983C000884
:105A4000845A000834000020BC050000A83C00086F
:105A50000000FFFF00000000000000000000000048
:105A60000000000000006040000000400000000056
:105A70001000000001000000000000000024F400FD
:045A80000000000022
:04000005080001D915
:00000001FF
