:020000040800F2
:10000000A8050020ED010008091A00080B1A0008D5
:100010000D1A00080F1A0008111A0008000000004D
:10002000000000000000000000000000131A00089B
:10003000151A000800000000171A0008191A000815
:10004000070200080702000807020008070200086C
:10005000070200080702000807020008070200085C
:10006000070200080702000807020008070200084C
:10007000070200080702000807020008070200083C
:10008000070200080000000007020008070200083D
:10009000070200080702000807020008070200081C
:1000A000070200081D1A00080702000807020008DE
:1000B00007020008070200080702000807020008FC
:1000C00007020008070200080702000807020008EC
:1000D00007020008231A00080702000807020008A8
:1000E00007020008070200080702000807020008CC
:1000F00007020008070200080702000800000000CD
:1001000000000000070200080000000007020008CD
:1001100007020008000000000702000807020008AC
:10012000070200080702000807020008070200088B
:10013000070200080000000000000000070200089D
:10014000070200080702000800000000000000008D
:10015000000000000000000000000000000000009F
:10016000000000000000000000000000070200087E
:10017000070200080000000000000000000000006E
:10018000000000000702000800000000000000005E
:10019000000000000000000000000000000000005F
:1001A000000000000000000007020008070200082D
:1001B000070200080702000807020008000000000C
:1001C000000000000702000800000000000000001E
:1001D0000702000807020008DFF80CD00BF03EF819
:1001E000004800477B150008A80500200648804706
:1001F00006480047FEE7FEE7FEE7FEE7FEE7FEE70C
:10020000FEE7FEE7FEE7FEE745AD0008D90100087E
:10021000002240F6B83306E00021491C89B2994219
:10022000FBD3521C92B28242F6D37047FE4B10B5FC
:100230001A6842F400721A601A6842F480721A60F6
:10024000F94A103A146844F020041460F74C206016
:10025000186840F02000186000BF00BF00BF1068A1
:1002600040F020001060106840F480701060216041
:10027000186840F02000186000BF00BF00BF106881
:1002800040F020001060106840F48070106010BDD5
:1002900030B501210020FFF7C9FF4FF47A70FFF756
:1002A000B7FF00210120FFF7C1FF41F2907110203C
:1002B000FFF7BCFF4FF41C516020FFF7B7FF01218F
:1002C0006120FFF7B3FF02214620FFF7AFFF48F29E
:1002D00010011320FFF7AAFF48F2FE011220FFF7DA
:1002E000A5FF4FF4A0610220FFF7A0FF41F230010B
:1002F0000320FFF79BFF40F2033421463020FFF735
:1003000095FF21463120FFF791FF21463220FFF76C
:100310008DFFE51E29463320FFF788FF0321342097
:10032000FFF784FF21463520FFF780FF1421362098
:10033000FFF77CFF21463720FFF778FF2146382062
:10034000FFF774FF21463920FFF770FF29463A2056
:10035000FFF76CFF03213B20FFF768FF21463C209D
:10036000FFF764FF4FF4A0513D20FFF75FFF4FF40C
:1003700000719220FFF75AFF21469320FFF756FFA6
:1003800040F60D019020FFF751FF41F218010320C4
:10039000FFF74CFFBDE8304040F27311072045E7FE
:1003A00010B543F20801E320FFF740FF1221E720D8
:1003B000FFF73CFF41F23121EF20FFF737FF00212B
:1003C0000120FFF733FF4FF4E0610220FFF72EFF1B
:1003D00041F230010320FFF729FF00210420FFF73D
:1003E00025FF40F207210820FFF720FF0021092008
:1003F000FFF71CFF00210A20FFF718FF00210C2047
:10040000FFF714FF00210D20FFF710FF00210F2040
:10041000FFF70CFF00211020FFF708FF0721112034
:10042000FFF704FF00211220FFF700FF0021132037
:10043000FFF7FCFEC82006F066FC41F29061102038
:10044000FFF7F4FE40F227211120FFF7EFFE3220E4
:1004500006F059FC1D211220FFF7E8FE322006F0BD
:1004600052FC4FF400611320FFF7E0FE1421292015
:10047000FFF7DCFE0B212B20FFF7D8FE322006F021
:1004800042FC00212020FFF7D1FE00212120FFF7B0
:10049000CDFE07213020FFF7C9FE40F20771312061
:1004A000FFF7C4FE06213220FFF7C0FE40F20471C0
:1004B0003520FFF7BBFE41F604713620FFF7B6FE8C
:1004C00004213720FFF7B2FE00213820FFF7AEFEEF
:1004D00040F206713920FFF7A9FE40F201713C207D
:1004E000FFF7A4FE0F213D20FFF7A0FE00215020C2
:1004F000FFF79CFEEF215120FFF798FE00215220CC
:10050000FFF794FE40F23F115320FFF78FFE4FF4A8
:100510001C516020FFF78AFE01216120FFF786FE53
:1005200000216A20FFF782FE00218020FFF77EFE77
:1005300000218120FFF77AFE00218220FFF776FE5E
:1005400000218320FFF772FE00218420FFF76EFE5A
:1005500000218520FFF76AFE10219020FFF766FE3C
:1005600000219220FFF762FE03219320FFF75EFE39
:100570004FF488719520FFF759FE00219720FFF76F
:1005800055FE00219820FFF751FE41F2180103208B
:10059000FFF74CFEBDE8104040F27311072045E61E
:1005A00000B585B0142168460AF04CFC4FF6FF7088
:1005B00000900120019003200390002002901B482E
:1005C0006946143807F04AFD05B000BD00B585B096
:1005D000142168460AF036FC4FF6FF7000900020A8
:1005E00003210190CDE9020110486946143807F053
:1005F00035FDE9E770B50C490A6842F400720A60FB
:100600000A6842F480720A60074C103C226842F08B
:1006100020022260054A1060086840F0200008604F
:1006200000BF00BF00BF03E02804004814080048D2
:10063000206840F020002060206840F48070206036
:10064000FFF7C4FF4FF09041886A40F480708862E1
:1006500000BF00BF00BFFE48006885B2886940F453
:1006600080708861FFF79CFF206840F40070206074
:10067000284670BD30B587B0142168460AF0E2FB09
:10068000F448C16C41F00401C164C16C01F0040183
:100690000591C16C41F00101C164C16C01F001011F
:1006A0000591C16C41F00201C164C06C012500F0EC
:1006B000020005904FF44870CDE900050024039432
:1006C00069460294E44807F0C9FC280203940090AC
:1006D000CDE901544FF090446946204607F0BEFC36
:1006E000FFF75EFFA16941F48071A161DA4818301B
:1006F000016841F40871016007B030BD10B5FFF723
:10070000B9FF0020FFF776FFD44CA080A088A0F5A9
:100710000241303906D0FFF743FE0020FFF76AFFA1
:10072000A08010BDFFF7B4FDF7E701B5BDF80000EC
:10073000CA49088008BD01B5BDF80000C749488016
:1007400008BD10B50C4601462020FFF76FFD21467D
:10075000BDE81040212069E5BF4A2832116841F404
:1007600000711160BC4918310B6843F480730B6051
:100770000B6843F020030B60B54B1B1D186010681D
:1007800040F02000106000BF00BF00BF086840F0CC
:1007900020000860086840F48070086000BF00BF57
:1007A00000BF086840F4007008607047AA4928310B
:1007B000086840F400700860086840F480700860C1
:1007C000A5481830026842F020020260A04B2222A5
:1007D0001B1D1A600A6842F020020A6000BF00BFB9
:1007E00000BF016841F020010160016841F480719F
:1007F000016000BF00BF00BF016841F400710160EB
:1008000070472DE9F0439046894606460025FFF7DC
:1008100098FF4FF0010C914FFFF7C8FF002438F804
:1008200015000CFA04F1084201D1788800E03888FC
:10083000FFF792FF641C102CF1D3761CF6B24946E8
:100840003046FFF77EFF6D1C182DE5D3BDE8F08321
:10085000203AD2B2824B02EB420203EB0212D0E703
:10086000F0B50D460746002440F23F1607E031463A
:100870003846FFF7EDFF103E641CB6B26D1C2A78B7
:10088000002A01D0142CF2D3F0BD76A1E8E770B5B0
:100890000024064621462046FFF753FFFFF786FF58
:1008A0004FF496353046FFF757FF641CAC42F9D33E
:1008B00070BD70B51D460E460446904203D3A01A83
:1008C000401C81B200E000215020FFF7AFFC214620
:1008D0005120FFF7ABFCAE4203D3701B401C81B22A
:1008E00000E000215220FFF7A1FC31465320FFF722
:1008F0009DFC31462046BDE8704022E700B54FF42C
:10090000A073F022591EEF20FFF7D3FF41F2180128
:1009100003205DF804EB89E4F0B51F4616468C46CB
:1009200005460024FFF70DFF3B004C4F15D1FFF7A4
:100930003DFF03E03888FFF70FFF641CB442F9D392
:10094000F0BDFFF733FF3888FFF706FF6D1CEDB2EF
:1009500061462846FFF7F5FE641CB442F1D3F0BDB2
:10096000F0B51E4614460F46054600233246FFF7F3
:10097000D3FF2819C0B2002332463946FFF7CCFF17
:100980000123224639462846FFF7C6FFB81B401C04
:1009900081B222462846BDE8F0400123BCE72DE99C
:1009A000F04F804603208C46A0EB420600241546FB
:1009B0008BE00CEB050B08EB04091FFA8BF109F037
:1009C000FF00FFF7BEFEFFF7F1FE244F3888FFF768
:1009D000C3FEACEB050A1FFA8AF109F0FF00FFF72E
:1009E000B0FEFFF7E3FE3888FFF7B6FEA8EB040978
:1009F0001FFA8BF109F0FF00FFF7A3FEFFF7D6FE09
:100A00003888FFF7A9FE1FFA8AF109F0FF00FFF707
:100A100098FEFFF7CBFE3888FFF79EFE0CEB040B29
:100A200008EB05091FFA8BF109F0FF00FFF789FEBB
:100A3000FFF7BCFE3888FFF78FFEACEB040A1FFA05
:100A40008AF109F0FF00FFF77CFEFFF7AFFE15E02B
:100A50001008004800100240000400480000002078
:100A600084BC0008202020202020202020202020BE
:100A70002020202020202020000000003888FFF7C0
:100A80006BFEA8EB05091FFA8BF109F0FF00FFF7D9
:100A900058FEFFF78BFE3888FFF75EFE1FFA8AF1DB
:100AA00009F0FF00FFF74DFEFFF780FE3888FFF7E3
:100AB00053FE002E03DA06EB8406B61D04E0601B2D
:100AC00006EB80066D1E0A36641CAC427FF671AFE1
:100AD000BDE8F08F2DE9F0418446002540F23F113A
:100AE0002846FFF72EFEFFF761FE684E01274FF400
:100AF000166800245CF8250007FA04F1084201D1C9
:100B0000708800E03088FFF727FE641C202CF1D3AA
:100B10006D1C4545EDD3BDE8F08170B541888288F4
:100B200041EA02424189838941EA0341521A441849
:100B3000560841F208010320FFF778FBFFF736FE65
:100B4000002504E02088FFF707FEA41C6D1CB542B9
:100B5000F8D3BDE8704041F218010320FFF766BBEF
:100B600070B54B48016841F400710160016841F4BF
:100B700080710160464C103C216841F020012160E9
:100B8000444A22211160016841F02001016000BF48
:100B900000BF00BF206840F020002060206840F4C3
:100BA00080702060FFF712FD4FF09041886A40F49A
:100BB0008070886200BF00BF00BF3648001F006819
:100BC00085B2886940F480708861FFF7E9FC20688D
:100BD00040F400702060284670BD00B50021102050
:100BE000FFF724FB00211120FFF720FB002112203A
:100BF000FFF71CFB00211320FFF718FB1420FFF761
:100C000007FB41F2B0711020FFF710FB40F23711E3
:100C10001120FFF70BFB0520FFF7FAFA40F239111C
:100C20001220FFF703FB0520FFF7F2FA4FF4E8511B
:100C30001320FFF7FBFA13212920FFF7F7FA05200D
:100C4000FFF7E6FA40F2731107205DF804EBFFF7B7
:100C5000EDBA40F273110720FFF7E8BA0021072030
:100C6000FFF7E4BA70B5054600210846FFF769FDB5
:100C7000FFF79CFD00244FF4963605EB44000088F6
:100C8000FFF76AFD641CB442F7DB70BD0000002072
:100C9000280400481408004800B585B014216846AF
:100CA0000AF0D0F8802000900020019001200290EE
:100CB000022003906946B14807F0D0F905B000BDA5
:100CC00000B585B0142168460AF0BCF88020009079
:100CD0001120019000200290022003906946A7484D
:100CE00007F0BCF9EAE710B1A448183001E0A348C6
:100CF0002830016841F080010160704710B19F48C1
:100D0000183001E09D482830016841F04001016041
:100D1000704710B58021994807F0D4FA012800D017
:100D2000002010BD10B50120FFF7DDFF142000F0FA
:100D30001FF90120FFF7E2FF142000F019F900204D
:100D4000FFF7D1FF142000F013F90020FFF7D6FFC2
:100D5000BDE81040142000F00BB910B50020FFF7DB
:100D6000CDFF142000F004F90020FFF7BCFF142091
:100D700000F0FEF80120FFF7C1FF142000F0F8F8A2
:100D80000120FFF7B0FFBDE81040142000F0F0B8DC
:100D900010B50524FFF780FF142000F0E9F80120CA
:100DA000FFF7ACFF142000F0E3F805E0641EA4B2E6
:100DB000142000F0DDF86CB1FFF7ABFF0028F5D18F
:100DC000FFF77EFF0020FFF799FF142000F0D0F816
:100DD000002010BDFFF774FFFFF7BFFF012010BD1B
:100DE00010B50020FFF77FFF142000F0C1F8142099
:100DF00000F0BEF80120FFF781FF142000F0B8F8E2
:100E00000020FFF77BFFBDE81040142000F0B0B8D1
:100E100010B50120FFF767FF142000F0A9F8142097
:100E200000F0A6F80120FFF769FF142000F0A0F8F9
:100E30000020FFF763FFBDE81040142000F098B8D1
:100E400070B50546082416E0FFF758FF142000F09F
:100E50008FF805F08000FFF746FF142000F088F8B7
:100E60006806050E142000F083F80120FFF746FF06
:100E7000142000F07DF8641EE4B24FF00000E3D2CD
:100E8000FFF73CFFBDE87040142000F071B870B56A
:100E900008240025FFF700FF14E06806060E002076
:100EA000FFF72CFF142000F063F8142000F060F826
:100EB0000120FFF723FF142000F05AF8FFF729FF65
:100EC00040EA0605641EE4B2E7D20020FFF716FFF1
:100ED000142000F04DF8FFF7F3FE284670BD00B572
:100EE00085B01421684609F0ADFFC02000900120B4
:100EF00001900290022003906946204807F0AEF866
:100F0000DCE670B50D460446FFF70CFFA020FFF7A6
:100F100097FFFFF73DFF2046FFF792FFFFF738FFEF
:100F20002846FFF78DFFFFF733FFBDE8704014E759
:100F300010B50446FFF7F6FEA020FFF781FFFFF78C
:100F400027FF2046FFF77CFFFFF722FFFFF705FF93
:100F5000FFF7E8FEA120FFF773FFFFF719FFFFF788
:100F600096FF0446FFF754FFFFF7F7FE204610BD3B
:100F7000002100E0491C8142FCD370470004004876
:100F8000FA490A681206FCD5F84AC1B20C3211605F
:100F9000704710B501224FF47F41F54807F097F9EB
:100FA000F44C01220421204607F091F9204600224A
:100FB000BDE81040042107F08AB910B5EC4C0022BE
:100FC0004FF48071204607F082F901224FF47E41F0
:100FD000204607F07CF9E74C01220421204607F067
:100FE00076F920460022BDE81040042107F06FB9D1
:100FF00070B5E14CDE4D4FF40071E27812B1012A78
:1010000006D101E0012200E00022284607F05FF946
:10101000A0784FF0010210B14FF47C4101E04FF491
:101020007D41284607F053F9D24C01220421204685
:1010300007F04DF92046BDE870400022042107F07A
:1010400046B9CE480021B7EE000A8180C1800A214E
:101050000180418080ED020A80ED030A704710B5DF
:10106000C7A11820FFF7FCFBC44CCBA104F1100072
:10107000A2880AF085F904F110014820FFF7F0FB7F
:10108000E288CAA104F110000AF07AF904F1100113
:10109000BDE810406020FFF7E3BB10B5C8A11820E1
:1010A000FFF7DEFBB54CA06809F0D7FE41EC100B52
:1010B000C9A153EC102B04F110000AF061F904F1FE
:1010C00010014820FFF7CCFBE06809F0C6FE41ECB8
:1010D000100BC6A153EC102B04F110000AF050F9CC
:1010E00004F11001BDE810406020FFF7B9BB10B556
:1010F000C3A11820FFF7B4FBA04CA7A104F1100076
:1011000022880AF03DF904F110014820FFF7A8FBFE
:101110006288A6A104F110000AF032F904F110016E
:10112000BDE810406020FFF79BBB70B5924C0025D6
:10113000A078A0B1B84E962031688863FFF73DFFD4
:10114000A088401E0004000CA08008D1A5704FF4B8
:10115000FA70A080FFF71DFF316819208863874867
:10116000018809B9408818B1E570BDE870403FE7D3
:101170006078401E10F0FF00607007D1E07830B159
:101180000020E070FFF734FF0A20607070BD01207E
:10119000F7E77CB57948423000783F2811D1774E87
:1011A000F06809F05AFE04460D46B06809F055FE95
:1011B00041EC100B99A053EC102BCDE900450AF03F
:1011C000CFF802B06D49BDE8704001224231984825
:1011D00008F0C8BC10B500202DED028BFFF7A8FE6B
:1011E000664C20800120FFF7A3FE60800220FFF7FD
:1011F0009FFE00EE100AB2EE048A0320B8EE400A09
:10120000C0EE080AC4ED020AFFF792FE00EE100AD3
:10121000B8EE400AC0EE080AC4ED030ABDEC028B2A
:1012200010BD2DE9F043834F01212DED048B83B0D8
:10123000384607F047F8504E002578B97EA00AF0EE
:101240008FF83078401CC0B23070032800D1357060
:101250000121384607F036F80028F9D00221384637
:1012600007F030F84FF08049B7EE008A4FF00A08D7
:10127000B2EE049ADFED738A404C80BB72A00AF094
:101280006FF8307820B101280BD0022821D12CE052
:10129000A0882188884201D1A5801AE0401CA08046
:1012A00017E094ED020A10EE100A484503DB84EDC6
:1012B000028A41460AE030EE280A84ED020A20EE56
:1012C000090ABCEEC00A10EE100AC1B20220FFF7F4
:1012D00018FE0221384606F0F5FF0028F9D0042157
:1012E000384606F0EFFF30B136E02088401C208001
:1012F000C1B20020EBE757A00AF032F8307820B1F5
:1013000001280BD0022821D1B0E0E0886188884212
:1013100001D1E5801AE0401CE08017E094ED030A5B
:1013200010EE100A484503DB84ED038A41460AE0CB
:1013300030EE280A84ED030A20EE090ABCEEC00A4A
:1013400010EE100AC1B20320FFF7DBFD042138467E
:1013500006F0B8FF0028F9D04FF090490121484627
:1013600006F0B0FF002800D17AE0C0E01C38014050
:1013700000080048000C0048080000202800002059
:10138000202020202020202053484F5020202020A3
:1013900020202020200000002020202020583A2556
:1013A0006420202020202020000000002020202079
:1013B00020593A2564202020202020200000000011
:1013C000202020202020202050524943452020204A
:1013D00020202020202000002020202020583A25F6
:1013E000302E3166202020202020200020202020A8
:1013F00020593A25302E3166202020202020200040
:101400002020202020202020524550202020202055
:101410002020202000000000CC000020583A253079
:101420002E31662C593A25302E31660D0A00000007
:10143000180100200004004842315F446F776E219C
:101440000D0A0000CDCCCC3D42325F446F776E2157
:101450000D0A000042335F446F776E210D0A0000D1
:1014600068A009F07DFF307830B139E06088401C19
:101470006080C1B2012067E70121B1702088A18896
:10148000B046401A20806188E288891A6180C1B222
:101490000020FFF736FDA788D4ED020A00EE107A8F
:1014A000E68894ED031AB8EE400A20EE200A00EE1A
:1014B000906AF8EE600A00EE810A88ED020A10EEEA
:1014C000100A09F0CAFCCDE900013246394650A0A5
:1014D00009F046FFA580E580A1780120FFF711FD06
:1014E0004C460121204606F0EDFE0028F9D003B05D
:1014F000BDEC048BBDE8F08372B6FEE730B5A5B055
:101500003821684609F09EFC14211FA809F09AFCB6
:1015100044210EA809F096FC4FF4007005F06CF819
:1015200001252804CDE9005002200324CDE9070459
:101530001421CDE90A100C900D900994684605F02D
:10154000F2FC08B172B6FEE70F20CDE91F040024BB
:101550002194229402211FA8239405F019FF08B1B9
:1015600072B6FEE7CDE90E540EA806F0DBF80028AF
:1015700001D072B6FEE725B030BD05F083FBFFF762
:10158000BDFF00F05FF800F0D9F800F02DF900F091
:10159000BBF9FFF7A4FCFFF7B1F80020FFF777F9DC
:1015A0000020FFF7C8F84FF6FF70FFF7BEF8FFF70F
:1015B00048FD1CA009F0D4FEFFF7EBFCFFF70AFE84
:1015C00004211B4801F07BF8194919200968886338
:1015D000184800F030FB01221749184808F0C2FAF9
:1015E000174CFFF71EFE207830B1012807D00228E3
:1015F000F7D1FFF77CFDF4E7FFF731FDF1E7FFF7E7
:101600004CFDEEE742345F446F776E210D0A000017
:10161000583A25642C593A25642C5A3A25302E31F3
:10162000660D0A005553415254204F4B210D0A00BC
:10163000CC000020800000206A000020180100205B
:10164000080000202DE9F04186B01421684609F019
:10165000F9FB3648C16C41F00401C164C16C01F072
:1016600004010591C16C41F02001C164C16C01F01D
:1016700020010591C16C41F00101C164C16C01F010
:1016800001010591C16C41F00201C164C16C01F01E
:1016900002010591C16C41F00801C164C06C244E87
:1016A00000F008004FF47F440590002221463046A8
:1016B00006F00DFE1F4F00220421384606F007FEFB
:1016C000DFF874800022C021404606F000FE0125AC
:1016D000CDE900450024029469463046039406F0A3
:1016E000BDFCCDE9005469464FF09040029406F0ED
:1016F000B5FC0720CDE9000469464046029406F097
:10170000ADFC04200090CDE90154694638460394AD
:1017100006F0A4FCC0200090CDE901546946404683
:10172000039406F09BFC06B0BDE8F0810010024077
:1017300000080048000C00480004004810B588B0BC
:1017400000246F4800940194029403940494059437
:101750006A49069401604F21C0E9011442F20F71F9
:10176000C0E903148021C0E9054100F0C3F908B1C4
:10177000FFF7C2FE4FF4805000906946604803F0C6
:10178000C4F908B1FFF7B8FE0494059404A95C48B5
:10179000069404F080FC002801D0FFF7ADFE08B0ED
:1017A00010BD10B586B004461421684609F04AFB06
:1017B0002068B0F1804F15D15248C16C41F0010151
:1017C000C164C06C694600F00100059002200090E1
:1017D0000190002002900390012004904FF090406F
:1017E00006F03CFC06B010BD10B58EB00024079486
:1017F000089409940A940B940C941C2168460D9447
:1018000009F020FB3E484FF080414C3001604F21F1
:10181000C0E9011440F2F311C0E90314846100F03F
:1018200069F908B1FFF768FE4FF48050079034481B
:1018300007A94C3003F069F908B1FFF75DFE3048A5
:101840004C3000F0D8FE08B1FFF756FE2C480B9440
:101850000BA94C300D9404F01EFC08B1FFF74CFEB0
:10186000602000909620CDE90104254804226946B5
:101870004C30049402F082FD08B1FFF73DFE204891
:101880004C30FFF78EFF0EB010BD08B500681B4A44
:101890001C49904211D1086E40F400600866086E41
:1018A000002200F4006000901146192007F029F989
:1018B000BDE80840192007F042B9B0F1804F07D1C8
:1018C000886D40F001008865886D00F0010000908F
:1018D00008BD0068094A0B49904206D1086E20F401
:1018E00000600866192007F037B9B0F1804F03D1C6
:1018F000886D20F00100886570470000002C0140D1
:1019000080000020001002403D4810B53B490160B6
:101910004FF416514160002181600C22C160C0E982
:1019200004128161C16101624162816207F01BFCA6
:1019300008B1FFF7E1FD0021314809F0CEF808B108
:10194000FFF7DAFD00212E4809F0EDF808B1FFF7A6
:10195000D3FD2B4809F0A2F8002803D0BDE81040C1
:10196000FFF7CABD10BD10B586B004461421684605
:1019700009F068FA21492068884227D12148016E80
:1019800041F480410166016E01F480410591C16C12
:1019900041F00101C164C06C694600F0010005908E
:1019A0004FF4C0600090022001900020029003904C
:1019B000072004904FF0904006F050FB00221146A3
:1019C000252007F09EF8252007F0B9F806B010BDD5
:1019D00010B50068094988420FD10A48016E21F408
:1019E000804101664FF4C0614FF0904006F0EEFB7D
:1019F000BDE81040252007F0AFB810BD0038014009
:101A00001801002000100240FEE7FEE7FEE7FEE7B7
:101A1000FEE770477047704705F057B9024802F07B
:101A20005AB9024808F005BD8000002018010020C6
:101A30000A4882B0016E41F001010166016E01F0B9
:101A400001010091816D41F080518165806D00F050
:101A50008050009002B005F0E6B80000001002408F
:101A60002DE9F0430268FE4CFE4DFF4EFF4B4FF058
:101A70008049A04207D0484505D0A84203D0B042D3
:101A800001D0984203D122F070074A683A43F84FD8
:101A9000DFF8E0C3DFF8E083A0420DD048450BD06B
:101AA000A84209D0B04207D0984205D0B84203D02E
:101AB000604501D0404503D122F44075CA682A43ED
:101AC0004D6922F080022A4302608A68C2620A6875
:101AD0008262A04207D0984205D0B84203D0604548
:101AE00001D0404501D10969016301214161BDE88F
:101AF000F083704710B5040003D094F83D0010B196
:101B000007E0012010BD002084F83C002046FFF7CC
:101B1000BCFE022084F83D00211D2068FFF7A0FFD5
:101B2000012084F8480084F83E0084F83F0084F8DF
:101B3000400084F8410084F8420084F8430084F8AF
:101B4000440084F8450084F8460084F8470084F88F
:101B50003D00002010BD704710B50446022084F8F7
:101B60003D002068016A41F21112114207D1016A59
:101B70009200114203D1016821F001010160204669
:101B8000FFF7A7FE002084F8480084F83E0084F8A0
:101B90003F0084F8400084F8410084F8420084F853
:101BA000430084F8440084F8450084F8460084F833
:101BB000470084F83D0084F83C0010BD90F83D10CB
:101BC000012901D001207047022180F83D100068F2
:101BD000A34988420ED0B0F1804F0BD0A149884272
:101BE00008D0A149884205D0A049884202D0A04926
:101BF000884207D18168A14A1140062906D0B1F573
:101C0000803F03D0016841F001010160002070476E
:101C100001680A6A41F211131A4207D10A6A9B004D
:101C20001A4203D10A6822F001020A60012180F8F9
:101C30003D100020704790F83D10012901D001208F
:101C40007047022180F83D100168CA6842F0010225
:101C5000CA600068824988420ED0B0F1804F0BD034
:101C60008049884208D08049884205D07F4988420F
:101C700002D07F49884207D18168804A11400629F5
:101C800006D0B1F5803F03D0016841F00101016049
:101C9000002070470168CA6822F00102CA6001682A
:101CA0000A6A41F211131A4207D10A6A9B001A42CA
:101CB00003D10A6822F001020A60012180F83D1078
:101CC00000207047704710B5846A0121626A824221
:101CD00003D1217784F83E1019E0A26A824204D130
:101CE0000220207784F83F1011E0E26A824204D19A
:101CF0000420207784F8401009E0226B824204D14E
:101D00000820207784F8411001E084F83D10204637
:101D1000FFF7D8FF0020207710BD704710B5806A0C
:101D2000FFF7FBFF10BD704710B5806A016AC969F3
:101D300011B9012180F83D10FFF7F7F910BD70B51A
:101D4000044690F83D0002281BD094F83D0001287D
:101D500016D101B9A2B9022084F83D00236A48488F
:101D6000D862236A47481863AFF2A500236A586314
:101D70002568134605F12C02206A06F0E9FB08B13C
:101D8000012070BD2068C16841F48071C160344990
:101D9000206888420ED0B0F1804F0BD03149884284
:101DA00008D03149884205D03049884202D03049B4
:101DB000884207D18168314A1140062906D0B1F521
:101DC000803F03D0016841F001010160002070BD37
:101DD00010B504460068C16821F48071C160206AB2
:101DE00006F031FC2068016A41F21112114207D15C
:101DF000016A9200114203D1016821F001010160E2
:101E0000012084F83D00002010BD704710B504008B
:101E100003D094F83D0010B107E0012010BD002070
:101E200084F83C002046FFF7F0FF022084F83D00D4
:101E3000211D2068FFF714FE012084F8480084F873
:101E40003E0084F83F0084F8400084F8410084F8A4
:101E5000420084F8430084F8440084F8450013E00D
:101E6000002C014000040040000800400034014004
:101E700000400140004401400048014007000100CB
:101E8000291D00081D1D000884F8460084F847003D
:101E900084F83D00002010BD704710B504460220B4
:101EA00084F83D002068016A41F21112114207D105
:101EB000016A9200114203D1016821F00101016021
:101EC0002046FFF7E9FF002084F8480084F83E0030
:101ED00084F83F0084F8400084F8410084F8420010
:101EE00084F8430084F8440084F8450084F84600F0
:101EF00084F8470084F83D0084F83C0010BD10B51C
:101F000001F01F010123046A8B409C430462036AB1
:101F10008A401343036210BD30B5044669B10429F9
:101F20000ED008290FD00C2910D0102911D094F808
:101F30004300012810D0012030BD94F83E00F8E79E
:101F400094F83F00F5E794F84000F2E794F8410078
:101F5000EFE794F84200ECE70220E9B3042942D00D
:101F6000082943D00C2944D0102945D084F84300D7
:101F700001222068FFF7C3FFF7492068F74AF84BB2
:101F8000884209D0904207D0984205D0F54DA8422A
:101F900002D0F54DA84203D1456C45F40045456497
:101FA000206888420CD0B0F1804F09D0EF498842B8
:101FB00006D0EF49884203D0904201D0984207D121
:101FC0008168EC4A1140062908D0B1F5803F05D060
:101FD000016841F0010100E002E00160002030BD35
:101FE00084F83E00C4E784F83F00C1E784F840006D
:101FF000BEE784F84100BBE784F84200B8E730B59B
:1020000004460D4600680022FFF779FFD24A41F2EC
:10201000111120688B0090420BD0D04A904208D01A
:10202000CF4A904205D0CF4A904202D0CE4A904249
:1020300009D1026A0A4206D1026A1A4203D1426CED
:1020400022F4004242642068026A0A4206D1016A10
:10205000194203D1016821F00101016001205DB145
:10206000042D0CD0082D0DD00C2D0ED0102D0FD01E
:1020700084F84300002030BD84F83E00FAE784F87D
:102080003F00F7E784F84000F4E784F84100F1E707
:1020900084F84200EEE730B5044669B104290ED059
:1020A00008290FD00C2910D0102911D094F8430022
:1020B000012810D0012030BD94F83E00F8E794F8D4
:1020C0003F00F5E794F84000F2E794F84100EFE7AD
:1020D00094F84200ECE7022089B1042912D00829C3
:1020E00013D00C2914D0102915D084F84300A9B1BD
:1020F000042918D0082951D00C2919D153E084F8AB
:102100003E00F4E784F83F00F1E784F84000EEE792
:1021100084F84100EBE784F84200E8E72068C268F1
:1021200042F0020203E02068C26842F00402C2608A
:1021300001222068FFF7E3FE87492068874A884B21
:10214000884209D0904207D0984205D0854DA842D8
:1021500002D0854DA84203D1456C45F40045456445
:10216000206888420CD0B0F1804F09D07F49884266
:1021700006D07F49884203D0904201D0984207D1CF
:1021800081687C4A1140062906D0B1F5803F03D012
:10219000016841F001010160002030BD2068C26883
:1021A00042F00802C3E72068C26842F01002BEE7AE
:1021B00030B5044600680D0006D0042D08D0082D67
:1021C00045D00C2D08D146E0C16821F0020102E0A3
:1021D000C16821F00401C160002229462068FFF790
:1021E0008EFE5D4A41F2111120688B0090420BD0A7
:1021F0005A4A904208D05A4A904205D0594A9042D1
:1022000002D0594A904209D1026A0A4206D1026AB2
:102210001A4203D1426C22F4004242642068026AEE
:102220000A4206D1016A194203D1016821F0010175
:10223000016001209DB1042D14D0082D15D00C2D66
:1022400016D0102D17D084F84300002030BDC1688F
:1022500021F00801BFE7C16821F01001BBE784F855
:102260003E00F2E784F83F00EFE784F84000ECE737
:1022700084F84100E9E784F84200E6E7704710B5CA
:10228000846A616A814201D101200DE0A16A814224
:1022900001D1022008E0E16A814201D1042003E07B
:1022A000216B814201D1082020772046FFF7E6FF0D
:1022B0000020207710BD704710B5846A0121626A42
:1022C000824205D12177C069F8B984F83E101CE03C
:1022D000A26A824206D102222277C069A8B984F894
:1022E0003F1012E0E26A824206D104222277C069DE
:1022F00058B984F8401008E0226B824205D10822C8
:102300002277C06908B984F841102046FFF7D3FF4F
:102310000020207710BD2DE9F04116460D0004463F
:102320002AD0042D2BD0082D2CD00C2D2DD0102DE3
:102330002ED094F84300022879D065B3042D2DD017
:10234000082D2ED00C2D2FD0102D30D094F8430016
:1023500001282FD0D8E00000002C014000340140BB
:10236000004001400044014000480140000400409A
:10237000000800400700010094F83E00DBE794F8F5
:102380003F00D8E794F84000D5E794F84100D2E741
:1023900094F84200CFE794F83E00D9E794F83F0064
:1023A000D6E794F84000D3E794F84100D0E794F8DA
:1023B0004200CDE70EB9002B72D10220B5B1042D39
:1023C00017D0082D18D00C2D19D0102D1AD084F844
:1023D0004300FE48AFF25911AFF21572ADB1042DB2
:1023E00026D0082D71D00C2D34D180E084F83E0029
:1023F000EFE784F83F00ECE784F84000E9E784F871
:102400004100E6E784F84200E3E7676AF862606A41
:102410000163606A314642632268606A343206F0C2
:1024200097F8E8BB2068C16841F4007111E049E009
:10243000A76AF862A06A0163A06A31464263226813
:10244000A06A383206F084F850BB2068C16841F4B5
:102450008061C160012229462068FFF750FDDC49F8
:102460002068DC4ADC4B884209D0904207D0984271
:1024700005D0DA4DA84202D0D94DA84203D1456C0F
:1024800045F400454564206888420ED0B0F1804F85
:102490000BD0D449884208D0D349884205D000E007
:1024A00032E0904201D0984207D18168CF4A114072
:1024B000062906D0B1F5803F03D0016841F0010143
:1024C00001600020BDE8F081FFE7E76AF862E06A9A
:1024D0000163E06A314642632268E06A3C3206F0FA
:1024E00037F888B92068C16841F40061B1E7276B0B
:1024F000F862206B0163206B314642632268206BD7
:10250000403206F025F808B10120DBE72068C168F9
:1025100041F480519DE770B5044600680D0006D077
:10252000042D0AD0082D4AD00C2D0DD14DE0C168E4
:1025300021F40071C160606A04E0C16821F4806127
:10254000C160A06A06F07FF8002229462068FFF7E4
:10255000D6FC9F4A41F2111120688B0090420BD0AB
:102560009C4A904208D09C4A904205D09B4A904297
:1025700002D09B4A904209D1026A0A4206D1026AFD
:102580001A4203D1426C22F4004242642068026A7B
:102590000A4206D1016A194203D1016821F0010102
:1025A00001600120BDB1042D18D0082D19D00C2DCB
:1025B0001AD0102D1BD084F84300002070BDC168D4
:1025C00021F40061C160E06ABCE7C16821F4805178
:1025D000C160206BB6E784F83E00EEE784F83F0068
:1025E000EBE784F84000E8E784F84100E5E784F889
:1025F0004200E2E7704710B5040003D094F83D00B4
:1026000010B107E0012010BD002084F83C002046F6
:10261000FFF7F0FF022084F83D00211D2068FFF73E
:102620001FFA012084F8480084F83E0084F83F0037
:1026300084F8400084F8410084F8420084F84300A4
:1026400084F8440084F8450084F8460084F8470084
:1026500084F83D00002010BD704710B504460220EC
:1026600084F83D002068016A41F21112114207D13D
:10267000016A9200114203D1016821F00101016059
:102680002046FFF7E9FF002084F8480084F83E0068
:1026900084F83F0084F8400084F8410084F8420048
:1026A00084F8430084F8440084F8450084F8460028
:1026B00084F8470084F83D0084F83C0010BD30B534
:1026C000044669B104290ED008290FD00C2910D076
:1026D000102911D094F84300012810D0012030BDFA
:1026E00094F83E00F8E794F83F00F5E794F84000CE
:1026F000F2E794F84100EFE794F84200ECE702209B
:10270000F1B3042942D0082943D00C2944D0102920
:1027100045D084F8430001222068FFF7F0FB2C49E4
:1027200020682C4A2C4B884209D0904207D098420E
:1027300005D02A4DA84202D0294DA84203D1456CAC
:1027400045F400454564206888420CD0B0F1804FC4
:1027500009D02449884206D02349884203D09042B8
:1027600001D0984207D18168204A1140062906D03D
:10277000B1F5803F03D0016841F00101016000E044
:1027800001E0002030BD84F83E00C4E784F83F003B
:10279000C1E784F84000BEE784F84100BBE784F855
:1027A0004200B8E730B504460D4600680022FFF746
:1027B000A6FB074A41F2111120688B0090421ED0FF
:1027C000044A90421BD0044A904211E0B92200080A
:1027D000002C014000340140004001400044014011
:1027E00000480140000400400008004007000100CC
:1027F00005D0FA4A904202D0F94A904209D1026AC1
:102800000A4206D1026A1A4203D1426C22F4004203
:1028100042642068026A0A4206D1016A194203D161
:10282000016821F00101016001205DB1042D0CD08F
:10283000082D0DD00C2D0ED0102D0FD084F8430094
:10284000002030BD84F83E00FAE784F83F00F7E747
:1028500084F84000F4E784F84100F1E784F842008E
:10286000EEE730B5044669B104290ED008290FD02F
:102870000C2910D0102911D094F84300012810D051
:10288000012030BD94F83E00F8E794F83F00F5E7EA
:1028900094F84000F2E794F84100EFE794F8420022
:1028A000ECE7022089B1042912D0082913D00C29A1
:1028B00014D0102915D084F84300A9B1042918D0E8
:1028C000082951D00C2919D153E084F83E00F4E7CF
:1028D00084F83F00F1E784F84000EEE784F8410017
:1028E000EBE784F84200E8E72068C26842F00202A1
:1028F00003E02068C26842F00402C260012220683E
:10290000FFF7FDFAB7492068B74AB84B884209D0AB
:10291000904207D0984205D0B04DA84202D0B04DA9
:10292000A84203D1456C45F40045456420688842BF
:102930000CD0B0F1804F09D0AD49884206D0AD49E6
:10294000884203D0904201D0984207D18168AA4AB8
:102950001140062906D0B1F5803F03D0016841F04F
:1029600001010160002030BD2068C26842F0080209
:10297000C3E72068C26842F01002BEE730B50446E3
:1029800000680D0006D0042D08D0082D45D00C2D70
:1029900008D146E0C16821F0020102E0C16821F0DF
:1029A0000401C160002229462068FFF7A8FA8D4A79
:1029B00041F2111120688B0090420BD08A4A90425C
:1029C00008D08A4A904205D0844A904202D0844A74
:1029D000904209D1026A0A4206D1026A1A4203D120
:1029E000426C22F4004242642068026A0A4206D124
:1029F000016A194203D1016821F00101016001203F
:102A00009DB1042D14D0082D15D00C2D16D0102DED
:102A100017D084F84300002030BDC16821F00801C0
:102A2000BFE7C16821F01001BBE784F83E00F2E780
:102A300084F83F00EFE784F84000ECE784F84100B9
:102A4000E9E784F84200E6E72DE9F04116460D007B
:102A5000044619D0042D1AD0082D1BD00C2D1CD0E3
:102A6000102D1DD094F8430002287DD0DDB1042D37
:102A70001CD0082D1DD00C2D1ED0102D1FD094F869
:102A8000430001281ED0DAE094F83E00ECE794F809
:102A90003F00E9E794F84000E6E794F84100E3E7F7
:102AA00094F84200E0E794F83E00EAE794F83F002B
:102AB000E7E794F84000E4E794F84100E1E794F890
:102AC0004200DEE70EB9002B72D10220B5B1042D11
:102AD00017D0082D18D00C2D19D0102D1AD084F82D
:102AE00043004648AFF66901AFF62562ADB1042D4B
:102AF00025D0082D70D00C2D33D193E084F83E0002
:102B0000EFE784F83F00ECE784F84000E9E784F859
:102B10004100E6E784F84200E3E7676AF862606A2A
:102B20000163606A314642632268606A343205F0AC
:102B30000FFDE8BB2068C16841F4007110E0A76A8E
:102B4000F862A06A0163A06A314642632268A06A03
:102B5000383205F0FDFC58BB2068C16841F4806143
:102B6000C1600122294600E035E02068FFF7C7F97F
:102B70001C4920681C4A1D4B884209D0904207D04E
:102B8000984205D0154DA84202D0154DA84203D158
:102B9000456C45F400454564206888420ED0B0F18C
:102BA000804F0BD01249884208D01249884200E079
:102BB00045E003D0904201D0984207D181680E4A87
:102BC0001140062906D0B1F5803F03D0016841F0DD
:102BD00001010160002075E412E0000000440140A2
:102BE00000480140002C01400034014000400140F9
:102BF000000400400008004007000100B92200085E
:102C0000E76AF862E06A0163E06A3146426322687B
:102C1000E06A3C3205F09CFC88B92068C16841F448
:102C200000619DE7276BF862206B0163206B3146E2
:102C300042632268206B403205F08AFC08B1012013
:102C400040E42068C16841F4805189E770B50446CA
:102C500000680D0006D0042D0AD0082D4AD00C2D96
:102C60000DD14DE0C16821F40071C160606A04E0DB
:102C7000C16821F48061C160A06A05F0E4FC002213
:102C800029462068FFF73BF9F94A41F21111206803
:102C90008B0090420BD0F74A904208D0F64A9042FF
:102CA00005D0F64A904202D0F54A904209D1026A14
:102CB0000A4206D1026A1A4203D1426C22F400424F
:102CC00042642068026A0A4206D1016A194203D1AD
:102CD000016821F0010101600120BDB1042D18D06F
:102CE000082D19D00C2D1AD0102D1BD084F84300BC
:102CF000002070BDC16821F40061C160E06ABCE7DA
:102D0000C16821F48051C160206BB6E784F83E00B1
:102D1000EEE784F83F00EBE784F84000E8E784F84A
:102D20004100E5E784F84200E2E7704710B504008F
:102D300003D094F83D0010B107E0012010BD002041
:102D400084F83C002046FFF7F0FF022084F83D00A5
:102D5000211D2068FEF784FE012084F8480084F8D5
:102D60003E0084F83F0084F8400084F8410084F875
:102D7000420084F8430084F8440084F8450084F855
:102D8000460084F8470084F83D00002010BD7047DD
:102D900010B50446022084F83D002068016A41F223
:102DA0001112114207D1016A9200114203D1016848
:102DB00021F0010101602046FFF7E9FF002084F8BF
:102DC000480084F83E0084F83F0084F8400084F80E
:102DD000410084F8420084F8430084F8440084F8F9
:102DE000450084F8460084F8470084F83D0084F8E4
:102DF0003C0010BD10B5044699B1042914D008292F
:102E000015D00C2916D0102917D094F84300B9B169
:102E1000042918D0082919D094F8472001281AD17C
:102E200017E094F83E00F2E794F83F00EFE794F8DB
:102E30004000ECE794F84100E9E794F84200E6E747
:102E400094F84420EAE794F84520E7E794F8462010
:102E5000E4E7012A01D0012010BD022081B304293A
:102E600034D0082937D00C293AD010293BD084F827
:102E7000430084F8470001222068FFF740F87C49AE
:102E8000206888420ED0B0F1804F0BD07D49884237
:102E900008D07D49884205D07649884202D07649DB
:102EA000884207D18168794A1140062906D0B1F5D8
:102EB000803F03D0016841F001010160002010BD96
:102EC000FFE784F83E0084F84400D4E784F83F002C
:102ED00084F84500CFE784F8400084F84600CAE74C
:102EE00084F84100C5E784F84200C2E730B50446E3
:102EF0000D4600680022FFF702F82068016A41F2DF
:102F00001112114207D1016A9200114203D10168E6
:102F100021F00101016001206DB1042D0ED0082DBA
:102F20000FD00C2D11D0102D12D084F8430084F84E
:102F30004700002030BD04F83E0F04E004F83F0FC6
:102F400001E004F8400FA071F3E784F84100EEE7D8
:102F500084F84200EBE710B5044699B1042914D077
:102F6000082915D00C2916D0102917D094F8430041
:102F7000B9B1042918D0082919D094F8472001289C
:102F80001AD117E094F83E00F2E794F83F00EFE71B
:102F900094F84000ECE794F84100E9E794F8420027
:102FA000E6E794F84420EAE794F84520E7E794F848
:102FB0004620E4E7012A01D0012080E7022099B1F0
:102FC000042916D0082919D00C291CD010291DD08D
:102FD00084F8430084F84700D9B104291ED0082999
:102FE00056D00C291FD158E084F83E0084F84400E4
:102FF000F2E784F83F0084F84500EDE784F84000EC
:1030000084F84600E8E784F84100E3E784F84200EA
:10301000E0E72068C26842F0020203E02068C2686C
:1030200042F00402C26001222068FEF768FF1049E6
:10303000206888420ED0B0F1804F0BD011498842F1
:1030400008D01149884205D00A49884202D00A496D
:10305000884207D181680D4A1140062906D0B1F592
:10306000803F03D0016841F001010160002026E7A4
:10307000002C014000340140004001400044014068
:103080000048014000040040000800400700010023
:103090002068C26842F00802C4E72068C26842F0B3
:1030A0001002BFE730B5044600680D0006D0042DBD
:1030B00008D0082D2DD00C2D08D12EE0C16821F0AC
:1030C000020102E0C16821F00401C160002229462A
:1030D0002068FEF714FF2068016A41F211121142C4
:1030E00007D1016A9200114203D1016821F0010168
:1030F00001600120ADB1042D16D0082D17D00C2D84
:1031000019D0102D1AD084F8430084F8470000200D
:1031100030BDC16821F00801D7E7C16821F0100176
:10312000D3E704F83E0F04E004F83F0F01E004F891
:10313000400FA071EBE784F84100E6E784F8420015
:10314000E3E7704710B5846A616A814201D10120CA
:103150000DE0A16A814201D1022008E0E16A8142CA
:1031600001D1042003E0216B814201D108202077A6
:103170002046FFF7E6FF00202077A0E6704710B555
:10318000846A0121626A824207D12177C06938BB13
:1031900084F83E1084F8441022E0A26A824208D1EA
:1031A00002222277C069D8B984F83F1084F845100C
:1031B00016E0E26A824208D104222277C06978B917
:1031C00084F8401084F846100AE0226B824207D14E
:1031D00008222277C06918B984F8411084F8471092
:1031E0002046FFF7CBFF0020207768E62DE9F0416D
:1031F0000D00044617D0042D18D0082D19D00C2D21
:103200001AD0102D1BD094F84300DDB1042D1CD032
:10321000082D1DD094F8471002281CD002291AD07E
:1032200001281AD0B4E094F83E00EEE794F83F008D
:10323000EBE794F84000E8E794F84100E5E794F8FC
:103240004200E2E794F84410E6E794F84510E3E71B
:1032500094F84610E0E70220BDE401297AD10AB9CA
:10326000002B77D10220C5B1042D1BD0082D1ED014
:103270000C2D21D0102D22D084F8430084F8470073
:10328000AFF20510AFF24311FB4EDDB1042D2AD091
:10329000082D60D00C2D37D16EE084F83E0084F804
:1032A0004400EDE784F83F0084F84500E8E784F83F
:1032B000400084F84600E3E784F84100DEE784F844
:1032C0004200DBE7676AF862606A0163606A46632E
:1032D0002168606A343105F03BF9D8BB2068C168C9
:1032E00041F400710FE0A76AF862A06A0163A06A66
:1032F00046632168A06A383105F02AF950BB20687E
:10330000C16841F48061C160012229462068FEF74E
:10331000F6FDDA49206888420ED0B0F1804F0BD01C
:10332000D749884208D0D749884205D0D649884233
:1033300002D0D649884207D18168D54A1140062972
:1033400006D0B1F5803F03D0016841F00101016072
:10335000002040E41CE0E76AF862E06A0163E06A8A
:1033600046632168E06A3C3105F0F2F880B92068D4
:10337000C16841F40061C6E7276BF862206B016306
:10338000206B46632168206B403105F0E1F808B1FD
:10339000012020E42068C16841F48051B3E770B592
:1033A00004460D4600680022FEF7A9FD35B1042D44
:1033B0000BD0082D2FD00C2D0FD133E02068C16821
:1033C00021F40071C160606A05E02068C16821F4E1
:1033D0008061C160A06A05F036F92068016A41F297
:1033E0001112114207D1016A9200114203D1016802
:1033F00021F0010101600120DDB1042D1CD0082D58
:103400001DD00C2D1FD0102D20D084F8430084F83F
:103410004700002070BD2068C16821F40061C160D0
:10342000E06AD8E72068C16821F48051C160206B50
:10343000D1E704F83E0F04E004F83F0F01E004F880
:10344000400FA071E5E784F84100E0E784F842000E
:10345000DDE7704770B50D46040003D094F83D00D9
:1034600010B107E0012070BD002084F83C00204628
:10347000FFF7EFFF022084F83D00211D2068FEF7D2
:10348000EFFA2068016821F00801016054F8480B48
:10349000016829430160012004F81F096075A075C7
:1034A000E07620772075002070BD704710B5044687
:1034B000022084F83D002068016A41F21112114295
:1034C00007D1016A9200114203D1016821F0010184
:1034D00001602046FFF7E9FF002084F8480084F8E7
:1034E0003E0084F83F0084F8440084F8450084F8E6
:1034F0003D0084F83C00E2E410B590F83E3004460C
:1035000090F83F2090F8441090F84500012B05D129
:10351000012A03D1012901D1012801D00120CEE4E3
:10352000022084F83E0084F83F0084F8440084F8C8
:103530004500012200212068FEF7E1FC0122042160
:103540002068FEF7DCFC4D49206888420BD04E49CC
:10355000884208D04D49884205D04E49884202D061
:103560004D49884203D1416C41F40041416400203F
:10357000A5E410B50446002200681146FEF7BFFC22
:10358000002204212068FEF7BAFC3C4841F21112E7
:103590002168930081420BD03B48814208D03B48D0
:1035A000814205D03B48814202D03B48814209D14B
:1035B000086A104206D1086A184203D1486C20F408
:1035C000004048642068016A114206D1016A19422C
:1035D00003D1016821F001010160012004F83E0FD0
:1035E0006070A071E071002069E410B590F83E3081
:1035F000044690F83F2090F8441090F84500012BC5
:1036000005D1012A03D1012901D1012801D00120CE
:1036100055E4022084F83E0084F83F0084F844001A
:1036200084F845002068C16841F00201C16020684B
:10363000C16841F00401C160012200212068FEF749
:103640005EFC012204212068FEF759FC0B4920682A
:1036500088420BD00C49884208D00C49884205D0DA
:103660000C49884202D00C49884203D1416C41F494
:1036700000414164002022E4C71C0008002C0140E6
:1036800000040040000800400034014000400140B8
:1036900007000100004401400048014010B5044605
:1036A0000068C16821F00201C1602068C16821F092
:1036B0000401C160002211462068FEF720FC0022B0
:1036C00004212068FEF71BFCFC4941F2111220681E
:1036D000930088420BD0FA49884208D0F9498842C1
:1036E00005D0F949884202D0F849884209D1016AD7
:1036F000114206D1016A194203D1416C21F4004103
:1037000041642068016A114206D1016A194203D15D
:10371000016821F001010160012004F83E0F607092
:10372000A071E071002048E470472DE9F0410D469A
:10373000040003D094F83D0010B107E001208BE5B0
:10374000002084F83C002046FFF7EEFF022084F8BA
:103750003D0020688168DE4A11408160211D20689B
:10376000FEF77EF9206881688269066A2B68AF6976
:103770000B4340F203318A4342EA0722A968EF690A
:1037800011434FF6FC429143EA6841EA07210A439C
:1037900029692F6A090141EA073111436A686D6995
:1037A00026F0AA0646EA05152A438360206881614F
:1037B00054F8480B0262012004F81F096075A075D7
:1037C000E07620772075002046E5704710B5044666
:1037D000022084F83D002068016A41F21112114272
:1037E00007D1016A9200114203D1016821F0010161
:1037F00001602046FFF7E9FF002084F8480084F8C4
:103800003E0084F83F0084F8440084F8450084F8C2
:103810003D0084F83C002AE470B590F83E50044620
:1038200090F83F3090F8442090F84500022621B1EE
:1038300004290BD0012D16D10FE0012D13D1012A3F
:1038400011D184F83E6084F8446016E0012B0AD15F
:10385000012808D184F83F600DE0012B03D1012A33
:1038600001D1012801D0012070BD84F83E6084F8A8
:103870003F6084F8446084F8456091B1042904D025
:10388000012200212068FEF73AFB01220421206872
:10389000FEF735FB2068016841F00101016000205E
:1038A00070BD012200212068F2E730B504460068AF
:1038B0000D0023D0042D04D000221146FEF71FFB7B
:1038C000206800220421FEF71AFB2068016A41F2F9
:1038D0001112114207D1016A9200114203D101680D
:1038E00021F00101016001205DB1042D0CD004F82C
:1038F0003E0F6070A071E071002030BD00221146C3
:10390000E1E704F83E0F01E004F83F0FA071F3E790
:1039100070B590F83E50044690F83F3090F844203F
:1039200090F84500022621B104290BD0012D16D1B3
:103930000FE0012D13D1012A11D184F83E6084F8E3
:10394000446016E0012B0AD1012808D184F83F60B9
:103950000DE0012B03D1012A01D1012801D0012062
:1039600070BD84F83E6084F83F6084F8446084F859
:10397000456091B1206804294FF0010217D0002161
:10398000FEF7BDFA012204212068FEF7B8FA20688C
:10399000C16841F00201C1600CE0012200212068F1
:1039A000FEF7ADFA2068C16841F0020106E004218B
:1039B000FEF7A5FA2068C16841F00401C1602068E3
:1039C000016841F001010160002070BD30B504467E
:1039D00000680D002ED0042D4FF0000233D00021DE
:1039E000FEF78DFA002204212068FEF788FA20688D
:1039F000C16821F00201C1602068C16821F00401A2
:103A0000C1602068016A41F21112114207D1016AB6
:103A10009200114203D1016821F0010101600120EF
:103A2000ADB1042D16D004F83E0F6070A071E071A6
:103A3000002030BD00221146FEF761FA2068C168FF
:103A400021F00201DCE70421FEF759FAD4E704F87B
:103A50003E0F01E004F83F0FA071E9E72DE9F047C0
:103A600090F83E70089D1E469446044690F83F30FC
:103A700090F8442090F845004FF0020861B1042905
:103A800028D0022F34D0022B32D0022A30D0022884
:103A90002ED0012F2FD0AAE0022F29D0022A27D022
:103AA000012F7DD1012A7BD1BCF1000F01D1002D66
:103AB00076D184F83E8084F8448030E0002C0140C8
:103AC00000340140004001400044014000480140F2
:103AD000F8BFFEFF022B0BD0022809D0012B5FD1CB
:103AE00001285DD10EB9002D5AD184F83F8014E031
:103AF0000220BDE8F087012B79D1012A77D1012876
:103B000075D1BCF1000F00D00EB9002D6FD184F833
:103B10003E8084F83F8084F8448084F84580AFF686
:103B2000A112AFF6DF17FE4821B104291ED03C29AF
:103B300078D13BE0616A2B46CA62616A62460F63D4
:103B4000616A48632168606A343104F001FD38BB62
:103B50002068C16841F40071C1602068016841F0CB
:103B6000010101600122002120681CE0A16A2B46AE
:103B7000CA62A16A32460F63A16A48632168A06ADB
:103B8000383104F0E5FC58B92068C16841F480611F
:103B9000C1602068016841F001010160012200E07C
:103BA00025E004212068FEF7AAF93BE09146626A0D
:103BB00080462B46C2F82C90616A62460F63616AA8
:103BC00048632168606A343104F0C2FC78B9A16AA4
:103BD0002B463246C1F82C90A06A0763A16AC1F84F
:103BE00034802168A06A383104F0B2FC08B10120A9
:103BF0007FE72068016841F0010101600122002196
:103C00002068FEF77CF9012204212068FEF777F98D
:103C10002068C16841F40071C1602068C16841F446
:103C20008061C160002064E770B5044600680D0043
:103C300034D0042D4FF000023BD00021FEF75FF995
:103C4000002204212068FEF75AF92068C16821F497
:103C50000071C1602068C16821F48061C160606A40
:103C600004F0F1FCA06A04F0EEFC2068016A41F265
:103C70001112114207D1016A9200114203D1016869
:103C800021F0010101600120E5B1042D1DD004F8EF
:103C90003E0F6070A071E071002070BD00221146DF
:103CA000FEF72DF92068C16821F40071C160606AD7
:103CB000D9E70421FEF723F92068C16821F4806167
:103CC000C160CFE704F83E0F01E004F83F0FA07198
:103CD000E2E77047704770B50446006801694FF02D
:103CE0000005C943890715D4C168C943890711D4A0
:103CF000E91E016101202077206880698007204645
:103D000002D0FFF73BFA04E0FFF7E4FF2046FEF79E
:103D1000D2FA257720680169C943490717D4C168D9
:103D2000C943490713D46FF00401016102202077D1
:103D30002068806910F4407F204602D0FFF71EFA09
:103D400004E0FFF7C7FF2046FEF7B5FA25772068A5
:103D50000169C943090716D4C168C943090712D4C8
:103D60006FF008010161042020772068C069800796
:103D7000204602D0FFF702FA04E0FFF7ABFF20462F
:103D8000FEF799FA257720680169C943C90617D457
:103D9000C168C943C90613D46FF01001016108203E
:103DA00020772068C06910F4407F204602D0FFF7DA
:103DB000E5F904E0FFF78EFF2046FEF77CFA257751
:103DC00020680169C943C90708D1C168C943C90747
:103DD00004D1891E01612046FDF7A7F92068016919
:103DE000C943090609D4C168C943090605D46FF05F
:103DF00080010161204602F0BCFB20680169C943D3
:103E0000C90509D4C168C943090605D46FF4807196
:103E10000161204602F0AEFB20680169C9434906F2
:103E200009D4C168C943490605D46FF04001016156
:103E30002046FFF74EFF20680169C943890609D46F
:103E4000C168C943890605D46FF02001016120468D
:103E500002F0C3F820680169C943C90209D4C168E6
:103E6000C943C90205D46FF480110161204602F0F4
:103E700082FB20680169C943890209D4C168C9432A
:103E8000890205D46FF400110161204602F074FB31
:103E900020680169C943490209D4C168C94349027C
:103EA00005D46FF480010161204602F066FB2068B2
:103EB0000169C94309020BD4C168C943090207D487
:103EC0006FF4000101612046BDE8704002F056BB6E
:103ED00070BD30B5026A22F480120262056A42683F
:103EE000036D104C23400C6843EA042425F40013AE
:103EF0000D8943EA05530C4DA8420BD00B4DA84247
:103F000008D00B4DA84205D00A4DA84202D00A4D58
:103F1000A84204D14D6922F4802242EA85220DE0B4
:103F2000C71C0008FF8FFFFE002C01400034014039
:103F300000400140004401400048014042600465E7
:103F40004968C164036230BD30B5026A22F4803230
:103F50000262056A4268036DFE4C23400C681C43F4
:103F600025F400330D8943EA0543FB4DA8420BD0ED
:103F7000FA4DA84208D0FA4DA84205D0F94DA84202
:103F800002D0F94DA84204D14D6922F4803242EAB0
:103F900005224260046549688164036230BDF0B562
:103FA000026A22F480520262056A4268C369EF4CD9
:103FB000EA4E23400C6823F4407343EA042425F4BA
:103FC00000538D6843EA0533E34DA84201D0B04267
:103FD00006D1CF6823F4004343EA073323F4804338
:103FE000A8420AD0B04208D0DD4DA84205D0DD4D30
:103FF000A84202D0DC4DA84207D14D6922F44042CC
:1040000042EA85128D6942EA85124260C4614968BC
:1040100001640362F0BDF0B5026A22F480720262AC
:10402000056A4268C369CB4CCC4E23400C6823F030
:1040300003031C4325F400738D6843EA0523C64D32
:10404000A84201D0B04206D1CF6823F4006343EA0E
:10405000072323F48063A8420AD0B04208D0C04DA1
:10406000A84205D0BF4DA84202D0BF4DA84207D1FB
:104070004D6922F4405242EA05128D6942EA051266
:104080004260C4614968C1630362F0BDF0B5026A71
:1040900022F010020262056A42688369B34CAF4E97
:1040A00023400C6823F4407343EA042425F02003E2
:1040B0008D6843EA0513A84DA84201D0B04206D14D
:1040C000CF6823F0800343EA071323F04003A8429C
:1040D0000AD0B04208D0A24DA84205D0A14DA842B6
:1040E00002D0A14DA84207D14D6922F4406242EAB4
:1040F00085028D6942EA8502426084614968816374
:104100000362F0BD2DE9F043026A22F0010202626F
:10411000056A426883698F4C25F0020523400C68CC
:1041200023F003031C438B688C4E2B438A4D8C4F2A
:10413000DFF830C2DFF83092A84207D0B04205D095
:10414000B84203D0604501D0484506D123F00808A5
:10415000CB6843EA080323F00403A84207D0B04227
:1041600005D0B84203D0604501D0484505D14D691E
:1041700022F4407215438A692A4342608461496887
:1041800041630362BDE8F08310B5044690F83C003B
:1041900001280BD0012084F83C000C2A19D007DC40
:1041A0005AB1042A0DD0082A1ED10EE0022010BDFB
:1041B000102A12D0142A17D113E02068FFF7A2FFAB
:1041C00012E02068FFF762FF0EE02068FFF723FF90
:1041D0000AE02068FFF7E3FE06E02068FFF7B4FE80
:1041E00002E02068FFF775FE002084F83C0010BD57
:1041F00070B5046A24F0010404628469056A564EAD
:10420000B0420ED0B0F1804F0BD0594EB04208D022
:10421000584EB04205D0514EB04202D0504EB0423E
:1042200003D124F00304144301E044F001041A070D
:1042300024F0F00444EA126225F00A0301F00A01B6
:1042400019438261016270BD2DE9F041054690F885
:104250003C000C46012836D0012085F83C008AB38A
:10426000042A42D02868082A51D0D4E90031E268F3
:10427000066A26F480560662C769066A27F4407704
:1042800047EA01214FF6FF7721F4704107EA023235
:104290000A434FF4204126F4204601EA033131431A
:1042A000C26101622868C16921F44061C161286866
:1042B000C169A26841EA0221C161002085F83C0081
:1042C000BDE8F08101E00220FAE7D4E90012E368DA
:1042D0002868FFF78DFF2868816921F00C01816152
:1042E00028688169A26811430FE0D4E90012E368ED
:1042F000286800F082FD2868816921F440618161AD
:1043000028688169A26841EA02218161D5E7D4E980
:104310000027267B016A21F480710162C169036A6A
:1043200021F00301394321F0F00731074FF42066F3
:1043300047EA116123F4206306EA02221A43C161AD
:1043400002622868C16921F00C01C1612868C16955
:10435000A26811E08FFFFEFF002C014000340140F5
:10436000004001400044014000480140FF8FFFFE33
:10437000000400400008004011439DE770B504466A
:1043800090F83C000D4601280BD0012084F83C0039
:104390000C2A45D007DC5AB1042A1BD0082A78D150
:1043A0002CE0022070BD102A4ED0142A71D15DE09D
:1043B0002068FFF7A7FE2068816941F0080181614C
:1043C0002068816921F004018161206881692A697E
:1043D000114311E02068FFF759FE2068816941F41C
:1043E000006181612068816921F4806181612068B8
:1043F00081692A6941EA022181614AE02068FFF768
:104400000AFE2068C16941F00801C1612068C169E4
:1044100021F00401C1612068C1692A69114311E0DA
:104420002068FFF7BCFD2068C16941F40061C161EB
:104430002068C16921F48061C1612068C1692A696D
:1044400041EA0221C16124E02068FFF77DFD206878
:10445000016D41F0080101652068016D21F0040142
:1044600001652068016D2A69114311E02068FFF79A
:1044700030FD2068016D41F4006101652068016D27
:1044800021F4806101652068016D2A6941EA0221F9
:104490000165002084F83C0070BD2DE9F04398468A
:1044A00087B00D460446424566D094F83C0001288A
:1044B00016D04FF0010984F83C90022084F83D00AA
:1044C0002868009068680190A8680290E8680390E6
:1044D00028690590686906902AB1042A0CD107E082
:1044E000022007B04EE669462068FFF70BFE03E0A6
:1044F00069462068FFF7CAFDF64EF74FB8F1000F86
:1045000003D0B8F1040F31D113E01835206895E8D5
:104510000E00FFF76DFE2068816921F00C018161BA
:1045200020688168314081602068816841F05001D5
:1045300012E01835206895E80E0000F05EFC206857
:10454000816921F440618161206881683140816026
:104550002068816841F0600181602068816839408D
:1045600081602068816841F00601816084F83D9097
:10457000002084F83C00B4E70120B2E7704710B592
:10458000806AFFF7FBFF10BD10B5806A816BC969B7
:1045900011B9012180F83D10FFF79BFB10BD2DE9FB
:1045A000F0419C460446DDE9066390F84800154654
:1045B0000F46022841D094F84800012806D1BCF1EA
:1045C000000F00D1C6BB022084F84800C348C4498C
:1045D000C44AB5F5006F3CD009DCB5F5807F10D03A
:1045E000B5F5007F18D0B5F5806F5FD126E0B5F541
:1045F000805F39D0B5F5005F41D0B5F5804F55D11A
:1046000048E0226AB849D162226AB8491163216A36
:1046100048632268206A09E0D4F824E0CEF82C1020
:10462000616A0A63616A48632268606A614602F5EA
:10463000787203F08DFFC0B3012041E6D4F828E082
:10464000CEF82C10A16A0A63A16A48632268A06AA6
:10465000ECE7D4F82CE0CEF82C10E16A0A63E16AAA
:1046600048632268E06AE1E7D4F830E0CEF82C1025
:10467000216B0A63216B48632268206BD6E7626B6B
:104680009B49D162626B9B491163616B48632268ED
:10469000606BCBE7A26B9849D162A26B974911631B
:1046A000A16B48632268A06BC0E7FFE7206837432F
:1046B000C0F8DC732068C1682943C1600020FFE5B1
:1046C0007CB5069C250A6D1CCDE90045FFF767FF08
:1046D0007CBD70B50D460446B1F5006F24D009DCF1
:1046E000B5F5807F10D0B5F5007F0FD0B5F5806FA0
:1046F0000FD117E0B5F5805F18D0B5F5005F17D082
:10470000B5F5804F05D115E0206A00E0606A03F03E
:104710009AFF2068C168A943C160012084F848005D
:10472000002070BDA06AF2E7E06AF0E7206BEEE7D8
:10473000606BECE7A06BEAE72DE9F0419C4604468C
:10474000DDE9066390F8480015460F46022841D07F
:1047500094F84800012806D1BCF1000F00D1C6BB77
:10476000022084F848005D486549664AB5F5006F47
:104770003CD009DCB5F5807F10D0B5F5007F18D0AE
:10478000B5F5806F5FD126E0B5F5805F39D0B5F51E
:10479000005F41D0B5F5804F55D148E0226A5249BB
:1047A000D162226A51491163216A48632168206AF3
:1047B00009E0D4F824E0CEF82C10616A0A63616A3B
:1047C00048632168606A624601F5787103F0C0FEB3
:1047D000C0B3012074E5D4F828E0CEF82C10A16A0B
:1047E0000A63A16A48632168A06AECE7D4F82CE068
:1047F000CEF82C10E16A0A63E16A48632168E06A36
:10480000E1E7D4F830E0CEF82C10216B0A63216B7D
:1048100048632168206BD6E7626B3549D162626BD1
:1048200034491163616B48632168606BCBE7A26B0D
:104830003149D162A26B31491163A16B4863216890
:10484000A06BC0E7FFE720683743C0F8DC7320683F
:10485000C1682943C160002032E57CB5069C250A69
:104860006D1CCDE90045FFF767FF7CBD70B50D46B7
:104870000446B1F5006F24D009DCB5F5807F10D077
:10488000B5F5007F0FD0B5F5806F0FD117E0B5F506
:10489000805F18D0B5F5005F17D0B5F5804F05D112
:1048A00015E0206A00E0606A03F0CDFE2068C16870
:1048B000A943C160012084F84800002070BDA06AAF
:1048C000F2E7E06AF0E7206BEEE7606BECE7A06BE5
:1048D000EAE700008FFFCFFFF8FFFEFFC71C0008CC
:1048E000B92200087F220008291D00081D1D0008AC
:1048F000DD5F0008CB5F0008894500087F450008A0
:104900007F3100084531000890F83C20012A0CD086
:10491000012200F83C2F0223437050F83C3C5961BF
:10492000427000210170084670470220704710B5A0
:10493000846842EA032224F47F440A4322438260CB
:1049400010BD2DE9F74F044690F83C000D460128B4
:104950001CD0012684F83C60022084F83D00686881
:10496000F84FDFF8E4C3DFF8E483DFF8E493DFF81F
:10497000E4A3DFF8E4B3B0F5803F2BD009DCB0F15D
:10498000FF3F0DD030B3012866D13EE00220BDE8E4
:10499000FE8FB0F5003F1DD0B0F5403F5CD119E06F
:1049A0002068B8420CD0B0F1804F09D0604507D0E4
:1049B000404505D0484503D0504501D0584504D165
:1049C00081684FF60872914340E0816821F47F418D
:1049D000816041E02068B8420CD0B0F1804F09D02E
:1049E000604507D0404505D0484503D0504501D02B
:1049F000584531D1816821F0080181602068416EFD
:104A00006A6821F4E021114325E0E96831B184F8B6
:104A10003D60002084F83C000120B8E72B69AA68BB
:104A20002068FFF784FF2068B8420CD0B0F1804FB7
:104A300009D0604507D0404505D0484503D05045D2
:104A400001D0584508D1816841F008018160206893
:104A5000416E21F4E021416602980C282DD005DC3E
:104A600048B1042812D0082849D11BE0102830D0C2
:104A7000142844D138E0286800282068816902D0D1
:104A800041F080010CE021F0800109E02868002855
:104A90002068816902D041F4004101E021F4004125
:104AA00081612CE0286800282068C16902D041F0AB
:104AB00080010CE021F0800109E0286800282068CE
:104AC000C16902D041F4004101E021F40041C1611B
:104AD00015E0286800282068016D02D041F08001AF
:104AE0000CE021F0800109E0286800282068016DB1
:104AF00002D041F4004101E021F40041016584F855
:104B00003D60002084F83C0041E770B5044690F811
:104B10003C00012814D0012584F83C50022084F880
:104B20003D00206882688D4B1A4022F47F428260EB
:104B30000868702827D010DC10F00F0F03D04AE06F
:104B40004FF0020070BD4FEA2012072A43D2DFE87F
:104B500002F05050505048313900814BC21A9842EF
:104B600047D009DCB0F5805F35D0B0F5005F15D0D7
:104B7000B0F1101F2FD13CE0102A3AD0202A38D0B3
:104B8000502A28D135E0CB68D1E901212068FFF710
:104B9000CEFE2068816841F0770109E0CB68D1E959
:104BA00001212068FFF7C3FE2068816841F480413D
:104BB000816010E0CA684968206800F041F950211E
:104BC000206806E0CA684968206800F04AF9602158
:104BD000206800F02DF984F83D50002084F83C0056
:104BE00070BDCA684968206800F02AF94021206831
:104BF000EFE7226801461046EBE70068426822F0C2
:104C000080020A4342600020704710B50268946831
:104C1000544B1C404B682343534C23400C681C43AB
:104C200094604A68602A33D006DC302A35DD402A99
:104C30000FD0502A31D125E0494B10339A422CDA5B
:104C4000702A2AD10B69D1E902210068FFF76FFEB3
:104C500023E00A68052A13D0B2F1011F10D00268C0
:104C6000136A146A24F001041462026894690969E1
:104C700024F0F00444EA01119161006803620CE041
:104C8000012010BD0A698968006800F0D9F804E0C5
:104C90000A698968006800F0E4F8002010BD70B56A
:104CA000044690F83C00012810D0012584F83C50BF
:104CB000022084F83D002046FFF7A7FF002138B10D
:104CC00084F83D5084F83C10012070BD022070BD76
:104CD0002068C26822F04002C2602068C26822F4E4
:104CE0008042C26084F83D5084F83C10002070BDC2
:104CF00070B5044690F83C00012810D0012584F8D6
:104D00003C50022084F83D002046FFF77EFF002142
:104D100038B184F83D5084F83C10012070BD022069
:104D200070BD2068C26842F04002C2602068C2685C
:104D300022F48042C26084F83D5084F83C10002088
:104D400070BD0000002C0140000400400034014010
:104D500000400140004401400048014088FFCEFF70
:104D6000200010008FFFCFFFF8FFFEFF024600205B
:104D700041B1042909D008290AD00C2901D11068B1
:104D8000006C70471068406B70471068806B70470C
:104D90001068C06B704790F83D00704790F83D0078
:104DA000704790F83D00704790F83D00704790F8CC
:104DB0003D00704790F83D007047007F704751B14B
:104DC00004290BD008290CD00C290DD010290ED0A5
:104DD00090F84300704790F83E00704790F83F000D
:104DE000704790F84000704790F84100704790F885
:104DF0004200704790F84800704730B5046A24F0CC
:104E0000100404628569046A25F4407545EA0222AB
:104E100022F470454FF6FF7202EA033224F0A00339
:104E20002A43A02404EA011119438261016230BDC2
:104E30008268154B1A400A4342F0070181607047AF
:104E400010B5046A036A23F001030362836923F047
:104E5000F00343EA021324F00A020A438361026268
:104E600010BD10B5036A23F0100303628469036A5E
:104E700024F4704444EA023223F0A00343EA01110F
:104E80008261016210BD00008FFFCFFF704770B5D7
:104E900088B00D46040004D094F83D00002618B1F7
:104EA00007E0012008B070BD84F83C602046FFF7A1
:104EB000EDFF022084F83D00211D2068FCF7D0FDA5
:104EC000AB68296803222068FFF792F9206881699E
:104ED00021F00C018161206881696A681143816158
:104EE0002068416841F08001416020688168F84A8B
:104EF000114081602068816841F040018160206834
:104F00008168F44A114081602068816841F00401A1
:104F1000816070200596049606960396029600908E
:104F2000E868019069462068FFF7B0F8206841689A
:104F3000E94A114041602068416841F050014160F8
:104F4000012084F8480084F83E0084F83F0084F88B
:104F5000440084F8450084F83D000020A2E7704733
:104F600010B50446022084F83D002068016A41F231
:104F70001112114207D1016A9200114203D1016856
:104F800021F0010101602046FFF7E9FF002084F8CD
:104F9000480084F83E0084F83F0084F8440084F818
:104FA000450084F83D0084F83C0010BD10B590F831
:104FB0003E30044690F83F2090F8441090F84500A9
:104FC000012B05D1012A03D1012901D1012801D0EA
:104FD000012010BD022084F83E0084F83F0084F8D0
:104FE000440084F84500012200212068FCF787FF77
:104FF000BA49206888420ED0B0F1804F0BD0B84932
:10500000884208D0B749884205D0B749884202D0C3
:10501000B649884208D18168AE4AD2431140062978
:1050200006D0B1F5803F03D0016841F00101016075
:10503000002010BD10B50446002200681146FCF7A0
:105040005EFF2068016A41F21112114207D1016A24
:105050009200114203D1016821F001010160012099
:1050600004F83E0F6070A071E071002010BD10B513
:1050700090F83E30044690F83F2090F8441090F8A5
:105080004500012B05D1012A03D1012901D10128B5
:1050900001D0012010BD022084F83E0084F83F00BA
:1050A00084F8440084F845002068C16841F002019A
:1050B000C160012200212068FCF721FF8749206898
:1050C00088420ED0B0F1804F0BD08549884208D07D
:1050D0008449884205D08449884202D08349884265
:1050E00008D181687B4AD2431140062906D0B1F528
:1050F000803F03D0016841F001010160002010BD34
:1051000010B50446002200681146FCF7F8FE20683E
:10511000C16821F00201C1602068016A41F21112E8
:10512000114207D1016A9200114203D1016821F0B6
:1051300001010160012004F83E0F6070A071E07170
:10514000002010BD70B50E4690F83E10154604467E
:1051500090F84400022904D0022802D0012902D08C
:1051600020E0022070BD01281CD106B9D5B902206B
:1051700084F83E0084F84400012200212068FCF7F6
:10518000BEFE616A5A482B46C862616A5948324677
:105190000863616A584848632168606A343103F0E3
:1051A000D7F908B1012070BD2068C16841F40071D1
:1051B000C1604A49206888420ED0B0F1804F0BD0C0
:1051C0004749884208D04749884205D04649884225
:1051D00002D04649884208D181683E4AD2431140F4
:1051E000062906D0B1F5803F03D0016841F00101E6
:1051F0000160002070BD10B5044600220068114611
:10520000FCF77DFE2068C16821F40071C160606A0E
:1052100003F019FA2068016A41F21112114207D114
:10522000016A9200114203D1016821F0010101607D
:10523000012004F83E0FA071002010BD10B50446F7
:1052400049B104290AD008290BD094F84700012855
:105250000AD0012010BD94F84400F8E794F8450006
:10526000F5E794F84600F2E7022081B3042948D01C
:10527000082949D084F847000422206801F093F9F6
:105280002068416C41F4004141641449206888421F
:105290000ED0B0F1804F0BD01149884208D011498F
:1052A000884205D01049884202D01049884208D16E
:1052B0008168084AD2431140062906D0B1F5803FE3
:1052C00003D0016841F001010160002010BD15E02C
:1052D0008FFFCFFFF8FFFEFF8FFFFFFD002C014087
:1052E000000400400008004000340140004001403C
:1052F0007F31000845310008C71C000884F84400CD
:10530000BAE784F84500B7E784F84600B4E770B51B
:1053100004460D460068002201F045F92068026A43
:1053200041F211131A4244F2444106D1026A0A4280
:1053300003D1426C22F4004242642068026A1A429D
:1053400006D1026A0A4203D1016821F0010101601D
:1053500001203DB1042D08D0082D09D084F8470064
:10536000002070BD84F84400FAE784F84500F7E7B0
:1053700084F84600F4E710B5044649B104290AD080
:1053800008290BD094F8470001280AD0012010BD4D
:1053900094F84400F8E794F84500F5E794F84600DF
:1053A000F2E7022069B104290ED008290FD084F851
:1053B000470079B1042912D0082944D00C2913D10F
:1053C00046E084F84400F4E784F84500F1E784F807
:1053D0004600EEE72068C26842F0020203E020685F
:1053E000C26842F00402C2602068C26842F08002D3
:1053F000C2600422206801F0D6F82068416C41F4B4
:1054000000414164FA49206888420ED0B0F1804FD3
:105410000BD0F849884208D0F749884205D0F749AF
:10542000884202D0F649884207D18168F54A114086
:10543000062906D0B1F5803F03D0016841F0010193
:105440000160002010BD2068C26842F00802CAE76F
:105450002068C26842F01002C5E770B504460068D3
:105460000D0006D0042D08D0082D3BD00C2D08D1FE
:105470003CE0C16821F0020102E0C16821F00401B2
:10548000C16000222946206801F08DF82068026A78
:1054900044F244410A4203D1C26822F08002C26051
:1054A0002068036A41F21112134206D1036A0B42CB
:1054B00003D1436C23F4004343642068036A13421E
:1054C00006D1026A0A4203D1016821F0010101609C
:1054D00001207DB1042D10D0082D11D084F8470093
:1054E000002070BDC16821F00801C9E7C16821F042
:1054F0001001C5E784F84400F2E784F84500EFE7BF
:1055000084F84600ECE710B5846A0121626A8242A1
:1055100003D1217784F844100EE0A26A824204D1BC
:105520000220207784F8451006E0E26A824203D127
:105530000420207784F846102046FCF7C3FB0020A7
:10554000207710BD10B5846A0121626A824205D1BC
:105550002177C069F8B984F844101CE0A26A82423D
:1055600006D102222277C069A8B984F8451012E05A
:10557000E26A824206D104222277C06958B984F8CF
:10558000461008E0226B824205D108222277C069CA
:1055900008B984F847102046FCF78DFE00202077DC
:1055A00010BD2DE9F04116460D00044611D0042D22
:1055B00012D0082D13D094F8470002287ED08DB168
:1055C000042D12D0082D13D094F84700012812D0D2
:1055D000A2E094F84400F0E794F84500EDE794F871
:1055E0004600EAE794F84400F0E794F84500EDE758
:1055F00094F84600EAE70EB9002B60D1022085B18D
:10560000042D11D0082D12D084F847007E487F4920
:105610007F4A7DB1042D1FD0082D5ED00C2D2DD1D9
:105620006DE084F84400F1E784F84500EEE784F883
:105630004600EBE7676AF862606A0163606A3146B8
:1056400042632268606A343202F082FFB8BB20688D
:10565000C16841F4007110E0A76AF862A06A0163B2
:10566000A06A314642632268A06A383202F070FFB5
:1056700028BB2068C16841F48061C16004222946CA
:10568000206800F090FF2068416C41F400414164C3
:105690005749206888420ED0B0F1804F0BD0554951
:1056A000884208D05449884205D05449884202D0E3
:1056B000534988420AD18168524A01E00BE02BE04D
:1056C0001140062906D0B1F5803F03D0016841F0B2
:1056D000010101600020BDE8F081E76AF862E06A3C
:1056E0000163E06A314642632268E06A3C3202F0BC
:1056F0002FFF88B92068C16841F40061BDE7276BBE
:10570000F862206B0163206B314642632268206B94
:10571000403202F01DFF08B10120DCE72068C168BB
:1057200041F48051A9E770B5044600680D0006D029
:10573000042D0AD0082D38D00C2D0DD13BE0C168C6
:1057400021F40071C160606A04E0C16821F48061E5
:10575000C160A06A02F077FF00222946206800F0AD
:1057600022FF2068016A41F21113194244F24442B7
:1057700006D1016A114203D1416C21F40041416418
:105780002068016A194206D1016A114203D10168F9
:1057900021F00101016001209DB1042D14D0082DDC
:1057A00015D084F84700002070BDC16821F4006165
:1057B000C160E06ACEE7C16821F48051C160206B0E
:1057C000C8E784F84400EEE784F84500EBE784F886
:1057D0004600E8E710B50446E1B104291DD00829C8
:1057E0001ED094F8470001281DD0012010BD0000F4
:1057F000002C01400004004000080040003401403B
:105800000040014007000100455500087F220008C4
:105810000755000894F84400E5E794F84500E2E7EE
:1058200094F84600DFE7022079B3042931D0082933
:1058300032D084F847000422206800F0B4FE2068CB
:10584000416C41F400414164F949206888420ED01E
:10585000B0F1804F0BD0F749884208D0F649884212
:1058600005D0F649884202D0F549884207D18168BF
:10587000F44A1140062906D0B1F5803F03D00168F3
:1058800041F0010101600020B0E7FFE784F8440027
:10589000D1E784F84500CEE784F84600CBE770B541
:1058A00004460D460068002200F07DFE2068026A72
:1058B00041F211131A4244F2444106D1026A0A42EB
:1058C00003D1426C22F4004242642068026A1A4208
:1058D00006D1026A0A4203D1016821F00101016088
:1058E00001203DB1042D08D0082D09D084F84700CF
:1058F000002070BD84F84400FAE784F84500F7E71B
:1059000084F84600F4E710B5044649B104290AD0EA
:1059100008290BD094F8470001280AD0012065E738
:1059200094F84400F8E794F84500F5E794F8460049
:10593000F2E7022069B104290ED008290FD084F8BB
:10594000470079B1042912D0082944D00C2913D179
:1059500046E084F84400F4E784F84500F1E784F871
:105960004600EEE72068C26842F0020203E02068C9
:10597000C26842F00402C2602068C26842F080023D
:10598000C2600422206800F00EFE2068416C41F4E1
:1059900000414164A649206888420ED0B0F1804F92
:1059A0000BD0A449884208D0A349884205D0A34916
:1059B000884202D0A249884207D18168A14A114099
:1059C000062906D0B1F5803F03D0016841F00101FE
:1059D000016000200AE72068C26842F00802CAE7B6
:1059E0002068C26842F01002C5E770B5044600683E
:1059F0000D0006D0042D08D0082D3BD00C2D08D169
:105A00003CE0C16821F0020102E0C16821F004011C
:105A1000C16000222946206800F0C5FD2068026AA6
:105A200044F244410A4203D1C26822F08002C260BB
:105A30002068036A41F21112134206D1036A0B4235
:105A400003D1436C23F4004343642068036A134288
:105A500006D1026A0A4203D1016821F00101016006
:105A600001207DB1042D10D0082D11D084F84700FD
:105A7000002070BDC16821F00801C9E7C16821F0AC
:105A80001001C5E784F84400F2E784F84500EFE729
:105A900084F84600ECE72DE9F04116460D00044677
:105AA00011D0042D12D0082D13D094F847000228ED
:105AB0007ED08DB1042D12D0082D13D094F847005C
:105AC000012812D0A1E094F84400F0E794F84500D2
:105AD000EDE794F84600EAE794F84400F0E794F81C
